{
	"StakingPool/CDPStakingPool.sol": {
		"CDPStakingPool": {
			"abi": [
				{
					"inputs": [
						{
							"internalType": "address",
							"name": "lpToken",
							"type": "address"
						},
						{
							"internalType": "address",
							"name": "rewardToken",
							"type": "address"
						}
					],
					"stateMutability": "nonpayable",
					"type": "constructor"
				},
				{
					"anonymous": false,
					"inputs": [
						{
							"indexed": true,
							"internalType": "address",
							"name": "user",
							"type": "address"
						},
						{
							"indexed": false,
							"internalType": "uint256",
							"name": "amount",
							"type": "uint256"
						}
					],
					"name": "GetReward",
					"type": "event"
				},
				{
					"anonymous": false,
					"inputs": [
						{
							"indexed": true,
							"internalType": "address",
							"name": "user",
							"type": "address"
						},
						{
							"indexed": false,
							"internalType": "uint256",
							"name": "amount",
							"type": "uint256"
						}
					],
					"name": "Staked",
					"type": "event"
				},
				{
					"anonymous": false,
					"inputs": [
						{
							"indexed": true,
							"internalType": "address",
							"name": "user",
							"type": "address"
						},
						{
							"indexed": false,
							"internalType": "uint256",
							"name": "amount",
							"type": "uint256"
						}
					],
					"name": "Withdrawn",
					"type": "event"
				},
				{
					"inputs": [
						{
							"internalType": "address",
							"name": "user",
							"type": "address"
						}
					],
					"name": "balanceOf",
					"outputs": [
						{
							"internalType": "uint256",
							"name": "",
							"type": "uint256"
						}
					],
					"stateMutability": "view",
					"type": "function"
				},
				{
					"inputs": [
						{
							"internalType": "address",
							"name": "user",
							"type": "address"
						}
					],
					"name": "earned",
					"outputs": [
						{
							"internalType": "uint256",
							"name": "",
							"type": "uint256"
						}
					],
					"stateMutability": "view",
					"type": "function"
				},
				{
					"inputs": [],
					"name": "getNowPerTokenReward",
					"outputs": [
						{
							"internalType": "uint256",
							"name": "",
							"type": "uint256"
						}
					],
					"stateMutability": "view",
					"type": "function"
				},
				{
					"inputs": [],
					"name": "getNowTime",
					"outputs": [
						{
							"internalType": "uint256",
							"name": "",
							"type": "uint256"
						}
					],
					"stateMutability": "view",
					"type": "function"
				},
				{
					"inputs": [],
					"name": "getReward",
					"outputs": [],
					"stateMutability": "nonpayable",
					"type": "function"
				},
				{
					"inputs": [],
					"name": "lastUpdateTime",
					"outputs": [
						{
							"internalType": "uint256",
							"name": "",
							"type": "uint256"
						}
					],
					"stateMutability": "view",
					"type": "function"
				},
				{
					"inputs": [],
					"name": "lp",
					"outputs": [
						{
							"internalType": "contract IERC20",
							"name": "",
							"type": "address"
						}
					],
					"stateMutability": "view",
					"type": "function"
				},
				{
					"inputs": [],
					"name": "perTokenRewardStored",
					"outputs": [
						{
							"internalType": "uint256",
							"name": "",
							"type": "uint256"
						}
					],
					"stateMutability": "view",
					"type": "function"
				},
				{
					"inputs": [
						{
							"internalType": "address",
							"name": "",
							"type": "address"
						}
					],
					"name": "perTokenRewardStoredForUser",
					"outputs": [
						{
							"internalType": "uint256",
							"name": "",
							"type": "uint256"
						}
					],
					"stateMutability": "view",
					"type": "function"
				},
				{
					"inputs": [],
					"name": "rewardRate",
					"outputs": [
						{
							"internalType": "uint256",
							"name": "",
							"type": "uint256"
						}
					],
					"stateMutability": "view",
					"type": "function"
				},
				{
					"inputs": [
						{
							"internalType": "address",
							"name": "",
							"type": "address"
						}
					],
					"name": "rewards",
					"outputs": [
						{
							"internalType": "uint256",
							"name": "",
							"type": "uint256"
						}
					],
					"stateMutability": "view",
					"type": "function"
				},
				{
					"inputs": [
						{
							"internalType": "uint256",
							"name": "amount",
							"type": "uint256"
						}
					],
					"name": "stake",
					"outputs": [],
					"stateMutability": "nonpayable",
					"type": "function"
				},
				{
					"inputs": [],
					"name": "startTime",
					"outputs": [
						{
							"internalType": "uint256",
							"name": "",
							"type": "uint256"
						}
					],
					"stateMutability": "view",
					"type": "function"
				},
				{
					"inputs": [],
					"name": "token",
					"outputs": [
						{
							"internalType": "contract IERC20",
							"name": "",
							"type": "address"
						}
					],
					"stateMutability": "view",
					"type": "function"
				},
				{
					"inputs": [],
					"name": "totalSupply",
					"outputs": [
						{
							"internalType": "uint256",
							"name": "",
							"type": "uint256"
						}
					],
					"stateMutability": "view",
					"type": "function"
				},
				{
					"inputs": [
						{
							"internalType": "uint256",
							"name": "amount",
							"type": "uint256"
						}
					],
					"name": "withdrawn",
					"outputs": [],
					"stateMutability": "nonpayable",
					"type": "function"
				}
			],
			"devdoc": {
				"kind": "dev",
				"methods": {},
				"version": 1
			},
			"evm": {
				"assembly": "    /* \"StakingPool/CDPStakingPool.sol\":115:4674  contract CDPStakingPool {... */\n  mstore(0x40, 0x80)\n    /* \"StakingPool/CDPStakingPool.sol\":300:310  1 * 10**18 */\n  0x0de0b6b3a7640000\n    /* \"StakingPool/CDPStakingPool.sol\":272:310  uint256 public rewardRate = 1 * 10**18 */\n  0x02\n  sstore\n    /* \"StakingPool/CDPStakingPool.sol\":1281:1442  constructor(address lpToken, address rewardToken) {... */\n  callvalue\n  dup1\n  iszero\n  tag_1\n  jumpi\n  0x00\n  dup1\n  revert\ntag_1:\n  pop\n  mload(0x40)\n  sub(codesize, bytecodeSize)\n  dup1\n  bytecodeSize\n  dup4\n  codecopy\n  dup2\n  add\n  0x40\n  dup2\n  swap1\n  mstore\n  tag_2\n  swap2\n  tag_3\n  jump\t// in\ntag_2:\n    /* \"StakingPool/CDPStakingPool.sol\":1341:1343  lp */\n  0x01\n    /* \"StakingPool/CDPStakingPool.sol\":1341:1361  lp = IERC20(lpToken) */\n  dup1\n  sload\n  sub(shl(0xa0, 0x01), 0x01)\n  swap4\n  dup5\n  and\n  not(sub(shl(0xa0, 0x01), 0x01))\n  swap2\n  dup3\n  and\n  or\n  swap1\n  swap2\n  sstore\n    /* \"StakingPool/CDPStakingPool.sol\":1341:1343  lp */\n  0x00\n    /* \"StakingPool/CDPStakingPool.sol\":1371:1398  token = IERC20(rewardToken) */\n  dup1\n  sload\n  swap3\n  swap1\n  swap4\n  and\n  swap2\n  and\n  or\n  swap1\n  sstore\n    /* \"StakingPool/CDPStakingPool.sol\":1420:1435  block.timestamp */\n  timestamp\n    /* \"StakingPool/CDPStakingPool.sol\":1408:1417  startTime */\n  0x05\n    /* \"StakingPool/CDPStakingPool.sol\":1408:1435  startTime = block.timestamp */\n  sstore\n    /* \"StakingPool/CDPStakingPool.sol\":115:4674  contract CDPStakingPool {... */\n  jump(tag_8)\n    /* \"#utility.yul\":14:191   */\ntag_7:\n    /* \"#utility.yul\":93:106   */\n  dup1\n  mload\n  sub(shl(0xa0, 0x01), 0x01)\n    /* \"#utility.yul\":135:166   */\n  dup2\n  and\n    /* \"#utility.yul\":125:167   */\n  dup2\n  eq\n    /* \"#utility.yul\":115:185   */\n  tag_10\n  jumpi\n    /* \"#utility.yul\":181:182   */\n  0x00\n    /* \"#utility.yul\":178:179   */\n  dup1\n    /* \"#utility.yul\":171:183   */\n  revert\n    /* \"#utility.yul\":115:185   */\ntag_10:\n    /* \"#utility.yul\":14:191   */\n  swap2\n  swap1\n  pop\n  jump\t// out\n    /* \"#utility.yul\":196:489   */\ntag_3:\n    /* \"#utility.yul\":275:281   */\n  0x00\n    /* \"#utility.yul\":283:289   */\n  dup1\n    /* \"#utility.yul\":336:338   */\n  0x40\n    /* \"#utility.yul\":324:333   */\n  dup4\n    /* \"#utility.yul\":315:322   */\n  dup6\n    /* \"#utility.yul\":311:334   */\n  sub\n    /* \"#utility.yul\":307:339   */\n  slt\n    /* \"#utility.yul\":304:356   */\n  iszero\n  tag_12\n  jumpi\n    /* \"#utility.yul\":352:353   */\n  0x00\n    /* \"#utility.yul\":349:350   */\n  dup1\n    /* \"#utility.yul\":342:354   */\n  revert\n    /* \"#utility.yul\":304:356   */\ntag_12:\n    /* \"#utility.yul\":375:415   */\n  tag_13\n    /* \"#utility.yul\":405:414   */\n  dup4\n    /* \"#utility.yul\":375:415   */\n  tag_7\n  jump\t// in\ntag_13:\n    /* \"#utility.yul\":365:415   */\n  swap2\n  pop\n    /* \"#utility.yul\":434:483   */\n  tag_14\n    /* \"#utility.yul\":479:481   */\n  0x20\n    /* \"#utility.yul\":468:477   */\n  dup5\n    /* \"#utility.yul\":464:482   */\n  add\n    /* \"#utility.yul\":434:483   */\n  tag_7\n  jump\t// in\ntag_14:\n    /* \"#utility.yul\":424:483   */\n  swap1\n  pop\n    /* \"#utility.yul\":196:489   */\n  swap3\n  pop\n  swap3\n  swap1\n  pop\n  jump\t// out\ntag_8:\n    /* \"StakingPool/CDPStakingPool.sol\":115:4674  contract CDPStakingPool {... */\n  dataSize(sub_0)\n  dup1\n  dataOffset(sub_0)\n  0x00\n  codecopy\n  0x00\n  return\nstop\n\nsub_0: assembly {\n        /* \"StakingPool/CDPStakingPool.sol\":115:4674  contract CDPStakingPool {... */\n      mstore(0x40, 0x80)\n      callvalue\n      dup1\n      iszero\n      tag_1\n      jumpi\n      0x00\n      dup1\n      revert\n    tag_1:\n      pop\n      jumpi(tag_2, lt(calldatasize, 0x04))\n      shr(0xe0, calldataload(0x00))\n      dup1\n      0x7b0a47ee\n      gt\n      tag_19\n      jumpi\n      dup1\n      0xa83526a3\n      gt\n      tag_20\n      jumpi\n      dup1\n      0xa83526a3\n      eq\n      tag_15\n      jumpi\n      dup1\n      0xc8f33c91\n      eq\n      tag_16\n      jumpi\n      dup1\n      0xe6b43d01\n      eq\n      tag_17\n      jumpi\n      dup1\n      0xfc0c546a\n      eq\n      tag_18\n      jumpi\n      0x00\n      dup1\n      revert\n    tag_20:\n      dup1\n      0x7b0a47ee\n      eq\n      tag_11\n      jumpi\n      dup1\n      0x8319d26a\n      eq\n      tag_12\n      jumpi\n      dup1\n      0x9b819d38\n      eq\n      tag_13\n      jumpi\n      dup1\n      0xa694fc3a\n      eq\n      tag_14\n      jumpi\n      0x00\n      dup1\n      revert\n    tag_19:\n      dup1\n      0x313c06a0\n      gt\n      tag_21\n      jumpi\n      dup1\n      0x313c06a0\n      eq\n      tag_7\n      jumpi\n      dup1\n      0x3d18b912\n      eq\n      tag_8\n      jumpi\n      dup1\n      0x70a08231\n      eq\n      tag_9\n      jumpi\n      dup1\n      0x78e97925\n      eq\n      tag_10\n      jumpi\n      0x00\n      dup1\n      revert\n    tag_21:\n      dup1\n      0x8cc262\n      eq\n      tag_3\n      jumpi\n      dup1\n      0x0700037d\n      eq\n      tag_4\n      jumpi\n      dup1\n      0x18160ddd\n      eq\n      tag_5\n      jumpi\n      dup1\n      0x1b58638d\n      eq\n      tag_6\n      jumpi\n    tag_2:\n      0x00\n      dup1\n      revert\n        /* \"StakingPool/CDPStakingPool.sol\":2523:2941  function earned(address user) public view returns (uint256) {... */\n    tag_3:\n      tag_22\n      tag_23\n      calldatasize\n      0x04\n      tag_24\n      jump\t// in\n    tag_23:\n      tag_25\n      jump\t// in\n    tag_22:\n      mload(0x40)\n        /* \"#utility.yul\":451:476   */\n      swap1\n      dup2\n      mstore\n        /* \"#utility.yul\":439:441   */\n      0x20\n        /* \"#utility.yul\":424:442   */\n      add\n        /* \"StakingPool/CDPStakingPool.sol\":2523:2941  function earned(address user) public view returns (uint256) {... */\n    tag_26:\n      mload(0x40)\n      dup1\n      swap2\n      sub\n      swap1\n      return\n        /* \"StakingPool/CDPStakingPool.sol\":829:871  mapping(address => uint256) public rewards */\n    tag_4:\n      tag_22\n      tag_29\n      calldatasize\n      0x04\n      tag_24\n      jump\t// in\n    tag_29:\n      mstore(0x20, 0x07)\n      0x00\n      swap1\n      dup2\n      mstore\n      0x40\n      swap1\n      keccak256\n      sload\n      dup2\n      jump\n        /* \"StakingPool/CDPStakingPool.sol\":1480:1569  function totalSupply() public view returns (uint256) {... */\n    tag_5:\n        /* \"StakingPool/CDPStakingPool.sol\":1550:1562  _totalSupply */\n      sload(0x08)\n        /* \"StakingPool/CDPStakingPool.sol\":1480:1569  function totalSupply() public view returns (uint256) {... */\n      jump(tag_22)\n        /* \"StakingPool/CDPStakingPool.sol\":1980:2368  function getNowPerTokenReward() public view returns (uint256) {... */\n    tag_6:\n      tag_22\n      tag_36\n      jump\t// in\n        /* \"StakingPool/CDPStakingPool.sol\":214:230  IERC20 public lp */\n    tag_7:\n      sload(0x01)\n      tag_38\n      swap1\n      sub(shl(0xa0, 0x01), 0x01)\n      and\n      dup2\n      jump\n    tag_38:\n      mload(0x40)\n      sub(shl(0xa0, 0x01), 0x01)\n        /* \"#utility.yul\":664:696   */\n      swap1\n      swap2\n      and\n        /* \"#utility.yul\":646:697   */\n      dup2\n      mstore\n        /* \"#utility.yul\":634:636   */\n      0x20\n        /* \"#utility.yul\":619:637   */\n      add\n        /* \"StakingPool/CDPStakingPool.sol\":214:230  IERC20 public lp */\n      tag_26\n        /* \"#utility.yul\":487:703   */\n      jump\n        /* \"StakingPool/CDPStakingPool.sol\":4044:4323  function getReward() public checkStart updateReward(msg.sender) {... */\n    tag_8:\n      tag_42\n      tag_43\n      jump\t// in\n    tag_42:\n      stop\n        /* \"StakingPool/CDPStakingPool.sol\":1611:1713  function balanceOf(address user) public view returns (uint256) {... */\n    tag_9:\n      tag_22\n      tag_45\n      calldatasize\n      0x04\n      tag_24\n      jump\t// in\n    tag_45:\n      sub(shl(0xa0, 0x01), 0x01)\n        /* \"StakingPool/CDPStakingPool.sol\":1691:1706  _balances[user] */\n      and\n        /* \"StakingPool/CDPStakingPool.sol\":1665:1672  uint256 */\n      0x00\n        /* \"StakingPool/CDPStakingPool.sol\":1691:1706  _balances[user] */\n      swap1\n      dup2\n      mstore\n        /* \"StakingPool/CDPStakingPool.sol\":1691:1700  _balances */\n      0x09\n        /* \"StakingPool/CDPStakingPool.sol\":1691:1706  _balances[user] */\n      0x20\n      mstore\n      0x40\n      swap1\n      keccak256\n      sload\n      swap1\n        /* \"StakingPool/CDPStakingPool.sol\":1611:1713  function balanceOf(address user) public view returns (uint256) {... */\n      jump\n        /* \"StakingPool/CDPStakingPool.sol\":566:590  uint256 public startTime */\n    tag_10:\n      tag_22\n      sload(0x05)\n      dup2\n      jump\n        /* \"StakingPool/CDPStakingPool.sol\":272:310  uint256 public rewardRate = 1 * 10**18 */\n    tag_11:\n      tag_22\n      sload(0x02)\n      dup2\n      jump\n        /* \"StakingPool/CDPStakingPool.sol\":499:534  uint256 public perTokenRewardStored */\n    tag_12:\n      tag_22\n      sload(0x04)\n      dup2\n      jump\n        /* \"StakingPool/CDPStakingPool.sol\":1745:1836  function getNowTime() public view returns (uint256) {... */\n    tag_13:\n        /* \"StakingPool/CDPStakingPool.sol\":1814:1829  block.timestamp */\n      timestamp\n        /* \"StakingPool/CDPStakingPool.sol\":1745:1836  function getNowTime() public view returns (uint256) {... */\n      jump(tag_22)\n        /* \"StakingPool/CDPStakingPool.sol\":3575:4018  function stake(uint256 amount) public checkStart updateReward(msg.sender) {... */\n    tag_14:\n      tag_42\n      tag_61\n      calldatasize\n      0x04\n      tag_62\n      jump\t// in\n    tag_61:\n      tag_63\n      jump\t// in\n        /* \"StakingPool/CDPStakingPool.sol\":682:744  mapping(address => uint256) public perTokenRewardStoredForUser */\n    tag_15:\n      tag_22\n      tag_65\n      calldatasize\n      0x04\n      tag_24\n      jump\t// in\n    tag_65:\n      mstore(0x20, 0x06)\n      0x00\n      swap1\n      dup2\n      mstore\n      0x40\n      swap1\n      keccak256\n      sload\n      dup2\n      jump\n        /* \"StakingPool/CDPStakingPool.sol\":372:401  uint256 public lastUpdateTime */\n    tag_16:\n      tag_22\n      sload(0x03)\n      dup2\n      jump\n        /* \"StakingPool/CDPStakingPool.sol\":4349:4672  function withdrawn(uint256 amount) public checkStart updateReward(msg.sender) {... */\n    tag_17:\n      tag_42\n      tag_72\n      calldatasize\n      0x04\n      tag_62\n      jump\t// in\n    tag_72:\n      tag_73\n      jump\t// in\n        /* \"StakingPool/CDPStakingPool.sol\":167:186  IERC20 public token */\n    tag_18:\n      sload(0x00)\n      tag_38\n      swap1\n      sub(shl(0xa0, 0x01), 0x01)\n      and\n      dup2\n      jump\n        /* \"StakingPool/CDPStakingPool.sol\":2523:2941  function earned(address user) public view returns (uint256) {... */\n    tag_25:\n      sub(shl(0xa0, 0x01), 0x01)\n        /* \"StakingPool/CDPStakingPool.sol\":2649:2664  _balances[user] */\n      dup2\n      and\n        /* \"StakingPool/CDPStakingPool.sol\":2574:2581  uint256 */\n      0x00\n        /* \"StakingPool/CDPStakingPool.sol\":2649:2664  _balances[user] */\n      swap1\n      dup2\n      mstore\n        /* \"StakingPool/CDPStakingPool.sol\":2649:2658  _balances */\n      0x09\n        /* \"StakingPool/CDPStakingPool.sol\":2649:2664  _balances[user] */\n      0x20\n      swap1\n      dup2\n      mstore\n      0x40\n      dup1\n      dup4\n      keccak256\n      sload\n        /* \"StakingPool/CDPStakingPool.sol\":2777:2804  perTokenRewardStoredForUser */\n      0x06\n        /* \"StakingPool/CDPStakingPool.sol\":2777:2810  perTokenRewardStoredForUser[user] */\n      swap1\n      swap3\n      mstore\n      dup3\n      keccak256\n      sload\n        /* \"StakingPool/CDPStakingPool.sol\":2574:2581  uint256 */\n      dup3\n      swap1\n        /* \"StakingPool/CDPStakingPool.sol\":2752:2774  getNowPerTokenReward() */\n      tag_78\n        /* \"StakingPool/CDPStakingPool.sol\":2752:2772  getNowPerTokenReward */\n      tag_36\n        /* \"StakingPool/CDPStakingPool.sol\":2752:2774  getNowPerTokenReward() */\n      jump\t// in\n    tag_78:\n        /* \"StakingPool/CDPStakingPool.sol\":2752:2810  getNowPerTokenReward() - perTokenRewardStoredForUser[user] */\n      tag_79\n      swap2\n      swap1\n      tag_80\n      jump\t// in\n    tag_79:\n        /* \"StakingPool/CDPStakingPool.sol\":2736:2811  stakingCount * (getNowPerTokenReward() - perTokenRewardStoredForUser[user]) */\n      tag_81\n      swap1\n        /* \"StakingPool/CDPStakingPool.sol\":2736:2748  stakingCount */\n      dup4\n        /* \"StakingPool/CDPStakingPool.sol\":2736:2811  stakingCount * (getNowPerTokenReward() - perTokenRewardStoredForUser[user]) */\n      tag_82\n      jump\t// in\n    tag_81:\n      sub(shl(0xa0, 0x01), 0x01)\n        /* \"StakingPool/CDPStakingPool.sol\":2880:2893  rewards[user] */\n      dup6\n      and\n        /* \"StakingPool/CDPStakingPool.sol\":2860:2877  uint256 earnCount */\n      0x00\n        /* \"StakingPool/CDPStakingPool.sol\":2880:2893  rewards[user] */\n      swap1\n      dup2\n      mstore\n        /* \"StakingPool/CDPStakingPool.sol\":2880:2887  rewards */\n      0x07\n        /* \"StakingPool/CDPStakingPool.sol\":2880:2893  rewards[user] */\n      0x20\n      mstore\n      0x40\n      swap1\n      keccak256\n      sload\n        /* \"StakingPool/CDPStakingPool.sol\":2713:2811  uint256 newEarnCount = stakingCount * (getNowPerTokenReward() - perTokenRewardStoredForUser[user]) */\n      swap1\n      swap2\n      pop\n        /* \"StakingPool/CDPStakingPool.sol\":2910:2934  newEarnCount + earnCount */\n      tag_83\n        /* \"StakingPool/CDPStakingPool.sol\":2880:2893  rewards[user] */\n      dup2\n        /* \"StakingPool/CDPStakingPool.sol\":2713:2811  uint256 newEarnCount = stakingCount * (getNowPerTokenReward() - perTokenRewardStoredForUser[user]) */\n      dup4\n        /* \"StakingPool/CDPStakingPool.sol\":2910:2934  newEarnCount + earnCount */\n      tag_84\n      jump\t// in\n    tag_83:\n        /* \"StakingPool/CDPStakingPool.sol\":2903:2934  return newEarnCount + earnCount */\n      swap6\n        /* \"StakingPool/CDPStakingPool.sol\":2523:2941  function earned(address user) public view returns (uint256) {... */\n      swap5\n      pop\n      pop\n      pop\n      pop\n      pop\n      jump\t// out\n        /* \"StakingPool/CDPStakingPool.sol\":1980:2368  function getNowPerTokenReward() public view returns (uint256) {... */\n    tag_36:\n        /* \"StakingPool/CDPStakingPool.sol\":2033:2040  uint256 */\n      0x00\n        /* \"StakingPool/CDPStakingPool.sol\":2056:2068  _totalSupply */\n      sload(0x08)\n        /* \"StakingPool/CDPStakingPool.sol\":2072:2073  0 */\n      0x00\n        /* \"StakingPool/CDPStakingPool.sol\":2056:2073  _totalSupply == 0 */\n      sub\n        /* \"StakingPool/CDPStakingPool.sol\":2052:2127  if (_totalSupply == 0) {... */\n      tag_87\n      jumpi\n      pop\n        /* \"StakingPool/CDPStakingPool.sol\":2096:2116  perTokenRewardStored */\n      sload(0x04)\n      swap1\n        /* \"StakingPool/CDPStakingPool.sol\":1980:2368  function getNowPerTokenReward() public view returns (uint256) {... */\n      jump\t// out\n        /* \"StakingPool/CDPStakingPool.sol\":2052:2127  if (_totalSupply == 0) {... */\n    tag_87:\n        /* \"StakingPool/CDPStakingPool.sol\":2136:2148  uint256 time */\n      0x00\n        /* \"StakingPool/CDPStakingPool.sol\":2166:2180  lastUpdateTime */\n      sload(0x03)\n        /* \"StakingPool/CDPStakingPool.sol\":2151:2163  getNowTime() */\n      tag_88\n        /* \"StakingPool/CDPStakingPool.sol\":1814:1829  block.timestamp */\n      timestamp\n      swap1\n        /* \"StakingPool/CDPStakingPool.sol\":1745:1836  function getNowTime() public view returns (uint256) {... */\n      jump\n        /* \"StakingPool/CDPStakingPool.sol\":2151:2163  getNowTime() */\n    tag_88:\n        /* \"StakingPool/CDPStakingPool.sol\":2151:2180  getNowTime() - lastUpdateTime */\n      tag_89\n      swap2\n      swap1\n      tag_80\n      jump\t// in\n    tag_89:\n        /* \"StakingPool/CDPStakingPool.sol\":2136:2180  uint256 time = getNowTime() - lastUpdateTime */\n      swap1\n      pop\n        /* \"StakingPool/CDPStakingPool.sol\":2250:2272  uint256 perTokenReward */\n      0x00\n        /* \"StakingPool/CDPStakingPool.sol\":2295:2307  _totalSupply */\n      sload(0x08)\n        /* \"StakingPool/CDPStakingPool.sol\":2282:2292  rewardRate */\n      sload(0x02)\n        /* \"StakingPool/CDPStakingPool.sol\":2275:2279  time */\n      dup4\n        /* \"StakingPool/CDPStakingPool.sol\":2275:2292  time * rewardRate */\n      tag_90\n      swap2\n      swap1\n      tag_82\n      jump\t// in\n    tag_90:\n        /* \"StakingPool/CDPStakingPool.sol\":2275:2307  time * rewardRate / _totalSupply */\n      tag_91\n      swap2\n      swap1\n      tag_92\n      jump\t// in\n    tag_91:\n        /* \"StakingPool/CDPStakingPool.sol\":2250:2307  uint256 perTokenReward = time * rewardRate / _totalSupply */\n      swap1\n      pop\n        /* \"StakingPool/CDPStakingPool.sol\":2347:2361  perTokenReward */\n      dup1\n        /* \"StakingPool/CDPStakingPool.sol\":2324:2344  perTokenRewardStored */\n      sload(0x04)\n        /* \"StakingPool/CDPStakingPool.sol\":2324:2361  perTokenRewardStored + perTokenReward */\n      tag_93\n      swap2\n      swap1\n      tag_84\n      jump\t// in\n    tag_93:\n        /* \"StakingPool/CDPStakingPool.sol\":2317:2361  return perTokenRewardStored + perTokenReward */\n      swap3\n      pop\n      pop\n      pop\n        /* \"StakingPool/CDPStakingPool.sol\":1980:2368  function getNowPerTokenReward() public view returns (uint256) {... */\n      swap1\n      jump\t// out\n        /* \"StakingPool/CDPStakingPool.sol\":4044:4323  function getReward() public checkStart updateReward(msg.sender) {... */\n    tag_43:\n        /* \"StakingPool/CDPStakingPool.sol\":3508:3517  startTime */\n      sload(0x05)\n        /* \"StakingPool/CDPStakingPool.sol\":3490:3505  block.timestamp */\n      timestamp\n        /* \"StakingPool/CDPStakingPool.sol\":3490:3517  block.timestamp > startTime */\n      gt\n        /* \"StakingPool/CDPStakingPool.sol\":3482:3531  require(block.timestamp > startTime, \"not start\") */\n      tag_95\n      jumpi\n      mload(0x40)\n      shl(0xe5, 0x461bcd)\n      dup2\n      mstore\n      0x04\n      add\n      tag_96\n      swap1\n      tag_97\n      jump\t// in\n    tag_96:\n      mload(0x40)\n      dup1\n      swap2\n      sub\n      swap1\n      revert\n    tag_95:\n        /* \"StakingPool/CDPStakingPool.sol\":4096:4106  msg.sender */\n      caller\n        /* \"StakingPool/CDPStakingPool.sol\":3072:3094  getNowPerTokenReward() */\n      tag_99\n        /* \"StakingPool/CDPStakingPool.sol\":3072:3092  getNowPerTokenReward */\n      tag_36\n        /* \"StakingPool/CDPStakingPool.sol\":3072:3094  getNowPerTokenReward() */\n      jump\t// in\n    tag_99:\n        /* \"StakingPool/CDPStakingPool.sol\":3049:3069  perTokenRewardStored */\n      0x04\n        /* \"StakingPool/CDPStakingPool.sol\":3049:3094  perTokenRewardStored = getNowPerTokenReward() */\n      sstore\n        /* \"StakingPool/CDPStakingPool.sol\":3151:3166  block.timestamp */\n      timestamp\n        /* \"StakingPool/CDPStakingPool.sol\":3134:3148  lastUpdateTime */\n      0x03\n        /* \"StakingPool/CDPStakingPool.sol\":3134:3166  lastUpdateTime = block.timestamp */\n      sstore\n      sub(shl(0xa0, 0x01), 0x01)\n        /* \"StakingPool/CDPStakingPool.sol\":3180:3198  user != address(0) */\n      dup2\n      and\n      iszero\n        /* \"StakingPool/CDPStakingPool.sol\":3176:3392  if (user != address(0)) {... */\n      tag_100\n      jumpi\n        /* \"StakingPool/CDPStakingPool.sol\":3263:3275  earned(user) */\n      tag_101\n        /* \"StakingPool/CDPStakingPool.sol\":3270:3274  user */\n      dup2\n        /* \"StakingPool/CDPStakingPool.sol\":3263:3269  earned */\n      tag_25\n        /* \"StakingPool/CDPStakingPool.sol\":3263:3275  earned(user) */\n      jump\t// in\n    tag_101:\n      sub(shl(0xa0, 0x01), 0x01)\n        /* \"StakingPool/CDPStakingPool.sol\":3247:3260  rewards[user] */\n      dup3\n      and\n      0x00\n      swap1\n      dup2\n      mstore\n        /* \"StakingPool/CDPStakingPool.sol\":3247:3254  rewards */\n      0x07\n        /* \"StakingPool/CDPStakingPool.sol\":3247:3260  rewards[user] */\n      0x20\n      swap1\n      dup2\n      mstore\n      0x40\n      dup1\n      dup4\n      keccak256\n        /* \"StakingPool/CDPStakingPool.sol\":3247:3275  rewards[user] = earned(user) */\n      swap4\n      swap1\n      swap4\n      sstore\n        /* \"StakingPool/CDPStakingPool.sol\":3361:3381  perTokenRewardStored */\n      sload(0x04)\n        /* \"StakingPool/CDPStakingPool.sol\":3325:3352  perTokenRewardStoredForUser */\n      0x06\n        /* \"StakingPool/CDPStakingPool.sol\":3325:3358  perTokenRewardStoredForUser[user] */\n      swap1\n      swap2\n      mstore\n      swap2\n      swap1\n      keccak256\n        /* \"StakingPool/CDPStakingPool.sol\":3325:3381  perTokenRewardStoredForUser[user] = perTokenRewardStored */\n      sstore\n        /* \"StakingPool/CDPStakingPool.sol\":3176:3392  if (user != address(0)) {... */\n    tag_100:\n        /* \"StakingPool/CDPStakingPool.sol\":4118:4132  uint256 reward */\n      0x00\n        /* \"StakingPool/CDPStakingPool.sol\":4135:4153  earned(msg.sender) */\n      tag_103\n        /* \"StakingPool/CDPStakingPool.sol\":4142:4152  msg.sender */\n      caller\n        /* \"StakingPool/CDPStakingPool.sol\":4135:4141  earned */\n      tag_25\n        /* \"StakingPool/CDPStakingPool.sol\":4135:4153  earned(msg.sender) */\n      jump\t// in\n    tag_103:\n        /* \"StakingPool/CDPStakingPool.sol\":4118:4153  uint256 reward = earned(msg.sender) */\n      swap1\n      pop\n        /* \"StakingPool/CDPStakingPool.sol\":4180:4181  0 */\n      0x00\n        /* \"StakingPool/CDPStakingPool.sol\":4171:4177  reward */\n      dup2\n        /* \"StakingPool/CDPStakingPool.sol\":4171:4181  reward > 0 */\n      gt\n        /* \"StakingPool/CDPStakingPool.sol\":4163:4195  require(reward > 0, \"no reward\") */\n      tag_104\n      jumpi\n      mload(0x40)\n      shl(0xe5, 0x461bcd)\n      dup2\n      mstore\n        /* \"#utility.yul\":2222:2224   */\n      0x20\n        /* \"StakingPool/CDPStakingPool.sol\":4163:4195  require(reward > 0, \"no reward\") */\n      0x04\n      dup3\n      add\n        /* \"#utility.yul\":2204:2225   */\n      mstore\n        /* \"#utility.yul\":2261:2262   */\n      0x09\n        /* \"#utility.yul\":2241:2259   */\n      0x24\n      dup3\n      add\n        /* \"#utility.yul\":2234:2263   */\n      mstore\n      shl(0xba, 0x1b9bc81c995dd85c99)\n        /* \"#utility.yul\":2279:2297   */\n      0x44\n      dup3\n      add\n        /* \"#utility.yul\":2272:2311   */\n      mstore\n        /* \"#utility.yul\":2328:2346   */\n      0x64\n      add\n        /* \"StakingPool/CDPStakingPool.sol\":4163:4195  require(reward > 0, \"no reward\") */\n      tag_96\n        /* \"#utility.yul\":2020:2352   */\n      jump\n        /* \"StakingPool/CDPStakingPool.sol\":4163:4195  require(reward > 0, \"no reward\") */\n    tag_104:\n        /* \"StakingPool/CDPStakingPool.sol\":4213:4223  msg.sender */\n      caller\n        /* \"StakingPool/CDPStakingPool.sol\":4227:4228  0 */\n      0x00\n        /* \"StakingPool/CDPStakingPool.sol\":4205:4224  rewards[msg.sender] */\n      dup2\n      dup2\n      mstore\n        /* \"StakingPool/CDPStakingPool.sol\":4205:4212  rewards */\n      0x07\n        /* \"StakingPool/CDPStakingPool.sol\":4205:4224  rewards[msg.sender] */\n      0x20\n      mstore\n      0x40\n      dup1\n      dup3\n      keccak256\n        /* \"StakingPool/CDPStakingPool.sol\":4205:4228  rewards[msg.sender] = 0 */\n      dup3\n      swap1\n      sstore\n        /* \"StakingPool/CDPStakingPool.sol\":4238:4243  token */\n      swap1\n      sload\n        /* \"StakingPool/CDPStakingPool.sol\":4238:4272  token.transfer(msg.sender, reward) */\n      swap1\n      mload\n      shl(0xe0, 0xa9059cbb)\n      dup2\n      mstore\n      0x04\n      dup2\n      add\n        /* \"#utility.yul\":2531:2582   */\n      swap3\n      swap1\n      swap3\n      mstore\n        /* \"#utility.yul\":2598:2616   */\n      0x24\n      dup3\n      add\n        /* \"#utility.yul\":2591:2625   */\n      dup4\n      swap1\n      mstore\n      sub(shl(0xa0, 0x01), 0x01)\n        /* \"StakingPool/CDPStakingPool.sol\":4238:4243  token */\n      and\n      swap1\n        /* \"StakingPool/CDPStakingPool.sol\":4238:4252  token.transfer */\n      0xa9059cbb\n      swap1\n        /* \"#utility.yul\":2504:2522   */\n      0x44\n      add\n        /* \"StakingPool/CDPStakingPool.sol\":4238:4272  token.transfer(msg.sender, reward) */\n      0x20\n      mload(0x40)\n      dup1\n      dup4\n      sub\n      dup2\n      0x00\n      dup8\n      gas\n      call\n      iszero\n      dup1\n      iszero\n      tag_110\n      jumpi\n      returndatasize\n      0x00\n      dup1\n      returndatacopy\n      revert(0x00, returndatasize)\n    tag_110:\n      pop\n      pop\n      pop\n      pop\n      mload(0x40)\n      returndatasize\n      not(0x1f)\n      0x1f\n      dup3\n      add\n      and\n      dup3\n      add\n      dup1\n      0x40\n      mstore\n      pop\n      dup2\n      add\n      swap1\n      tag_111\n      swap2\n      swap1\n      tag_112\n      jump\t// in\n    tag_111:\n      pop\n        /* \"StakingPool/CDPStakingPool.sol\":4287:4316  GetReward(msg.sender, reward) */\n      mload(0x40)\n        /* \"#utility.yul\":451:476   */\n      dup2\n      dup2\n      mstore\n        /* \"StakingPool/CDPStakingPool.sol\":4297:4307  msg.sender */\n      caller\n      swap1\n        /* \"StakingPool/CDPStakingPool.sol\":4287:4316  GetReward(msg.sender, reward) */\n      0x25c30c62c42b51e4f667b70ef60f1f683c376f6ace28312ed45a40665e01af37\n      swap1\n        /* \"#utility.yul\":439:441   */\n      0x20\n        /* \"#utility.yul\":424:442   */\n      add\n        /* \"StakingPool/CDPStakingPool.sol\":4287:4316  GetReward(msg.sender, reward) */\n    tag_113:\n      mload(0x40)\n      dup1\n      swap2\n      sub\n      swap1\n      log2\n        /* \"StakingPool/CDPStakingPool.sol\":4108:4323  {... */\n      pop\n        /* \"StakingPool/CDPStakingPool.sol\":3541:3542  _ */\n      pop\n        /* \"StakingPool/CDPStakingPool.sol\":4044:4323  function getReward() public checkStart updateReward(msg.sender) {... */\n      jump\t// out\n        /* \"StakingPool/CDPStakingPool.sol\":3575:4018  function stake(uint256 amount) public checkStart updateReward(msg.sender) {... */\n    tag_63:\n        /* \"StakingPool/CDPStakingPool.sol\":3508:3517  startTime */\n      sload(0x05)\n        /* \"StakingPool/CDPStakingPool.sol\":3490:3505  block.timestamp */\n      timestamp\n        /* \"StakingPool/CDPStakingPool.sol\":3490:3517  block.timestamp > startTime */\n      gt\n        /* \"StakingPool/CDPStakingPool.sol\":3482:3531  require(block.timestamp > startTime, \"not start\") */\n      tag_117\n      jumpi\n      mload(0x40)\n      shl(0xe5, 0x461bcd)\n      dup2\n      mstore\n      0x04\n      add\n      tag_96\n      swap1\n      tag_97\n      jump\t// in\n    tag_117:\n        /* \"StakingPool/CDPStakingPool.sol\":3637:3647  msg.sender */\n      caller\n        /* \"StakingPool/CDPStakingPool.sol\":3072:3094  getNowPerTokenReward() */\n      tag_120\n        /* \"StakingPool/CDPStakingPool.sol\":3072:3092  getNowPerTokenReward */\n      tag_36\n        /* \"StakingPool/CDPStakingPool.sol\":3072:3094  getNowPerTokenReward() */\n      jump\t// in\n    tag_120:\n        /* \"StakingPool/CDPStakingPool.sol\":3049:3069  perTokenRewardStored */\n      0x04\n        /* \"StakingPool/CDPStakingPool.sol\":3049:3094  perTokenRewardStored = getNowPerTokenReward() */\n      sstore\n        /* \"StakingPool/CDPStakingPool.sol\":3151:3166  block.timestamp */\n      timestamp\n        /* \"StakingPool/CDPStakingPool.sol\":3134:3148  lastUpdateTime */\n      0x03\n        /* \"StakingPool/CDPStakingPool.sol\":3134:3166  lastUpdateTime = block.timestamp */\n      sstore\n      sub(shl(0xa0, 0x01), 0x01)\n        /* \"StakingPool/CDPStakingPool.sol\":3180:3198  user != address(0) */\n      dup2\n      and\n      iszero\n        /* \"StakingPool/CDPStakingPool.sol\":3176:3392  if (user != address(0)) {... */\n      tag_121\n      jumpi\n        /* \"StakingPool/CDPStakingPool.sol\":3263:3275  earned(user) */\n      tag_122\n        /* \"StakingPool/CDPStakingPool.sol\":3270:3274  user */\n      dup2\n        /* \"StakingPool/CDPStakingPool.sol\":3263:3269  earned */\n      tag_25\n        /* \"StakingPool/CDPStakingPool.sol\":3263:3275  earned(user) */\n      jump\t// in\n    tag_122:\n      sub(shl(0xa0, 0x01), 0x01)\n        /* \"StakingPool/CDPStakingPool.sol\":3247:3260  rewards[user] */\n      dup3\n      and\n      0x00\n      swap1\n      dup2\n      mstore\n        /* \"StakingPool/CDPStakingPool.sol\":3247:3254  rewards */\n      0x07\n        /* \"StakingPool/CDPStakingPool.sol\":3247:3260  rewards[user] */\n      0x20\n      swap1\n      dup2\n      mstore\n      0x40\n      dup1\n      dup4\n      keccak256\n        /* \"StakingPool/CDPStakingPool.sol\":3247:3275  rewards[user] = earned(user) */\n      swap4\n      swap1\n      swap4\n      sstore\n        /* \"StakingPool/CDPStakingPool.sol\":3361:3381  perTokenRewardStored */\n      sload(0x04)\n        /* \"StakingPool/CDPStakingPool.sol\":3325:3352  perTokenRewardStoredForUser */\n      0x06\n        /* \"StakingPool/CDPStakingPool.sol\":3325:3358  perTokenRewardStoredForUser[user] */\n      swap1\n      swap2\n      mstore\n      swap2\n      swap1\n      keccak256\n        /* \"StakingPool/CDPStakingPool.sol\":3325:3381  perTokenRewardStoredForUser[user] = perTokenRewardStored */\n      sstore\n        /* \"StakingPool/CDPStakingPool.sol\":3176:3392  if (user != address(0)) {... */\n    tag_121:\n        /* \"StakingPool/CDPStakingPool.sol\":3676:3677  0 */\n      0x00\n        /* \"StakingPool/CDPStakingPool.sol\":3667:3673  amount */\n      dup3\n        /* \"StakingPool/CDPStakingPool.sol\":3667:3677  amount > 0 */\n      gt\n        /* \"StakingPool/CDPStakingPool.sol\":3659:3697  require(amount > 0, \"amount need > 0\") */\n      tag_124\n      jumpi\n      mload(0x40)\n      shl(0xe5, 0x461bcd)\n      dup2\n      mstore\n        /* \"#utility.yul\":3120:3122   */\n      0x20\n        /* \"StakingPool/CDPStakingPool.sol\":3659:3697  require(amount > 0, \"amount need > 0\") */\n      0x04\n      dup3\n      add\n        /* \"#utility.yul\":3102:3123   */\n      mstore\n        /* \"#utility.yul\":3159:3161   */\n      0x0f\n        /* \"#utility.yul\":3139:3157   */\n      0x24\n      dup3\n      add\n        /* \"#utility.yul\":3132:3162   */\n      mstore\n      shl(0x8c, 0x0616d6f756e74206e656564203e203)\n        /* \"#utility.yul\":3178:3196   */\n      0x44\n      dup3\n      add\n        /* \"#utility.yul\":3171:3216   */\n      mstore\n        /* \"#utility.yul\":3233:3251   */\n      0x64\n      add\n        /* \"StakingPool/CDPStakingPool.sol\":3659:3697  require(amount > 0, \"amount need > 0\") */\n      tag_96\n        /* \"#utility.yul\":2918:3257   */\n      jump\n        /* \"StakingPool/CDPStakingPool.sol\":3659:3697  require(amount > 0, \"amount need > 0\") */\n    tag_124:\n        /* \"StakingPool/CDPStakingPool.sol\":3728:3730  lp */\n      sload(0x01)\n        /* \"StakingPool/CDPStakingPool.sol\":3728:3767  lp.allowance(msg.sender, address(this)) */\n      mload(0x40)\n      shl(0xe1, 0x6eb1769f)\n      dup2\n      mstore\n        /* \"StakingPool/CDPStakingPool.sol\":3741:3751  msg.sender */\n      caller\n        /* \"StakingPool/CDPStakingPool.sol\":3728:3767  lp.allowance(msg.sender, address(this)) */\n      0x04\n      dup3\n      add\n        /* \"#utility.yul\":3474:3508   */\n      mstore\n        /* \"StakingPool/CDPStakingPool.sol\":3761:3765  this */\n      address\n        /* \"#utility.yul\":3524:3542   */\n      0x24\n      dup3\n      add\n        /* \"#utility.yul\":3517:3560   */\n      mstore\n        /* \"StakingPool/CDPStakingPool.sol\":3707:3725  uint256 allowCount */\n      0x00\n      swap2\n      sub(shl(0xa0, 0x01), 0x01)\n        /* \"StakingPool/CDPStakingPool.sol\":3728:3730  lp */\n      and\n      swap1\n        /* \"StakingPool/CDPStakingPool.sol\":3728:3740  lp.allowance */\n      0xdd62ed3e\n      swap1\n        /* \"#utility.yul\":3409:3427   */\n      0x44\n      add\n        /* \"StakingPool/CDPStakingPool.sol\":3728:3767  lp.allowance(msg.sender, address(this)) */\n      0x20\n      mload(0x40)\n      dup1\n      dup4\n      sub\n      dup2\n      dup7\n      gas\n      staticcall\n      iszero\n      dup1\n      iszero\n      tag_130\n      jumpi\n      returndatasize\n      0x00\n      dup1\n      returndatacopy\n      revert(0x00, returndatasize)\n    tag_130:\n      pop\n      pop\n      pop\n      pop\n      mload(0x40)\n      returndatasize\n      not(0x1f)\n      0x1f\n      dup3\n      add\n      and\n      dup3\n      add\n      dup1\n      0x40\n      mstore\n      pop\n      dup2\n      add\n      swap1\n      tag_131\n      swap2\n      swap1\n      tag_132\n      jump\t// in\n    tag_131:\n        /* \"StakingPool/CDPStakingPool.sol\":3707:3767  uint256 allowCount = lp.allowance(msg.sender, address(this)) */\n      swap1\n      pop\n        /* \"StakingPool/CDPStakingPool.sol\":3799:3805  amount */\n      dup3\n        /* \"StakingPool/CDPStakingPool.sol\":3785:3795  allowCount */\n      dup2\n        /* \"StakingPool/CDPStakingPool.sol\":3785:3805  allowCount >= amount */\n      lt\n      iszero\n        /* \"StakingPool/CDPStakingPool.sol\":3777:3836  require(allowCount >= amount, \"allowance count not enough\") */\n      tag_133\n      jumpi\n      mload(0x40)\n      shl(0xe5, 0x461bcd)\n      dup2\n      mstore\n        /* \"#utility.yul\":3962:3964   */\n      0x20\n        /* \"StakingPool/CDPStakingPool.sol\":3777:3836  require(allowCount >= amount, \"allowance count not enough\") */\n      0x04\n      dup3\n      add\n        /* \"#utility.yul\":3944:3965   */\n      mstore\n        /* \"#utility.yul\":4001:4003   */\n      0x1a\n        /* \"#utility.yul\":3981:3999   */\n      0x24\n      dup3\n      add\n        /* \"#utility.yul\":3974:4004   */\n      mstore\n        /* \"#utility.yul\":4040:4068   */\n      0x616c6c6f77616e636520636f756e74206e6f7420656e6f756768000000000000\n        /* \"#utility.yul\":4020:4038   */\n      0x44\n      dup3\n      add\n        /* \"#utility.yul\":4013:4069   */\n      mstore\n        /* \"#utility.yul\":4086:4104   */\n      0x64\n      add\n        /* \"StakingPool/CDPStakingPool.sol\":3777:3836  require(allowCount >= amount, \"allowance count not enough\") */\n      tag_96\n        /* \"#utility.yul\":3760:4110   */\n      jump\n        /* \"StakingPool/CDPStakingPool.sol\":3777:3836  require(allowCount >= amount, \"allowance count not enough\") */\n    tag_133:\n        /* \"StakingPool/CDPStakingPool.sol\":3863:3869  amount */\n      dup3\n        /* \"StakingPool/CDPStakingPool.sol\":3847:3859  _totalSupply */\n      0x08\n      0x00\n        /* \"StakingPool/CDPStakingPool.sol\":3847:3869  _totalSupply += amount */\n      dup3\n      dup3\n      sload\n      tag_136\n      swap2\n      swap1\n      tag_84\n      jump\t// in\n    tag_136:\n      swap1\n      swap2\n      sstore\n      pop\n      pop\n        /* \"StakingPool/CDPStakingPool.sol\":3889:3899  msg.sender */\n      caller\n        /* \"StakingPool/CDPStakingPool.sol\":3879:3900  _balances[msg.sender] */\n      0x00\n      swap1\n      dup2\n      mstore\n        /* \"StakingPool/CDPStakingPool.sol\":3879:3888  _balances */\n      0x09\n        /* \"StakingPool/CDPStakingPool.sol\":3879:3900  _balances[msg.sender] */\n      0x20\n      mstore\n      0x40\n      dup2\n      keccak256\n        /* \"StakingPool/CDPStakingPool.sol\":3879:3910  _balances[msg.sender] += amount */\n      dup1\n      sload\n        /* \"StakingPool/CDPStakingPool.sol\":3904:3910  amount */\n      dup6\n      swap3\n        /* \"StakingPool/CDPStakingPool.sol\":3879:3900  _balances[msg.sender] */\n      swap1\n        /* \"StakingPool/CDPStakingPool.sol\":3879:3910  _balances[msg.sender] += amount */\n      tag_137\n      swap1\n        /* \"StakingPool/CDPStakingPool.sol\":3904:3910  amount */\n      dup5\n      swap1\n        /* \"StakingPool/CDPStakingPool.sol\":3879:3910  _balances[msg.sender] += amount */\n      tag_84\n      jump\t// in\n    tag_137:\n      swap1\n      swap2\n      sstore\n      pop\n      pop\n        /* \"StakingPool/CDPStakingPool.sol\":3920:3922  lp */\n      sload(0x01)\n        /* \"StakingPool/CDPStakingPool.sol\":3920:3970  lp.transferFrom(msg.sender, address(this), amount) */\n      mload(0x40)\n      shl(0xe0, 0x23b872dd)\n      dup2\n      mstore\n        /* \"StakingPool/CDPStakingPool.sol\":3936:3946  msg.sender */\n      caller\n        /* \"StakingPool/CDPStakingPool.sol\":3920:3970  lp.transferFrom(msg.sender, address(this), amount) */\n      0x04\n      dup3\n      add\n        /* \"#utility.yul\":4355:4389   */\n      mstore\n        /* \"StakingPool/CDPStakingPool.sol\":3956:3960  this */\n      address\n        /* \"#utility.yul\":4405:4423   */\n      0x24\n      dup3\n      add\n        /* \"#utility.yul\":4398:4441   */\n      mstore\n        /* \"#utility.yul\":4457:4475   */\n      0x44\n      dup2\n      add\n        /* \"#utility.yul\":4450:4484   */\n      dup6\n      swap1\n      mstore\n      sub(shl(0xa0, 0x01), 0x01)\n        /* \"StakingPool/CDPStakingPool.sol\":3920:3922  lp */\n      swap1\n      swap2\n      and\n      swap1\n        /* \"StakingPool/CDPStakingPool.sol\":3920:3935  lp.transferFrom */\n      0x23b872dd\n      swap1\n        /* \"#utility.yul\":4290:4308   */\n      0x64\n      add\n        /* \"StakingPool/CDPStakingPool.sol\":3920:3970  lp.transferFrom(msg.sender, address(this), amount) */\n      0x20\n      mload(0x40)\n      dup1\n      dup4\n      sub\n      dup2\n      0x00\n      dup8\n      gas\n      call\n      iszero\n      dup1\n      iszero\n      tag_141\n      jumpi\n      returndatasize\n      0x00\n      dup1\n      returndatacopy\n      revert(0x00, returndatasize)\n    tag_141:\n      pop\n      pop\n      pop\n      pop\n      mload(0x40)\n      returndatasize\n      not(0x1f)\n      0x1f\n      dup3\n      add\n      and\n      dup3\n      add\n      dup1\n      0x40\n      mstore\n      pop\n      dup2\n      add\n      swap1\n      tag_142\n      swap2\n      swap1\n      tag_112\n      jump\t// in\n    tag_142:\n      pop\n        /* \"StakingPool/CDPStakingPool.sol\":3985:4011  Staked(msg.sender, amount) */\n      mload(0x40)\n        /* \"#utility.yul\":451:476   */\n      dup4\n      dup2\n      mstore\n        /* \"StakingPool/CDPStakingPool.sol\":3992:4002  msg.sender */\n      caller\n      swap1\n        /* \"StakingPool/CDPStakingPool.sol\":3985:4011  Staked(msg.sender, amount) */\n      0x9e71bc8eea02a63969f509818f2dafb9254532904319f9dbda79b67bd34a5f3d\n      swap1\n        /* \"#utility.yul\":439:441   */\n      0x20\n        /* \"#utility.yul\":424:442   */\n      add\n        /* \"StakingPool/CDPStakingPool.sol\":3985:4011  Staked(msg.sender, amount) */\n      mload(0x40)\n      dup1\n      swap2\n      sub\n      swap1\n      log2\n        /* \"StakingPool/CDPStakingPool.sol\":3649:4018  {... */\n      pop\n        /* \"StakingPool/CDPStakingPool.sol\":3541:3542  _ */\n      pop\n        /* \"StakingPool/CDPStakingPool.sol\":3575:4018  function stake(uint256 amount) public checkStart updateReward(msg.sender) {... */\n      pop\n      jump\t// out\n        /* \"StakingPool/CDPStakingPool.sol\":4349:4672  function withdrawn(uint256 amount) public checkStart updateReward(msg.sender) {... */\n    tag_73:\n        /* \"StakingPool/CDPStakingPool.sol\":3508:3517  startTime */\n      sload(0x05)\n        /* \"StakingPool/CDPStakingPool.sol\":3490:3505  block.timestamp */\n      timestamp\n        /* \"StakingPool/CDPStakingPool.sol\":3490:3517  block.timestamp > startTime */\n      gt\n        /* \"StakingPool/CDPStakingPool.sol\":3482:3531  require(block.timestamp > startTime, \"not start\") */\n      tag_145\n      jumpi\n      mload(0x40)\n      shl(0xe5, 0x461bcd)\n      dup2\n      mstore\n      0x04\n      add\n      tag_96\n      swap1\n      tag_97\n      jump\t// in\n    tag_145:\n        /* \"StakingPool/CDPStakingPool.sol\":4415:4425  msg.sender */\n      caller\n        /* \"StakingPool/CDPStakingPool.sol\":3072:3094  getNowPerTokenReward() */\n      tag_148\n        /* \"StakingPool/CDPStakingPool.sol\":3072:3092  getNowPerTokenReward */\n      tag_36\n        /* \"StakingPool/CDPStakingPool.sol\":3072:3094  getNowPerTokenReward() */\n      jump\t// in\n    tag_148:\n        /* \"StakingPool/CDPStakingPool.sol\":3049:3069  perTokenRewardStored */\n      0x04\n        /* \"StakingPool/CDPStakingPool.sol\":3049:3094  perTokenRewardStored = getNowPerTokenReward() */\n      sstore\n        /* \"StakingPool/CDPStakingPool.sol\":3151:3166  block.timestamp */\n      timestamp\n        /* \"StakingPool/CDPStakingPool.sol\":3134:3148  lastUpdateTime */\n      0x03\n        /* \"StakingPool/CDPStakingPool.sol\":3134:3166  lastUpdateTime = block.timestamp */\n      sstore\n      sub(shl(0xa0, 0x01), 0x01)\n        /* \"StakingPool/CDPStakingPool.sol\":3180:3198  user != address(0) */\n      dup2\n      and\n      iszero\n        /* \"StakingPool/CDPStakingPool.sol\":3176:3392  if (user != address(0)) {... */\n      tag_149\n      jumpi\n        /* \"StakingPool/CDPStakingPool.sol\":3263:3275  earned(user) */\n      tag_150\n        /* \"StakingPool/CDPStakingPool.sol\":3270:3274  user */\n      dup2\n        /* \"StakingPool/CDPStakingPool.sol\":3263:3269  earned */\n      tag_25\n        /* \"StakingPool/CDPStakingPool.sol\":3263:3275  earned(user) */\n      jump\t// in\n    tag_150:\n      sub(shl(0xa0, 0x01), 0x01)\n        /* \"StakingPool/CDPStakingPool.sol\":3247:3260  rewards[user] */\n      dup3\n      and\n      0x00\n      swap1\n      dup2\n      mstore\n        /* \"StakingPool/CDPStakingPool.sol\":3247:3254  rewards */\n      0x07\n        /* \"StakingPool/CDPStakingPool.sol\":3247:3260  rewards[user] */\n      0x20\n      swap1\n      dup2\n      mstore\n      0x40\n      dup1\n      dup4\n      keccak256\n        /* \"StakingPool/CDPStakingPool.sol\":3247:3275  rewards[user] = earned(user) */\n      swap4\n      swap1\n      swap4\n      sstore\n        /* \"StakingPool/CDPStakingPool.sol\":3361:3381  perTokenRewardStored */\n      sload(0x04)\n        /* \"StakingPool/CDPStakingPool.sol\":3325:3352  perTokenRewardStoredForUser */\n      0x06\n        /* \"StakingPool/CDPStakingPool.sol\":3325:3358  perTokenRewardStoredForUser[user] */\n      swap1\n      swap2\n      mstore\n      swap2\n      swap1\n      keccak256\n        /* \"StakingPool/CDPStakingPool.sol\":3325:3381  perTokenRewardStoredForUser[user] = perTokenRewardStored */\n      sstore\n        /* \"StakingPool/CDPStakingPool.sol\":3176:3392  if (user != address(0)) {... */\n    tag_149:\n        /* \"StakingPool/CDPStakingPool.sol\":4454:4455  0 */\n      0x00\n        /* \"StakingPool/CDPStakingPool.sol\":4445:4451  amount */\n      dup3\n        /* \"StakingPool/CDPStakingPool.sol\":4445:4455  amount > 0 */\n      gt\n        /* \"StakingPool/CDPStakingPool.sol\":4445:4490  amount > 0 && amount <= _balances[msg.sender] */\n      dup1\n      iszero\n      tag_152\n      jumpi\n      pop\n        /* \"StakingPool/CDPStakingPool.sol\":4479:4489  msg.sender */\n      caller\n        /* \"StakingPool/CDPStakingPool.sol\":4469:4490  _balances[msg.sender] */\n      0x00\n      swap1\n      dup2\n      mstore\n        /* \"StakingPool/CDPStakingPool.sol\":4469:4478  _balances */\n      0x09\n        /* \"StakingPool/CDPStakingPool.sol\":4469:4490  _balances[msg.sender] */\n      0x20\n      mstore\n      0x40\n      swap1\n      keccak256\n      sload\n        /* \"StakingPool/CDPStakingPool.sol\":4459:4490  amount <= _balances[msg.sender] */\n      dup3\n      gt\n      iszero\n        /* \"StakingPool/CDPStakingPool.sol\":4445:4490  amount > 0 && amount <= _balances[msg.sender] */\n    tag_152:\n        /* \"StakingPool/CDPStakingPool.sol\":4437:4507  require(amount > 0 && amount <= _balances[msg.sender], \"amount error\") */\n      tag_153\n      jumpi\n      mload(0x40)\n      shl(0xe5, 0x461bcd)\n      dup2\n      mstore\n        /* \"#utility.yul\":4697:4699   */\n      0x20\n        /* \"StakingPool/CDPStakingPool.sol\":4437:4507  require(amount > 0 && amount <= _balances[msg.sender], \"amount error\") */\n      0x04\n      dup3\n      add\n        /* \"#utility.yul\":4679:4700   */\n      mstore\n        /* \"#utility.yul\":4736:4738   */\n      0x0c\n        /* \"#utility.yul\":4716:4734   */\n      0x24\n      dup3\n      add\n        /* \"#utility.yul\":4709:4739   */\n      mstore\n      shl(0xa1, 0x30b6b7bab73a1032b93937b9)\n        /* \"#utility.yul\":4755:4773   */\n      0x44\n      dup3\n      add\n        /* \"#utility.yul\":4748:4790   */\n      mstore\n        /* \"#utility.yul\":4807:4825   */\n      0x64\n      add\n        /* \"StakingPool/CDPStakingPool.sol\":4437:4507  require(amount > 0 && amount <= _balances[msg.sender], \"amount error\") */\n      tag_96\n        /* \"#utility.yul\":4495:4831   */\n      jump\n        /* \"StakingPool/CDPStakingPool.sol\":4437:4507  require(amount > 0 && amount <= _balances[msg.sender], \"amount error\") */\n    tag_153:\n        /* \"StakingPool/CDPStakingPool.sol\":4527:4537  msg.sender */\n      caller\n        /* \"StakingPool/CDPStakingPool.sol\":4517:4538  _balances[msg.sender] */\n      0x00\n      swap1\n      dup2\n      mstore\n        /* \"StakingPool/CDPStakingPool.sol\":4517:4526  _balances */\n      0x09\n        /* \"StakingPool/CDPStakingPool.sol\":4517:4538  _balances[msg.sender] */\n      0x20\n      mstore\n      0x40\n      dup2\n      keccak256\n        /* \"StakingPool/CDPStakingPool.sol\":4517:4548  _balances[msg.sender] -= amount */\n      dup1\n      sload\n        /* \"StakingPool/CDPStakingPool.sol\":4542:4548  amount */\n      dup5\n      swap3\n        /* \"StakingPool/CDPStakingPool.sol\":4517:4538  _balances[msg.sender] */\n      swap1\n        /* \"StakingPool/CDPStakingPool.sol\":4517:4548  _balances[msg.sender] -= amount */\n      tag_156\n      swap1\n        /* \"StakingPool/CDPStakingPool.sol\":4542:4548  amount */\n      dup5\n      swap1\n        /* \"StakingPool/CDPStakingPool.sol\":4517:4548  _balances[msg.sender] -= amount */\n      tag_80\n      jump\t// in\n    tag_156:\n      swap3\n      pop\n      pop\n      dup2\n      swap1\n      sstore\n      pop\n        /* \"StakingPool/CDPStakingPool.sol\":4574:4580  amount */\n      dup2\n        /* \"StakingPool/CDPStakingPool.sol\":4558:4570  _totalSupply */\n      0x08\n      0x00\n        /* \"StakingPool/CDPStakingPool.sol\":4558:4580  _totalSupply -= amount */\n      dup3\n      dup3\n      sload\n      tag_157\n      swap2\n      swap1\n      tag_80\n      jump\t// in\n    tag_157:\n      swap1\n      swap2\n      sstore\n      pop\n      pop\n        /* \"StakingPool/CDPStakingPool.sol\":4590:4592  lp */\n      sload(0x01)\n        /* \"StakingPool/CDPStakingPool.sol\":4590:4621  lp.transfer(msg.sender, amount) */\n      mload(0x40)\n      shl(0xe0, 0xa9059cbb)\n      dup2\n      mstore\n        /* \"StakingPool/CDPStakingPool.sol\":4602:4612  msg.sender */\n      caller\n        /* \"StakingPool/CDPStakingPool.sol\":4590:4621  lp.transfer(msg.sender, amount) */\n      0x04\n      dup3\n      add\n        /* \"#utility.yul\":2531:2582   */\n      mstore\n        /* \"#utility.yul\":2598:2616   */\n      0x24\n      dup2\n      add\n        /* \"#utility.yul\":2591:2625   */\n      dup5\n      swap1\n      mstore\n      sub(shl(0xa0, 0x01), 0x01)\n        /* \"StakingPool/CDPStakingPool.sol\":4590:4592  lp */\n      swap1\n      swap2\n      and\n      swap1\n        /* \"StakingPool/CDPStakingPool.sol\":4590:4601  lp.transfer */\n      0xa9059cbb\n      swap1\n        /* \"#utility.yul\":2504:2522   */\n      0x44\n      add\n        /* \"StakingPool/CDPStakingPool.sol\":4590:4621  lp.transfer(msg.sender, amount) */\n      0x20\n      mload(0x40)\n      dup1\n      dup4\n      sub\n      dup2\n      0x00\n      dup8\n      gas\n      call\n      iszero\n      dup1\n      iszero\n      tag_160\n      jumpi\n      returndatasize\n      0x00\n      dup1\n      returndatacopy\n      revert(0x00, returndatasize)\n    tag_160:\n      pop\n      pop\n      pop\n      pop\n      mload(0x40)\n      returndatasize\n      not(0x1f)\n      0x1f\n      dup3\n      add\n      and\n      dup3\n      add\n      dup1\n      0x40\n      mstore\n      pop\n      dup2\n      add\n      swap1\n      tag_161\n      swap2\n      swap1\n      tag_112\n      jump\t// in\n    tag_161:\n      pop\n        /* \"StakingPool/CDPStakingPool.sol\":4636:4665  Withdrawn(msg.sender, amount) */\n      mload(0x40)\n        /* \"#utility.yul\":451:476   */\n      dup3\n      dup2\n      mstore\n        /* \"StakingPool/CDPStakingPool.sol\":4646:4656  msg.sender */\n      caller\n      swap1\n        /* \"StakingPool/CDPStakingPool.sol\":4636:4665  Withdrawn(msg.sender, amount) */\n      0x7084f5476618d8e60b11ef0d7d3f06914655adb8793e28ff7f018d4c76d505d5\n      swap1\n        /* \"#utility.yul\":439:441   */\n      0x20\n        /* \"#utility.yul\":424:442   */\n      add\n        /* \"StakingPool/CDPStakingPool.sol\":4636:4665  Withdrawn(msg.sender, amount) */\n      tag_113\n        /* \"#utility.yul\":305:482   */\n      jump\n        /* \"#utility.yul\":14:300   */\n    tag_24:\n        /* \"#utility.yul\":73:79   */\n      0x00\n        /* \"#utility.yul\":126:128   */\n      0x20\n        /* \"#utility.yul\":114:123   */\n      dup3\n        /* \"#utility.yul\":105:112   */\n      dup5\n        /* \"#utility.yul\":101:124   */\n      sub\n        /* \"#utility.yul\":97:129   */\n      slt\n        /* \"#utility.yul\":94:146   */\n      iszero\n      tag_166\n      jumpi\n        /* \"#utility.yul\":142:143   */\n      0x00\n        /* \"#utility.yul\":139:140   */\n      dup1\n        /* \"#utility.yul\":132:144   */\n      revert\n        /* \"#utility.yul\":94:146   */\n    tag_166:\n        /* \"#utility.yul\":168:191   */\n      dup2\n      calldataload\n      sub(shl(0xa0, 0x01), 0x01)\n        /* \"#utility.yul\":220:251   */\n      dup2\n      and\n        /* \"#utility.yul\":210:252   */\n      dup2\n      eq\n        /* \"#utility.yul\":200:270   */\n      tag_167\n      jumpi\n        /* \"#utility.yul\":266:267   */\n      0x00\n        /* \"#utility.yul\":263:264   */\n      dup1\n        /* \"#utility.yul\":256:268   */\n      revert\n        /* \"#utility.yul\":200:270   */\n    tag_167:\n        /* \"#utility.yul\":289:294   */\n      swap4\n        /* \"#utility.yul\":14:300   */\n      swap3\n      pop\n      pop\n      pop\n      jump\t// out\n        /* \"#utility.yul\":708:888   */\n    tag_62:\n        /* \"#utility.yul\":767:773   */\n      0x00\n        /* \"#utility.yul\":820:822   */\n      0x20\n        /* \"#utility.yul\":808:817   */\n      dup3\n        /* \"#utility.yul\":799:806   */\n      dup5\n        /* \"#utility.yul\":795:818   */\n      sub\n        /* \"#utility.yul\":791:823   */\n      slt\n        /* \"#utility.yul\":788:840   */\n      iszero\n      tag_171\n      jumpi\n        /* \"#utility.yul\":836:837   */\n      0x00\n        /* \"#utility.yul\":833:834   */\n      dup1\n        /* \"#utility.yul\":826:838   */\n      revert\n        /* \"#utility.yul\":788:840   */\n    tag_171:\n      pop\n        /* \"#utility.yul\":859:882   */\n      calldataload\n      swap2\n        /* \"#utility.yul\":708:888   */\n      swap1\n      pop\n      jump\t// out\n        /* \"#utility.yul\":893:1020   */\n    tag_163:\n        /* \"#utility.yul\":954:964   */\n      0x4e487b71\n        /* \"#utility.yul\":949:952   */\n      0xe0\n        /* \"#utility.yul\":945:965   */\n      shl\n        /* \"#utility.yul\":942:943   */\n      0x00\n        /* \"#utility.yul\":935:966   */\n      mstore\n        /* \"#utility.yul\":985:989   */\n      0x11\n        /* \"#utility.yul\":982:983   */\n      0x04\n        /* \"#utility.yul\":975:990   */\n      mstore\n        /* \"#utility.yul\":1009:1013   */\n      0x24\n        /* \"#utility.yul\":1006:1007   */\n      0x00\n        /* \"#utility.yul\":999:1014   */\n      revert\n        /* \"#utility.yul\":1025:1153   */\n    tag_80:\n        /* \"#utility.yul\":1092:1101   */\n      dup2\n      dup2\n      sub\n        /* \"#utility.yul\":1113:1124   */\n      dup2\n      dup2\n      gt\n        /* \"#utility.yul\":1110:1147   */\n      iszero\n      tag_175\n      jumpi\n        /* \"#utility.yul\":1127:1145   */\n      tag_175\n      tag_163\n      jump\t// in\n    tag_175:\n        /* \"#utility.yul\":1025:1153   */\n      swap3\n      swap2\n      pop\n      pop\n      jump\t// out\n        /* \"#utility.yul\":1158:1326   */\n    tag_82:\n        /* \"#utility.yul\":1231:1240   */\n      dup1\n      dup3\n      mul\n        /* \"#utility.yul\":1262:1271   */\n      dup2\n      iszero\n        /* \"#utility.yul\":1279:1294   */\n      dup3\n      dup3\n      div\n        /* \"#utility.yul\":1273:1295   */\n      dup5\n      eq\n        /* \"#utility.yul\":1259:1296   */\n      or\n        /* \"#utility.yul\":1249:1320   */\n      tag_175\n      jumpi\n        /* \"#utility.yul\":1300:1318   */\n      tag_175\n      tag_163\n      jump\t// in\n        /* \"#utility.yul\":1331:1456   */\n    tag_84:\n        /* \"#utility.yul\":1396:1405   */\n      dup1\n      dup3\n      add\n        /* \"#utility.yul\":1417:1427   */\n      dup1\n      dup3\n      gt\n        /* \"#utility.yul\":1414:1450   */\n      iszero\n      tag_175\n      jumpi\n        /* \"#utility.yul\":1430:1448   */\n      tag_175\n      tag_163\n      jump\t// in\n        /* \"#utility.yul\":1461:1678   */\n    tag_92:\n        /* \"#utility.yul\":1501:1502   */\n      0x00\n        /* \"#utility.yul\":1527:1528   */\n      dup3\n        /* \"#utility.yul\":1517:1649   */\n      tag_183\n      jumpi\n        /* \"#utility.yul\":1571:1581   */\n      0x4e487b71\n        /* \"#utility.yul\":1566:1569   */\n      0xe0\n        /* \"#utility.yul\":1562:1582   */\n      shl\n        /* \"#utility.yul\":1559:1560   */\n      0x00\n        /* \"#utility.yul\":1552:1583   */\n      mstore\n        /* \"#utility.yul\":1606:1610   */\n      0x12\n        /* \"#utility.yul\":1603:1604   */\n      0x04\n        /* \"#utility.yul\":1596:1611   */\n      mstore\n        /* \"#utility.yul\":1634:1638   */\n      0x24\n        /* \"#utility.yul\":1631:1632   */\n      0x00\n        /* \"#utility.yul\":1624:1639   */\n      revert\n        /* \"#utility.yul\":1517:1649   */\n    tag_183:\n      pop\n        /* \"#utility.yul\":1663:1672   */\n      div\n      swap1\n        /* \"#utility.yul\":1461:1678   */\n      jump\t// out\n        /* \"#utility.yul\":1683:2015   */\n    tag_97:\n        /* \"#utility.yul\":1885:1887   */\n      0x20\n        /* \"#utility.yul\":1867:1888   */\n      dup1\n      dup3\n      mstore\n        /* \"#utility.yul\":1924:1925   */\n      0x09\n        /* \"#utility.yul\":1904:1922   */\n      swap1\n      dup3\n      add\n        /* \"#utility.yul\":1897:1926   */\n      mstore\n      shl(0xba, 0x1b9bdd081cdd185c9d)\n        /* \"#utility.yul\":1957:1959   */\n      0x40\n        /* \"#utility.yul\":1942:1960   */\n      dup3\n      add\n        /* \"#utility.yul\":1935:1974   */\n      mstore\n        /* \"#utility.yul\":2006:2008   */\n      0x60\n        /* \"#utility.yul\":1991:2009   */\n      add\n      swap1\n        /* \"#utility.yul\":1683:2015   */\n      jump\t// out\n        /* \"#utility.yul\":2636:2913   */\n    tag_112:\n        /* \"#utility.yul\":2703:2709   */\n      0x00\n        /* \"#utility.yul\":2756:2758   */\n      0x20\n        /* \"#utility.yul\":2744:2753   */\n      dup3\n        /* \"#utility.yul\":2735:2742   */\n      dup5\n        /* \"#utility.yul\":2731:2754   */\n      sub\n        /* \"#utility.yul\":2727:2759   */\n      slt\n        /* \"#utility.yul\":2724:2776   */\n      iszero\n      tag_188\n      jumpi\n        /* \"#utility.yul\":2772:2773   */\n      0x00\n        /* \"#utility.yul\":2769:2770   */\n      dup1\n        /* \"#utility.yul\":2762:2774   */\n      revert\n        /* \"#utility.yul\":2724:2776   */\n    tag_188:\n        /* \"#utility.yul\":2804:2813   */\n      dup2\n        /* \"#utility.yul\":2798:2814   */\n      mload\n        /* \"#utility.yul\":2857:2862   */\n      dup1\n        /* \"#utility.yul\":2850:2863   */\n      iszero\n        /* \"#utility.yul\":2843:2864   */\n      iszero\n        /* \"#utility.yul\":2836:2841   */\n      dup2\n        /* \"#utility.yul\":2833:2865   */\n      eq\n        /* \"#utility.yul\":2823:2883   */\n      tag_167\n      jumpi\n        /* \"#utility.yul\":2879:2880   */\n      0x00\n        /* \"#utility.yul\":2876:2877   */\n      dup1\n        /* \"#utility.yul\":2869:2881   */\n      revert\n        /* \"#utility.yul\":3571:3755   */\n    tag_132:\n        /* \"#utility.yul\":3641:3647   */\n      0x00\n        /* \"#utility.yul\":3694:3696   */\n      0x20\n        /* \"#utility.yul\":3682:3691   */\n      dup3\n        /* \"#utility.yul\":3673:3680   */\n      dup5\n        /* \"#utility.yul\":3669:3692   */\n      sub\n        /* \"#utility.yul\":3665:3697   */\n      slt\n        /* \"#utility.yul\":3662:3714   */\n      iszero\n      tag_193\n      jumpi\n        /* \"#utility.yul\":3710:3711   */\n      0x00\n        /* \"#utility.yul\":3707:3708   */\n      dup1\n        /* \"#utility.yul\":3700:3712   */\n      revert\n        /* \"#utility.yul\":3662:3714   */\n    tag_193:\n      pop\n        /* \"#utility.yul\":3733:3749   */\n      mload\n      swap2\n        /* \"#utility.yul\":3571:3755   */\n      swap1\n      pop\n      jump\t// out\n\n    auxdata: 0xa2646970667358221220c2cf3d913d3ed7ff10410c0c8c1705e12f2d1ef915ba6a9b382852a4525d477d64736f6c63430008130033\n}\n",
				"bytecode": {
					"linkReferences": {},
					"object": "6080604052670de0b6b3a764000060025534801561001c57600080fd5b50604051610ada380380610ada83398101604081905261003b9161008c565b600180546001600160a01b039384166001600160a01b03199182161790915560008054929093169116179055426005556100bf565b80516001600160a01b038116811461008757600080fd5b919050565b6000806040838503121561009f57600080fd5b6100a883610070565b91506100b660208401610070565b90509250929050565b610a0c806100ce6000396000f3fe608060405234801561001057600080fd5b50600436106100ff5760003560e01c80637b0a47ee11610097578063a83526a311610066578063a83526a3146101ec578063c8f33c911461020c578063e6b43d0114610215578063fc0c546a1461022857600080fd5b80637b0a47ee146101c15780638319d26a146101ca5780639b819d38146101d3578063a694fc3a146101d957600080fd5b8063313c06a0116100d3578063313c06a01461015a5780633d18b9121461018557806370a082311461018f57806378e97925146101b857600080fd5b80628cc262146101045780630700037d1461012a57806318160ddd1461014a5780631b58638d14610152575b600080fd5b6101176101123660046108b4565b61023b565b6040519081526020015b60405180910390f35b6101176101383660046108b4565b60076020526000908152604090205481565b600854610117565b6101176102ac565b60015461016d906001600160a01b031681565b6040516001600160a01b039091168152602001610121565b61018d61030b565b005b61011761019d3660046108b4565b6001600160a01b031660009081526009602052604090205490565b61011760055481565b61011760025481565b61011760045481565b42610117565b61018d6101e73660046108e4565b610493565b6101176101fa3660046108b4565b60066020526000908152604090205481565b61011760035481565b61018d6102233660046108e4565b610700565b60005461016d906001600160a01b031681565b6001600160a01b038116600090815260096020908152604080832054600690925282205482906102696102ac565b6102739190610913565b61027d908361092c565b6001600160a01b0385166000908152600760205260409020549091506102a38183610943565b95945050505050565b60006008546000036102bf575060045490565b60006003546102cb4290565b6102d59190610913565b90506000600854600254836102ea919061092c565b6102f49190610956565b9050806004546103049190610943565b9250505090565b60055442116103355760405162461bcd60e51b815260040161032c90610978565b60405180910390fd5b3361033e6102ac565b600455426003556001600160a01b038116156103895761035d8161023b565b6001600160a01b0382166000908152600760209081526040808320939093556004546006909152919020555b60006103943361023b565b9050600081116103d25760405162461bcd60e51b81526020600482015260096024820152681b9bc81c995dd85c9960ba1b604482015260640161032c565b336000818152600760205260408082208290559054905163a9059cbb60e01b81526004810192909252602482018390526001600160a01b03169063a9059cbb906044016020604051808303816000875af1158015610434573d6000803e3d6000fd5b505050506040513d601f19601f82011682018060405250810190610458919061099b565b5060405181815233907f25c30c62c42b51e4f667b70ef60f1f683c376f6ace28312ed45a40665e01af37906020015b60405180910390a25050565b60055442116104b45760405162461bcd60e51b815260040161032c90610978565b336104bd6102ac565b600455426003556001600160a01b03811615610508576104dc8161023b565b6001600160a01b0382166000908152600760209081526040808320939093556004546006909152919020555b6000821161054a5760405162461bcd60e51b815260206004820152600f60248201526e0616d6f756e74206e656564203e203608c1b604482015260640161032c565b600154604051636eb1769f60e11b81523360048201523060248201526000916001600160a01b03169063dd62ed3e90604401602060405180830381865afa158015610599573d6000803e3d6000fd5b505050506040513d601f19601f820116820180604052508101906105bd91906109bd565b90508281101561060f5760405162461bcd60e51b815260206004820152601a60248201527f616c6c6f77616e636520636f756e74206e6f7420656e6f756768000000000000604482015260640161032c565b82600860008282546106219190610943565b90915550503360009081526009602052604081208054859290610645908490610943565b90915550506001546040516323b872dd60e01b8152336004820152306024820152604481018590526001600160a01b03909116906323b872dd906064016020604051808303816000875af11580156106a1573d6000803e3d6000fd5b505050506040513d601f19601f820116820180604052508101906106c5919061099b565b5060405183815233907f9e71bc8eea02a63969f509818f2dafb9254532904319f9dbda79b67bd34a5f3d9060200160405180910390a2505050565b60055442116107215760405162461bcd60e51b815260040161032c90610978565b3361072a6102ac565b600455426003556001600160a01b03811615610775576107498161023b565b6001600160a01b0382166000908152600760209081526040808320939093556004546006909152919020555b6000821180156107945750336000908152600960205260409020548211155b6107cf5760405162461bcd60e51b815260206004820152600c60248201526b30b6b7bab73a1032b93937b960a11b604482015260640161032c565b33600090815260096020526040812080548492906107ee908490610913565b9250508190555081600860008282546108079190610913565b909155505060015460405163a9059cbb60e01b8152336004820152602481018490526001600160a01b039091169063a9059cbb906044016020604051808303816000875af115801561085d573d6000803e3d6000fd5b505050506040513d601f19601f82011682018060405250810190610881919061099b565b5060405182815233907f7084f5476618d8e60b11ef0d7d3f06914655adb8793e28ff7f018d4c76d505d590602001610487565b6000602082840312156108c657600080fd5b81356001600160a01b03811681146108dd57600080fd5b9392505050565b6000602082840312156108f657600080fd5b5035919050565b634e487b7160e01b600052601160045260246000fd5b81810381811115610926576109266108fd565b92915050565b8082028115828204841417610926576109266108fd565b80820180821115610926576109266108fd565b60008261097357634e487b7160e01b600052601260045260246000fd5b500490565b6020808252600990820152681b9bdd081cdd185c9d60ba1b604082015260600190565b6000602082840312156109ad57600080fd5b815180151581146108dd57600080fd5b6000602082840312156109cf57600080fd5b505191905056fea2646970667358221220c2cf3d913d3ed7ff10410c0c8c1705e12f2d1ef915ba6a9b382852a4525d477d64736f6c63430008130033",
					"opcodes": "PUSH1 0x80 PUSH1 0x40 MSTORE PUSH8 0xDE0B6B3A7640000 PUSH1 0x2 SSTORE CALLVALUE DUP1 ISZERO PUSH2 0x1C JUMPI PUSH1 0x0 DUP1 REVERT JUMPDEST POP PUSH1 0x40 MLOAD PUSH2 0xADA CODESIZE SUB DUP1 PUSH2 0xADA DUP4 CODECOPY DUP2 ADD PUSH1 0x40 DUP2 SWAP1 MSTORE PUSH2 0x3B SWAP2 PUSH2 0x8C JUMP JUMPDEST PUSH1 0x1 DUP1 SLOAD PUSH1 0x1 PUSH1 0x1 PUSH1 0xA0 SHL SUB SWAP4 DUP5 AND PUSH1 0x1 PUSH1 0x1 PUSH1 0xA0 SHL SUB NOT SWAP2 DUP3 AND OR SWAP1 SWAP2 SSTORE PUSH1 0x0 DUP1 SLOAD SWAP3 SWAP1 SWAP4 AND SWAP2 AND OR SWAP1 SSTORE TIMESTAMP PUSH1 0x5 SSTORE PUSH2 0xBF JUMP JUMPDEST DUP1 MLOAD PUSH1 0x1 PUSH1 0x1 PUSH1 0xA0 SHL SUB DUP2 AND DUP2 EQ PUSH2 0x87 JUMPI PUSH1 0x0 DUP1 REVERT JUMPDEST SWAP2 SWAP1 POP JUMP JUMPDEST PUSH1 0x0 DUP1 PUSH1 0x40 DUP4 DUP6 SUB SLT ISZERO PUSH2 0x9F JUMPI PUSH1 0x0 DUP1 REVERT JUMPDEST PUSH2 0xA8 DUP4 PUSH2 0x70 JUMP JUMPDEST SWAP2 POP PUSH2 0xB6 PUSH1 0x20 DUP5 ADD PUSH2 0x70 JUMP JUMPDEST SWAP1 POP SWAP3 POP SWAP3 SWAP1 POP JUMP JUMPDEST PUSH2 0xA0C DUP1 PUSH2 0xCE PUSH1 0x0 CODECOPY PUSH1 0x0 RETURN INVALID PUSH1 0x80 PUSH1 0x40 MSTORE CALLVALUE DUP1 ISZERO PUSH2 0x10 JUMPI PUSH1 0x0 DUP1 REVERT JUMPDEST POP PUSH1 0x4 CALLDATASIZE LT PUSH2 0xFF JUMPI PUSH1 0x0 CALLDATALOAD PUSH1 0xE0 SHR DUP1 PUSH4 0x7B0A47EE GT PUSH2 0x97 JUMPI DUP1 PUSH4 0xA83526A3 GT PUSH2 0x66 JUMPI DUP1 PUSH4 0xA83526A3 EQ PUSH2 0x1EC JUMPI DUP1 PUSH4 0xC8F33C91 EQ PUSH2 0x20C JUMPI DUP1 PUSH4 0xE6B43D01 EQ PUSH2 0x215 JUMPI DUP1 PUSH4 0xFC0C546A EQ PUSH2 0x228 JUMPI PUSH1 0x0 DUP1 REVERT JUMPDEST DUP1 PUSH4 0x7B0A47EE EQ PUSH2 0x1C1 JUMPI DUP1 PUSH4 0x8319D26A EQ PUSH2 0x1CA JUMPI DUP1 PUSH4 0x9B819D38 EQ PUSH2 0x1D3 JUMPI DUP1 PUSH4 0xA694FC3A EQ PUSH2 0x1D9 JUMPI PUSH1 0x0 DUP1 REVERT JUMPDEST DUP1 PUSH4 0x313C06A0 GT PUSH2 0xD3 JUMPI DUP1 PUSH4 0x313C06A0 EQ PUSH2 0x15A JUMPI DUP1 PUSH4 0x3D18B912 EQ PUSH2 0x185 JUMPI DUP1 PUSH4 0x70A08231 EQ PUSH2 0x18F JUMPI DUP1 PUSH4 0x78E97925 EQ PUSH2 0x1B8 JUMPI PUSH1 0x0 DUP1 REVERT JUMPDEST DUP1 PUSH3 0x8CC262 EQ PUSH2 0x104 JUMPI DUP1 PUSH4 0x700037D EQ PUSH2 0x12A JUMPI DUP1 PUSH4 0x18160DDD EQ PUSH2 0x14A JUMPI DUP1 PUSH4 0x1B58638D EQ PUSH2 0x152 JUMPI JUMPDEST PUSH1 0x0 DUP1 REVERT JUMPDEST PUSH2 0x117 PUSH2 0x112 CALLDATASIZE PUSH1 0x4 PUSH2 0x8B4 JUMP JUMPDEST PUSH2 0x23B JUMP JUMPDEST PUSH1 0x40 MLOAD SWAP1 DUP2 MSTORE PUSH1 0x20 ADD JUMPDEST PUSH1 0x40 MLOAD DUP1 SWAP2 SUB SWAP1 RETURN JUMPDEST PUSH2 0x117 PUSH2 0x138 CALLDATASIZE PUSH1 0x4 PUSH2 0x8B4 JUMP JUMPDEST PUSH1 0x7 PUSH1 0x20 MSTORE PUSH1 0x0 SWAP1 DUP2 MSTORE PUSH1 0x40 SWAP1 KECCAK256 SLOAD DUP2 JUMP JUMPDEST PUSH1 0x8 SLOAD PUSH2 0x117 JUMP JUMPDEST PUSH2 0x117 PUSH2 0x2AC JUMP JUMPDEST PUSH1 0x1 SLOAD PUSH2 0x16D SWAP1 PUSH1 0x1 PUSH1 0x1 PUSH1 0xA0 SHL SUB AND DUP2 JUMP JUMPDEST PUSH1 0x40 MLOAD PUSH1 0x1 PUSH1 0x1 PUSH1 0xA0 SHL SUB SWAP1 SWAP2 AND DUP2 MSTORE PUSH1 0x20 ADD PUSH2 0x121 JUMP JUMPDEST PUSH2 0x18D PUSH2 0x30B JUMP JUMPDEST STOP JUMPDEST PUSH2 0x117 PUSH2 0x19D CALLDATASIZE PUSH1 0x4 PUSH2 0x8B4 JUMP JUMPDEST PUSH1 0x1 PUSH1 0x1 PUSH1 0xA0 SHL SUB AND PUSH1 0x0 SWAP1 DUP2 MSTORE PUSH1 0x9 PUSH1 0x20 MSTORE PUSH1 0x40 SWAP1 KECCAK256 SLOAD SWAP1 JUMP JUMPDEST PUSH2 0x117 PUSH1 0x5 SLOAD DUP2 JUMP JUMPDEST PUSH2 0x117 PUSH1 0x2 SLOAD DUP2 JUMP JUMPDEST PUSH2 0x117 PUSH1 0x4 SLOAD DUP2 JUMP JUMPDEST TIMESTAMP PUSH2 0x117 JUMP JUMPDEST PUSH2 0x18D PUSH2 0x1E7 CALLDATASIZE PUSH1 0x4 PUSH2 0x8E4 JUMP JUMPDEST PUSH2 0x493 JUMP JUMPDEST PUSH2 0x117 PUSH2 0x1FA CALLDATASIZE PUSH1 0x4 PUSH2 0x8B4 JUMP JUMPDEST PUSH1 0x6 PUSH1 0x20 MSTORE PUSH1 0x0 SWAP1 DUP2 MSTORE PUSH1 0x40 SWAP1 KECCAK256 SLOAD DUP2 JUMP JUMPDEST PUSH2 0x117 PUSH1 0x3 SLOAD DUP2 JUMP JUMPDEST PUSH2 0x18D PUSH2 0x223 CALLDATASIZE PUSH1 0x4 PUSH2 0x8E4 JUMP JUMPDEST PUSH2 0x700 JUMP JUMPDEST PUSH1 0x0 SLOAD PUSH2 0x16D SWAP1 PUSH1 0x1 PUSH1 0x1 PUSH1 0xA0 SHL SUB AND DUP2 JUMP JUMPDEST PUSH1 0x1 PUSH1 0x1 PUSH1 0xA0 SHL SUB DUP2 AND PUSH1 0x0 SWAP1 DUP2 MSTORE PUSH1 0x9 PUSH1 0x20 SWAP1 DUP2 MSTORE PUSH1 0x40 DUP1 DUP4 KECCAK256 SLOAD PUSH1 0x6 SWAP1 SWAP3 MSTORE DUP3 KECCAK256 SLOAD DUP3 SWAP1 PUSH2 0x269 PUSH2 0x2AC JUMP JUMPDEST PUSH2 0x273 SWAP2 SWAP1 PUSH2 0x913 JUMP JUMPDEST PUSH2 0x27D SWAP1 DUP4 PUSH2 0x92C JUMP JUMPDEST PUSH1 0x1 PUSH1 0x1 PUSH1 0xA0 SHL SUB DUP6 AND PUSH1 0x0 SWAP1 DUP2 MSTORE PUSH1 0x7 PUSH1 0x20 MSTORE PUSH1 0x40 SWAP1 KECCAK256 SLOAD SWAP1 SWAP2 POP PUSH2 0x2A3 DUP2 DUP4 PUSH2 0x943 JUMP JUMPDEST SWAP6 SWAP5 POP POP POP POP POP JUMP JUMPDEST PUSH1 0x0 PUSH1 0x8 SLOAD PUSH1 0x0 SUB PUSH2 0x2BF JUMPI POP PUSH1 0x4 SLOAD SWAP1 JUMP JUMPDEST PUSH1 0x0 PUSH1 0x3 SLOAD PUSH2 0x2CB TIMESTAMP SWAP1 JUMP JUMPDEST PUSH2 0x2D5 SWAP2 SWAP1 PUSH2 0x913 JUMP JUMPDEST SWAP1 POP PUSH1 0x0 PUSH1 0x8 SLOAD PUSH1 0x2 SLOAD DUP4 PUSH2 0x2EA SWAP2 SWAP1 PUSH2 0x92C JUMP JUMPDEST PUSH2 0x2F4 SWAP2 SWAP1 PUSH2 0x956 JUMP JUMPDEST SWAP1 POP DUP1 PUSH1 0x4 SLOAD PUSH2 0x304 SWAP2 SWAP1 PUSH2 0x943 JUMP JUMPDEST SWAP3 POP POP POP SWAP1 JUMP JUMPDEST PUSH1 0x5 SLOAD TIMESTAMP GT PUSH2 0x335 JUMPI PUSH1 0x40 MLOAD PUSH3 0x461BCD PUSH1 0xE5 SHL DUP2 MSTORE PUSH1 0x4 ADD PUSH2 0x32C SWAP1 PUSH2 0x978 JUMP JUMPDEST PUSH1 0x40 MLOAD DUP1 SWAP2 SUB SWAP1 REVERT JUMPDEST CALLER PUSH2 0x33E PUSH2 0x2AC JUMP JUMPDEST PUSH1 0x4 SSTORE TIMESTAMP PUSH1 0x3 SSTORE PUSH1 0x1 PUSH1 0x1 PUSH1 0xA0 SHL SUB DUP2 AND ISZERO PUSH2 0x389 JUMPI PUSH2 0x35D DUP2 PUSH2 0x23B JUMP JUMPDEST PUSH1 0x1 PUSH1 0x1 PUSH1 0xA0 SHL SUB DUP3 AND PUSH1 0x0 SWAP1 DUP2 MSTORE PUSH1 0x7 PUSH1 0x20 SWAP1 DUP2 MSTORE PUSH1 0x40 DUP1 DUP4 KECCAK256 SWAP4 SWAP1 SWAP4 SSTORE PUSH1 0x4 SLOAD PUSH1 0x6 SWAP1 SWAP2 MSTORE SWAP2 SWAP1 KECCAK256 SSTORE JUMPDEST PUSH1 0x0 PUSH2 0x394 CALLER PUSH2 0x23B JUMP JUMPDEST SWAP1 POP PUSH1 0x0 DUP2 GT PUSH2 0x3D2 JUMPI PUSH1 0x40 MLOAD PUSH3 0x461BCD PUSH1 0xE5 SHL DUP2 MSTORE PUSH1 0x20 PUSH1 0x4 DUP3 ADD MSTORE PUSH1 0x9 PUSH1 0x24 DUP3 ADD MSTORE PUSH9 0x1B9BC81C995DD85C99 PUSH1 0xBA SHL PUSH1 0x44 DUP3 ADD MSTORE PUSH1 0x64 ADD PUSH2 0x32C JUMP JUMPDEST CALLER PUSH1 0x0 DUP2 DUP2 MSTORE PUSH1 0x7 PUSH1 0x20 MSTORE PUSH1 0x40 DUP1 DUP3 KECCAK256 DUP3 SWAP1 SSTORE SWAP1 SLOAD SWAP1 MLOAD PUSH4 0xA9059CBB PUSH1 0xE0 SHL DUP2 MSTORE PUSH1 0x4 DUP2 ADD SWAP3 SWAP1 SWAP3 MSTORE PUSH1 0x24 DUP3 ADD DUP4 SWAP1 MSTORE PUSH1 0x1 PUSH1 0x1 PUSH1 0xA0 SHL SUB AND SWAP1 PUSH4 0xA9059CBB SWAP1 PUSH1 0x44 ADD PUSH1 0x20 PUSH1 0x40 MLOAD DUP1 DUP4 SUB DUP2 PUSH1 0x0 DUP8 GAS CALL ISZERO DUP1 ISZERO PUSH2 0x434 JUMPI RETURNDATASIZE PUSH1 0x0 DUP1 RETURNDATACOPY RETURNDATASIZE PUSH1 0x0 REVERT JUMPDEST POP POP POP POP PUSH1 0x40 MLOAD RETURNDATASIZE PUSH1 0x1F NOT PUSH1 0x1F DUP3 ADD AND DUP3 ADD DUP1 PUSH1 0x40 MSTORE POP DUP2 ADD SWAP1 PUSH2 0x458 SWAP2 SWAP1 PUSH2 0x99B JUMP JUMPDEST POP PUSH1 0x40 MLOAD DUP2 DUP2 MSTORE CALLER SWAP1 PUSH32 0x25C30C62C42B51E4F667B70EF60F1F683C376F6ACE28312ED45A40665E01AF37 SWAP1 PUSH1 0x20 ADD JUMPDEST PUSH1 0x40 MLOAD DUP1 SWAP2 SUB SWAP1 LOG2 POP POP JUMP JUMPDEST PUSH1 0x5 SLOAD TIMESTAMP GT PUSH2 0x4B4 JUMPI PUSH1 0x40 MLOAD PUSH3 0x461BCD PUSH1 0xE5 SHL DUP2 MSTORE PUSH1 0x4 ADD PUSH2 0x32C SWAP1 PUSH2 0x978 JUMP JUMPDEST CALLER PUSH2 0x4BD PUSH2 0x2AC JUMP JUMPDEST PUSH1 0x4 SSTORE TIMESTAMP PUSH1 0x3 SSTORE PUSH1 0x1 PUSH1 0x1 PUSH1 0xA0 SHL SUB DUP2 AND ISZERO PUSH2 0x508 JUMPI PUSH2 0x4DC DUP2 PUSH2 0x23B JUMP JUMPDEST PUSH1 0x1 PUSH1 0x1 PUSH1 0xA0 SHL SUB DUP3 AND PUSH1 0x0 SWAP1 DUP2 MSTORE PUSH1 0x7 PUSH1 0x20 SWAP1 DUP2 MSTORE PUSH1 0x40 DUP1 DUP4 KECCAK256 SWAP4 SWAP1 SWAP4 SSTORE PUSH1 0x4 SLOAD PUSH1 0x6 SWAP1 SWAP2 MSTORE SWAP2 SWAP1 KECCAK256 SSTORE JUMPDEST PUSH1 0x0 DUP3 GT PUSH2 0x54A JUMPI PUSH1 0x40 MLOAD PUSH3 0x461BCD PUSH1 0xE5 SHL DUP2 MSTORE PUSH1 0x20 PUSH1 0x4 DUP3 ADD MSTORE PUSH1 0xF PUSH1 0x24 DUP3 ADD MSTORE PUSH15 0x616D6F756E74206E656564203E203 PUSH1 0x8C SHL PUSH1 0x44 DUP3 ADD MSTORE PUSH1 0x64 ADD PUSH2 0x32C JUMP JUMPDEST PUSH1 0x1 SLOAD PUSH1 0x40 MLOAD PUSH4 0x6EB1769F PUSH1 0xE1 SHL DUP2 MSTORE CALLER PUSH1 0x4 DUP3 ADD MSTORE ADDRESS PUSH1 0x24 DUP3 ADD MSTORE PUSH1 0x0 SWAP2 PUSH1 0x1 PUSH1 0x1 PUSH1 0xA0 SHL SUB AND SWAP1 PUSH4 0xDD62ED3E SWAP1 PUSH1 0x44 ADD PUSH1 0x20 PUSH1 0x40 MLOAD DUP1 DUP4 SUB DUP2 DUP7 GAS STATICCALL ISZERO DUP1 ISZERO PUSH2 0x599 JUMPI RETURNDATASIZE PUSH1 0x0 DUP1 RETURNDATACOPY RETURNDATASIZE PUSH1 0x0 REVERT JUMPDEST POP POP POP POP PUSH1 0x40 MLOAD RETURNDATASIZE PUSH1 0x1F NOT PUSH1 0x1F DUP3 ADD AND DUP3 ADD DUP1 PUSH1 0x40 MSTORE POP DUP2 ADD SWAP1 PUSH2 0x5BD SWAP2 SWAP1 PUSH2 0x9BD JUMP JUMPDEST SWAP1 POP DUP3 DUP2 LT ISZERO PUSH2 0x60F JUMPI PUSH1 0x40 MLOAD PUSH3 0x461BCD PUSH1 0xE5 SHL DUP2 MSTORE PUSH1 0x20 PUSH1 0x4 DUP3 ADD MSTORE PUSH1 0x1A PUSH1 0x24 DUP3 ADD MSTORE PUSH32 0x616C6C6F77616E636520636F756E74206E6F7420656E6F756768000000000000 PUSH1 0x44 DUP3 ADD MSTORE PUSH1 0x64 ADD PUSH2 0x32C JUMP JUMPDEST DUP3 PUSH1 0x8 PUSH1 0x0 DUP3 DUP3 SLOAD PUSH2 0x621 SWAP2 SWAP1 PUSH2 0x943 JUMP JUMPDEST SWAP1 SWAP2 SSTORE POP POP CALLER PUSH1 0x0 SWAP1 DUP2 MSTORE PUSH1 0x9 PUSH1 0x20 MSTORE PUSH1 0x40 DUP2 KECCAK256 DUP1 SLOAD DUP6 SWAP3 SWAP1 PUSH2 0x645 SWAP1 DUP5 SWAP1 PUSH2 0x943 JUMP JUMPDEST SWAP1 SWAP2 SSTORE POP POP PUSH1 0x1 SLOAD PUSH1 0x40 MLOAD PUSH4 0x23B872DD PUSH1 0xE0 SHL DUP2 MSTORE CALLER PUSH1 0x4 DUP3 ADD MSTORE ADDRESS PUSH1 0x24 DUP3 ADD MSTORE PUSH1 0x44 DUP2 ADD DUP6 SWAP1 MSTORE PUSH1 0x1 PUSH1 0x1 PUSH1 0xA0 SHL SUB SWAP1 SWAP2 AND SWAP1 PUSH4 0x23B872DD SWAP1 PUSH1 0x64 ADD PUSH1 0x20 PUSH1 0x40 MLOAD DUP1 DUP4 SUB DUP2 PUSH1 0x0 DUP8 GAS CALL ISZERO DUP1 ISZERO PUSH2 0x6A1 JUMPI RETURNDATASIZE PUSH1 0x0 DUP1 RETURNDATACOPY RETURNDATASIZE PUSH1 0x0 REVERT JUMPDEST POP POP POP POP PUSH1 0x40 MLOAD RETURNDATASIZE PUSH1 0x1F NOT PUSH1 0x1F DUP3 ADD AND DUP3 ADD DUP1 PUSH1 0x40 MSTORE POP DUP2 ADD SWAP1 PUSH2 0x6C5 SWAP2 SWAP1 PUSH2 0x99B JUMP JUMPDEST POP PUSH1 0x40 MLOAD DUP4 DUP2 MSTORE CALLER SWAP1 PUSH32 0x9E71BC8EEA02A63969F509818F2DAFB9254532904319F9DBDA79B67BD34A5F3D SWAP1 PUSH1 0x20 ADD PUSH1 0x40 MLOAD DUP1 SWAP2 SUB SWAP1 LOG2 POP POP POP JUMP JUMPDEST PUSH1 0x5 SLOAD TIMESTAMP GT PUSH2 0x721 JUMPI PUSH1 0x40 MLOAD PUSH3 0x461BCD PUSH1 0xE5 SHL DUP2 MSTORE PUSH1 0x4 ADD PUSH2 0x32C SWAP1 PUSH2 0x978 JUMP JUMPDEST CALLER PUSH2 0x72A PUSH2 0x2AC JUMP JUMPDEST PUSH1 0x4 SSTORE TIMESTAMP PUSH1 0x3 SSTORE PUSH1 0x1 PUSH1 0x1 PUSH1 0xA0 SHL SUB DUP2 AND ISZERO PUSH2 0x775 JUMPI PUSH2 0x749 DUP2 PUSH2 0x23B JUMP JUMPDEST PUSH1 0x1 PUSH1 0x1 PUSH1 0xA0 SHL SUB DUP3 AND PUSH1 0x0 SWAP1 DUP2 MSTORE PUSH1 0x7 PUSH1 0x20 SWAP1 DUP2 MSTORE PUSH1 0x40 DUP1 DUP4 KECCAK256 SWAP4 SWAP1 SWAP4 SSTORE PUSH1 0x4 SLOAD PUSH1 0x6 SWAP1 SWAP2 MSTORE SWAP2 SWAP1 KECCAK256 SSTORE JUMPDEST PUSH1 0x0 DUP3 GT DUP1 ISZERO PUSH2 0x794 JUMPI POP CALLER PUSH1 0x0 SWAP1 DUP2 MSTORE PUSH1 0x9 PUSH1 0x20 MSTORE PUSH1 0x40 SWAP1 KECCAK256 SLOAD DUP3 GT ISZERO JUMPDEST PUSH2 0x7CF JUMPI PUSH1 0x40 MLOAD PUSH3 0x461BCD PUSH1 0xE5 SHL DUP2 MSTORE PUSH1 0x20 PUSH1 0x4 DUP3 ADD MSTORE PUSH1 0xC PUSH1 0x24 DUP3 ADD MSTORE PUSH12 0x30B6B7BAB73A1032B93937B9 PUSH1 0xA1 SHL PUSH1 0x44 DUP3 ADD MSTORE PUSH1 0x64 ADD PUSH2 0x32C JUMP JUMPDEST CALLER PUSH1 0x0 SWAP1 DUP2 MSTORE PUSH1 0x9 PUSH1 0x20 MSTORE PUSH1 0x40 DUP2 KECCAK256 DUP1 SLOAD DUP5 SWAP3 SWAP1 PUSH2 0x7EE SWAP1 DUP5 SWAP1 PUSH2 0x913 JUMP JUMPDEST SWAP3 POP POP DUP2 SWAP1 SSTORE POP DUP2 PUSH1 0x8 PUSH1 0x0 DUP3 DUP3 SLOAD PUSH2 0x807 SWAP2 SWAP1 PUSH2 0x913 JUMP JUMPDEST SWAP1 SWAP2 SSTORE POP POP PUSH1 0x1 SLOAD PUSH1 0x40 MLOAD PUSH4 0xA9059CBB PUSH1 0xE0 SHL DUP2 MSTORE CALLER PUSH1 0x4 DUP3 ADD MSTORE PUSH1 0x24 DUP2 ADD DUP5 SWAP1 MSTORE PUSH1 0x1 PUSH1 0x1 PUSH1 0xA0 SHL SUB SWAP1 SWAP2 AND SWAP1 PUSH4 0xA9059CBB SWAP1 PUSH1 0x44 ADD PUSH1 0x20 PUSH1 0x40 MLOAD DUP1 DUP4 SUB DUP2 PUSH1 0x0 DUP8 GAS CALL ISZERO DUP1 ISZERO PUSH2 0x85D JUMPI RETURNDATASIZE PUSH1 0x0 DUP1 RETURNDATACOPY RETURNDATASIZE PUSH1 0x0 REVERT JUMPDEST POP POP POP POP PUSH1 0x40 MLOAD RETURNDATASIZE PUSH1 0x1F NOT PUSH1 0x1F DUP3 ADD AND DUP3 ADD DUP1 PUSH1 0x40 MSTORE POP DUP2 ADD SWAP1 PUSH2 0x881 SWAP2 SWAP1 PUSH2 0x99B JUMP JUMPDEST POP PUSH1 0x40 MLOAD DUP3 DUP2 MSTORE CALLER SWAP1 PUSH32 0x7084F5476618D8E60B11EF0D7D3F06914655ADB8793E28FF7F018D4C76D505D5 SWAP1 PUSH1 0x20 ADD PUSH2 0x487 JUMP JUMPDEST PUSH1 0x0 PUSH1 0x20 DUP3 DUP5 SUB SLT ISZERO PUSH2 0x8C6 JUMPI PUSH1 0x0 DUP1 REVERT JUMPDEST DUP2 CALLDATALOAD PUSH1 0x1 PUSH1 0x1 PUSH1 0xA0 SHL SUB DUP2 AND DUP2 EQ PUSH2 0x8DD JUMPI PUSH1 0x0 DUP1 REVERT JUMPDEST SWAP4 SWAP3 POP POP POP JUMP JUMPDEST PUSH1 0x0 PUSH1 0x20 DUP3 DUP5 SUB SLT ISZERO PUSH2 0x8F6 JUMPI PUSH1 0x0 DUP1 REVERT JUMPDEST POP CALLDATALOAD SWAP2 SWAP1 POP JUMP JUMPDEST PUSH4 0x4E487B71 PUSH1 0xE0 SHL PUSH1 0x0 MSTORE PUSH1 0x11 PUSH1 0x4 MSTORE PUSH1 0x24 PUSH1 0x0 REVERT JUMPDEST DUP2 DUP2 SUB DUP2 DUP2 GT ISZERO PUSH2 0x926 JUMPI PUSH2 0x926 PUSH2 0x8FD JUMP JUMPDEST SWAP3 SWAP2 POP POP JUMP JUMPDEST DUP1 DUP3 MUL DUP2 ISZERO DUP3 DUP3 DIV DUP5 EQ OR PUSH2 0x926 JUMPI PUSH2 0x926 PUSH2 0x8FD JUMP JUMPDEST DUP1 DUP3 ADD DUP1 DUP3 GT ISZERO PUSH2 0x926 JUMPI PUSH2 0x926 PUSH2 0x8FD JUMP JUMPDEST PUSH1 0x0 DUP3 PUSH2 0x973 JUMPI PUSH4 0x4E487B71 PUSH1 0xE0 SHL PUSH1 0x0 MSTORE PUSH1 0x12 PUSH1 0x4 MSTORE PUSH1 0x24 PUSH1 0x0 REVERT JUMPDEST POP DIV SWAP1 JUMP JUMPDEST PUSH1 0x20 DUP1 DUP3 MSTORE PUSH1 0x9 SWAP1 DUP3 ADD MSTORE PUSH9 0x1B9BDD081CDD185C9D PUSH1 0xBA SHL PUSH1 0x40 DUP3 ADD MSTORE PUSH1 0x60 ADD SWAP1 JUMP JUMPDEST PUSH1 0x0 PUSH1 0x20 DUP3 DUP5 SUB SLT ISZERO PUSH2 0x9AD JUMPI PUSH1 0x0 DUP1 REVERT JUMPDEST DUP2 MLOAD DUP1 ISZERO ISZERO DUP2 EQ PUSH2 0x8DD JUMPI PUSH1 0x0 DUP1 REVERT JUMPDEST PUSH1 0x0 PUSH1 0x20 DUP3 DUP5 SUB SLT ISZERO PUSH2 0x9CF JUMPI PUSH1 0x0 DUP1 REVERT JUMPDEST POP MLOAD SWAP2 SWAP1 POP JUMP INVALID LOG2 PUSH5 0x6970667358 0x22 SLT KECCAK256 0xC2 0xCF RETURNDATASIZE SWAP2 RETURNDATASIZE RETURNDATACOPY 0xD7 SELFDESTRUCT LT COINBASE 0xC 0xC DUP13 OR SDIV 0xE1 0x2F 0x2D 0x1E 0xF9 ISZERO 0xBA PUSH11 0x9B382852A4525D477D6473 PUSH16 0x6C634300081300330000000000000000 "
				},
				"gasEstimates": {
					"creation": {
						"codeDepositCost": "514400",
						"executionCost": "infinite",
						"totalCost": "infinite"
					},
					"external": {
						"balanceOf(address)": "2558",
						"earned(address)": "infinite",
						"getNowPerTokenReward()": "infinite",
						"getNowTime()": "247",
						"getReward()": "infinite",
						"lastUpdateTime()": "2328",
						"lp()": "2360",
						"perTokenRewardStored()": "2329",
						"perTokenRewardStoredForUser(address)": "2495",
						"rewardRate()": "2307",
						"rewards(address)": "2519",
						"stake(uint256)": "infinite",
						"startTime()": "2373",
						"token()": "2425",
						"totalSupply()": "2349",
						"withdrawn(uint256)": "infinite"
					}
				},
				"methodIdentifiers": {
					"balanceOf(address)": "70a08231",
					"earned(address)": "008cc262",
					"getNowPerTokenReward()": "1b58638d",
					"getNowTime()": "9b819d38",
					"getReward()": "3d18b912",
					"lastUpdateTime()": "c8f33c91",
					"lp()": "313c06a0",
					"perTokenRewardStored()": "8319d26a",
					"perTokenRewardStoredForUser(address)": "a83526a3",
					"rewardRate()": "7b0a47ee",
					"rewards(address)": "0700037d",
					"stake(uint256)": "a694fc3a",
					"startTime()": "78e97925",
					"token()": "fc0c546a",
					"totalSupply()": "18160ddd",
					"withdrawn(uint256)": "e6b43d01"
				}
			},
			"storageLayout": {
				"storage": [
					{
						"astId": 83,
						"contract": "StakingPool/CDPStakingPool.sol:CDPStakingPool",
						"label": "token",
						"offset": 0,
						"slot": "0",
						"type": "t_contract(IERC20)77"
					},
					{
						"astId": 86,
						"contract": "StakingPool/CDPStakingPool.sol:CDPStakingPool",
						"label": "lp",
						"offset": 0,
						"slot": "1",
						"type": "t_contract(IERC20)77"
					},
					{
						"astId": 93,
						"contract": "StakingPool/CDPStakingPool.sol:CDPStakingPool",
						"label": "rewardRate",
						"offset": 0,
						"slot": "2",
						"type": "t_uint256"
					},
					{
						"astId": 95,
						"contract": "StakingPool/CDPStakingPool.sol:CDPStakingPool",
						"label": "lastUpdateTime",
						"offset": 0,
						"slot": "3",
						"type": "t_uint256"
					},
					{
						"astId": 97,
						"contract": "StakingPool/CDPStakingPool.sol:CDPStakingPool",
						"label": "perTokenRewardStored",
						"offset": 0,
						"slot": "4",
						"type": "t_uint256"
					},
					{
						"astId": 99,
						"contract": "StakingPool/CDPStakingPool.sol:CDPStakingPool",
						"label": "startTime",
						"offset": 0,
						"slot": "5",
						"type": "t_uint256"
					},
					{
						"astId": 103,
						"contract": "StakingPool/CDPStakingPool.sol:CDPStakingPool",
						"label": "perTokenRewardStoredForUser",
						"offset": 0,
						"slot": "6",
						"type": "t_mapping(t_address,t_uint256)"
					},
					{
						"astId": 107,
						"contract": "StakingPool/CDPStakingPool.sol:CDPStakingPool",
						"label": "rewards",
						"offset": 0,
						"slot": "7",
						"type": "t_mapping(t_address,t_uint256)"
					},
					{
						"astId": 109,
						"contract": "StakingPool/CDPStakingPool.sol:CDPStakingPool",
						"label": "_totalSupply",
						"offset": 0,
						"slot": "8",
						"type": "t_uint256"
					},
					{
						"astId": 113,
						"contract": "StakingPool/CDPStakingPool.sol:CDPStakingPool",
						"label": "_balances",
						"offset": 0,
						"slot": "9",
						"type": "t_mapping(t_address,t_uint256)"
					}
				],
				"types": {
					"t_address": {
						"encoding": "inplace",
						"label": "address",
						"numberOfBytes": "20"
					},
					"t_contract(IERC20)77": {
						"encoding": "inplace",
						"label": "contract IERC20",
						"numberOfBytes": "20"
					},
					"t_mapping(t_address,t_uint256)": {
						"encoding": "mapping",
						"key": "t_address",
						"label": "mapping(address => uint256)",
						"numberOfBytes": "32",
						"value": "t_uint256"
					},
					"t_uint256": {
						"encoding": "inplace",
						"label": "uint256",
						"numberOfBytes": "32"
					}
				}
			},
			"userdoc": {
				"kind": "user",
				"methods": {
					"balanceOf(address)": {
						"notice": "获取当前用户质押量"
					}
				},
				"version": 1
			}
		}
	}
}