{
	"StakingPool/CDPStakingPool.sol": {
		"CDPStakingPool": {
			"abi": [
				{
					"inputs": [
						{
							"internalType": "address",
							"name": "lpToken",
							"type": "address"
						},
						{
							"internalType": "address",
							"name": "rewardToken",
							"type": "address"
						}
					],
					"stateMutability": "nonpayable",
					"type": "constructor"
				},
				{
					"anonymous": false,
					"inputs": [
						{
							"indexed": true,
							"internalType": "address",
							"name": "user",
							"type": "address"
						},
						{
							"indexed": false,
							"internalType": "uint256",
							"name": "amount",
							"type": "uint256"
						}
					],
					"name": "GetReward",
					"type": "event"
				},
				{
					"anonymous": false,
					"inputs": [
						{
							"indexed": true,
							"internalType": "address",
							"name": "user",
							"type": "address"
						},
						{
							"indexed": false,
							"internalType": "uint256",
							"name": "amount",
							"type": "uint256"
						}
					],
					"name": "Staked",
					"type": "event"
				},
				{
					"anonymous": false,
					"inputs": [
						{
							"indexed": true,
							"internalType": "address",
							"name": "user",
							"type": "address"
						},
						{
							"indexed": false,
							"internalType": "uint256",
							"name": "amount",
							"type": "uint256"
						}
					],
					"name": "Withdrawn",
					"type": "event"
				},
				{
					"inputs": [
						{
							"internalType": "address",
							"name": "user",
							"type": "address"
						}
					],
					"name": "balanceOf",
					"outputs": [
						{
							"internalType": "uint256",
							"name": "",
							"type": "uint256"
						}
					],
					"stateMutability": "view",
					"type": "function"
				},
				{
					"inputs": [
						{
							"internalType": "address",
							"name": "user",
							"type": "address"
						}
					],
					"name": "earned",
					"outputs": [
						{
							"internalType": "uint256",
							"name": "",
							"type": "uint256"
						}
					],
					"stateMutability": "view",
					"type": "function"
				},
				{
					"inputs": [],
					"name": "getNowPerTokenReward",
					"outputs": [
						{
							"internalType": "uint256",
							"name": "",
							"type": "uint256"
						}
					],
					"stateMutability": "view",
					"type": "function"
				},
				{
					"inputs": [],
					"name": "getNowTime",
					"outputs": [
						{
							"internalType": "uint256",
							"name": "",
							"type": "uint256"
						}
					],
					"stateMutability": "view",
					"type": "function"
				},
				{
					"inputs": [],
					"name": "getReward",
					"outputs": [],
					"stateMutability": "nonpayable",
					"type": "function"
				},
				{
					"inputs": [],
					"name": "lastUpdateTime",
					"outputs": [
						{
							"internalType": "uint256",
							"name": "",
							"type": "uint256"
						}
					],
					"stateMutability": "view",
					"type": "function"
				},
				{
					"inputs": [],
					"name": "lp",
					"outputs": [
						{
							"internalType": "contract IERC20",
							"name": "",
							"type": "address"
						}
					],
					"stateMutability": "view",
					"type": "function"
				},
				{
					"inputs": [],
					"name": "perTokenRewardStored",
					"outputs": [
						{
							"internalType": "uint256",
							"name": "",
							"type": "uint256"
						}
					],
					"stateMutability": "view",
					"type": "function"
				},
				{
					"inputs": [
						{
							"internalType": "address",
							"name": "",
							"type": "address"
						}
					],
					"name": "perTokenRewardStoredForUser",
					"outputs": [
						{
							"internalType": "uint256",
							"name": "",
							"type": "uint256"
						}
					],
					"stateMutability": "view",
					"type": "function"
				},
				{
					"inputs": [],
					"name": "rewardRate",
					"outputs": [
						{
							"internalType": "uint256",
							"name": "",
							"type": "uint256"
						}
					],
					"stateMutability": "view",
					"type": "function"
				},
				{
					"inputs": [
						{
							"internalType": "address",
							"name": "",
							"type": "address"
						}
					],
					"name": "rewards",
					"outputs": [
						{
							"internalType": "uint256",
							"name": "",
							"type": "uint256"
						}
					],
					"stateMutability": "view",
					"type": "function"
				},
				{
					"inputs": [
						{
							"internalType": "uint256",
							"name": "amount",
							"type": "uint256"
						}
					],
					"name": "stake",
					"outputs": [],
					"stateMutability": "nonpayable",
					"type": "function"
				},
				{
					"inputs": [],
					"name": "startTime",
					"outputs": [
						{
							"internalType": "uint256",
							"name": "",
							"type": "uint256"
						}
					],
					"stateMutability": "view",
					"type": "function"
				},
				{
					"inputs": [],
					"name": "token",
					"outputs": [
						{
							"internalType": "contract IERC20",
							"name": "",
							"type": "address"
						}
					],
					"stateMutability": "view",
					"type": "function"
				},
				{
					"inputs": [],
					"name": "totalSupply",
					"outputs": [
						{
							"internalType": "uint256",
							"name": "",
							"type": "uint256"
						}
					],
					"stateMutability": "view",
					"type": "function"
				},
				{
					"inputs": [
						{
							"internalType": "uint256",
							"name": "amount",
							"type": "uint256"
						}
					],
					"name": "withdrawn",
					"outputs": [],
					"stateMutability": "nonpayable",
					"type": "function"
				}
			],
			"devdoc": {
				"kind": "dev",
				"methods": {},
				"version": 1
			},
			"evm": {
				"assembly": "    /* \"StakingPool/CDPStakingPool.sol\":115:4819  contract CDPStakingPool {... */\n  mstore(0x40, 0x80)\n    /* \"StakingPool/CDPStakingPool.sol\":300:310  1 * 10**18 */\n  0x0de0b6b3a7640000\n    /* \"StakingPool/CDPStakingPool.sol\":272:310  uint256 public rewardRate = 1 * 10**18 */\n  0x02\n  sstore\n    /* \"StakingPool/CDPStakingPool.sol\":1281:1442  constructor(address lpToken, address rewardToken) {... */\n  callvalue\n  dup1\n  iszero\n  tag_1\n  jumpi\n  0x00\n  dup1\n  revert\ntag_1:\n  pop\n  mload(0x40)\n  sub(codesize, bytecodeSize)\n  dup1\n  bytecodeSize\n  dup4\n  codecopy\n  dup2\n  add\n  0x40\n  dup2\n  swap1\n  mstore\n  tag_2\n  swap2\n  tag_3\n  jump\t// in\ntag_2:\n    /* \"StakingPool/CDPStakingPool.sol\":1341:1343  lp */\n  0x01\n    /* \"StakingPool/CDPStakingPool.sol\":1341:1361  lp = IERC20(lpToken) */\n  dup1\n  sload\n  sub(shl(0xa0, 0x01), 0x01)\n  swap4\n  dup5\n  and\n  not(sub(shl(0xa0, 0x01), 0x01))\n  swap2\n  dup3\n  and\n  or\n  swap1\n  swap2\n  sstore\n    /* \"StakingPool/CDPStakingPool.sol\":1341:1343  lp */\n  0x00\n    /* \"StakingPool/CDPStakingPool.sol\":1371:1398  token = IERC20(rewardToken) */\n  dup1\n  sload\n  swap3\n  swap1\n  swap4\n  and\n  swap2\n  and\n  or\n  swap1\n  sstore\n    /* \"StakingPool/CDPStakingPool.sol\":1420:1435  block.timestamp */\n  timestamp\n    /* \"StakingPool/CDPStakingPool.sol\":1408:1417  startTime */\n  0x05\n    /* \"StakingPool/CDPStakingPool.sol\":1408:1435  startTime = block.timestamp */\n  sstore\n    /* \"StakingPool/CDPStakingPool.sol\":115:4819  contract CDPStakingPool {... */\n  jump(tag_8)\n    /* \"#utility.yul\":14:191   */\ntag_7:\n    /* \"#utility.yul\":93:106   */\n  dup1\n  mload\n  sub(shl(0xa0, 0x01), 0x01)\n    /* \"#utility.yul\":135:166   */\n  dup2\n  and\n    /* \"#utility.yul\":125:167   */\n  dup2\n  eq\n    /* \"#utility.yul\":115:185   */\n  tag_10\n  jumpi\n    /* \"#utility.yul\":181:182   */\n  0x00\n    /* \"#utility.yul\":178:179   */\n  dup1\n    /* \"#utility.yul\":171:183   */\n  revert\n    /* \"#utility.yul\":115:185   */\ntag_10:\n    /* \"#utility.yul\":14:191   */\n  swap2\n  swap1\n  pop\n  jump\t// out\n    /* \"#utility.yul\":196:489   */\ntag_3:\n    /* \"#utility.yul\":275:281   */\n  0x00\n    /* \"#utility.yul\":283:289   */\n  dup1\n    /* \"#utility.yul\":336:338   */\n  0x40\n    /* \"#utility.yul\":324:333   */\n  dup4\n    /* \"#utility.yul\":315:322   */\n  dup6\n    /* \"#utility.yul\":311:334   */\n  sub\n    /* \"#utility.yul\":307:339   */\n  slt\n    /* \"#utility.yul\":304:356   */\n  iszero\n  tag_12\n  jumpi\n    /* \"#utility.yul\":352:353   */\n  0x00\n    /* \"#utility.yul\":349:350   */\n  dup1\n    /* \"#utility.yul\":342:354   */\n  revert\n    /* \"#utility.yul\":304:356   */\ntag_12:\n    /* \"#utility.yul\":375:415   */\n  tag_13\n    /* \"#utility.yul\":405:414   */\n  dup4\n    /* \"#utility.yul\":375:415   */\n  tag_7\n  jump\t// in\ntag_13:\n    /* \"#utility.yul\":365:415   */\n  swap2\n  pop\n    /* \"#utility.yul\":434:483   */\n  tag_14\n    /* \"#utility.yul\":479:481   */\n  0x20\n    /* \"#utility.yul\":468:477   */\n  dup5\n    /* \"#utility.yul\":464:482   */\n  add\n    /* \"#utility.yul\":434:483   */\n  tag_7\n  jump\t// in\ntag_14:\n    /* \"#utility.yul\":424:483   */\n  swap1\n  pop\n    /* \"#utility.yul\":196:489   */\n  swap3\n  pop\n  swap3\n  swap1\n  pop\n  jump\t// out\ntag_8:\n    /* \"StakingPool/CDPStakingPool.sol\":115:4819  contract CDPStakingPool {... */\n  dataSize(sub_0)\n  dup1\n  dataOffset(sub_0)\n  0x00\n  codecopy\n  0x00\n  return\nstop\n\nsub_0: assembly {\n        /* \"StakingPool/CDPStakingPool.sol\":115:4819  contract CDPStakingPool {... */\n      mstore(0x40, 0x80)\n      callvalue\n      dup1\n      iszero\n      tag_1\n      jumpi\n      0x00\n      dup1\n      revert\n    tag_1:\n      pop\n      jumpi(tag_2, lt(calldatasize, 0x04))\n      shr(0xe0, calldataload(0x00))\n      dup1\n      0x7b0a47ee\n      gt\n      tag_19\n      jumpi\n      dup1\n      0xa83526a3\n      gt\n      tag_20\n      jumpi\n      dup1\n      0xa83526a3\n      eq\n      tag_15\n      jumpi\n      dup1\n      0xc8f33c91\n      eq\n      tag_16\n      jumpi\n      dup1\n      0xe6b43d01\n      eq\n      tag_17\n      jumpi\n      dup1\n      0xfc0c546a\n      eq\n      tag_18\n      jumpi\n      0x00\n      dup1\n      revert\n    tag_20:\n      dup1\n      0x7b0a47ee\n      eq\n      tag_11\n      jumpi\n      dup1\n      0x8319d26a\n      eq\n      tag_12\n      jumpi\n      dup1\n      0x9b819d38\n      eq\n      tag_13\n      jumpi\n      dup1\n      0xa694fc3a\n      eq\n      tag_14\n      jumpi\n      0x00\n      dup1\n      revert\n    tag_19:\n      dup1\n      0x313c06a0\n      gt\n      tag_21\n      jumpi\n      dup1\n      0x313c06a0\n      eq\n      tag_7\n      jumpi\n      dup1\n      0x3d18b912\n      eq\n      tag_8\n      jumpi\n      dup1\n      0x70a08231\n      eq\n      tag_9\n      jumpi\n      dup1\n      0x78e97925\n      eq\n      tag_10\n      jumpi\n      0x00\n      dup1\n      revert\n    tag_21:\n      dup1\n      0x8cc262\n      eq\n      tag_3\n      jumpi\n      dup1\n      0x0700037d\n      eq\n      tag_4\n      jumpi\n      dup1\n      0x18160ddd\n      eq\n      tag_5\n      jumpi\n      dup1\n      0x1b58638d\n      eq\n      tag_6\n      jumpi\n    tag_2:\n      0x00\n      dup1\n      revert\n        /* \"StakingPool/CDPStakingPool.sol\":2532:3086  function earned(address user) public view returns (uint256) {... */\n    tag_3:\n      tag_22\n      tag_23\n      calldatasize\n      0x04\n      tag_24\n      jump\t// in\n    tag_23:\n      tag_25\n      jump\t// in\n    tag_22:\n      mload(0x40)\n        /* \"#utility.yul\":451:476   */\n      swap1\n      dup2\n      mstore\n        /* \"#utility.yul\":439:441   */\n      0x20\n        /* \"#utility.yul\":424:442   */\n      add\n        /* \"StakingPool/CDPStakingPool.sol\":2532:3086  function earned(address user) public view returns (uint256) {... */\n    tag_26:\n      mload(0x40)\n      dup1\n      swap2\n      sub\n      swap1\n      return\n        /* \"StakingPool/CDPStakingPool.sol\":829:871  mapping(address => uint256) public rewards */\n    tag_4:\n      tag_22\n      tag_29\n      calldatasize\n      0x04\n      tag_24\n      jump\t// in\n    tag_29:\n      mstore(0x20, 0x07)\n      0x00\n      swap1\n      dup2\n      mstore\n      0x40\n      swap1\n      keccak256\n      sload\n      dup2\n      jump\n        /* \"StakingPool/CDPStakingPool.sol\":1480:1569  function totalSupply() public view returns (uint256) {... */\n    tag_5:\n        /* \"StakingPool/CDPStakingPool.sol\":1550:1562  _totalSupply */\n      sload(0x08)\n        /* \"StakingPool/CDPStakingPool.sol\":1480:1569  function totalSupply() public view returns (uint256) {... */\n      jump(tag_22)\n        /* \"StakingPool/CDPStakingPool.sol\":1989:2377  function getNowPerTokenReward() public view returns (uint256) {... */\n    tag_6:\n      tag_22\n      tag_36\n      jump\t// in\n        /* \"StakingPool/CDPStakingPool.sol\":214:230  IERC20 public lp */\n    tag_7:\n      sload(0x01)\n      tag_38\n      swap1\n      sub(shl(0xa0, 0x01), 0x01)\n      and\n      dup2\n      jump\n    tag_38:\n      mload(0x40)\n      sub(shl(0xa0, 0x01), 0x01)\n        /* \"#utility.yul\":664:696   */\n      swap1\n      swap2\n      and\n        /* \"#utility.yul\":646:697   */\n      dup2\n      mstore\n        /* \"#utility.yul\":634:636   */\n      0x20\n        /* \"#utility.yul\":619:637   */\n      add\n        /* \"StakingPool/CDPStakingPool.sol\":214:230  IERC20 public lp */\n      tag_26\n        /* \"#utility.yul\":487:703   */\n      jump\n        /* \"StakingPool/CDPStakingPool.sol\":4189:4468  function getReward() public checkStart updateReward(msg.sender) {... */\n    tag_8:\n      tag_42\n      tag_43\n      jump\t// in\n    tag_42:\n      stop\n        /* \"StakingPool/CDPStakingPool.sol\":1611:1713  function balanceOf(address user) public view returns (uint256) {... */\n    tag_9:\n      tag_22\n      tag_45\n      calldatasize\n      0x04\n      tag_24\n      jump\t// in\n    tag_45:\n      sub(shl(0xa0, 0x01), 0x01)\n        /* \"StakingPool/CDPStakingPool.sol\":1691:1706  _balances[user] */\n      and\n        /* \"StakingPool/CDPStakingPool.sol\":1665:1672  uint256 */\n      0x00\n        /* \"StakingPool/CDPStakingPool.sol\":1691:1706  _balances[user] */\n      swap1\n      dup2\n      mstore\n        /* \"StakingPool/CDPStakingPool.sol\":1691:1700  _balances */\n      0x09\n        /* \"StakingPool/CDPStakingPool.sol\":1691:1706  _balances[user] */\n      0x20\n      mstore\n      0x40\n      swap1\n      keccak256\n      sload\n      swap1\n        /* \"StakingPool/CDPStakingPool.sol\":1611:1713  function balanceOf(address user) public view returns (uint256) {... */\n      jump\n        /* \"StakingPool/CDPStakingPool.sol\":566:590  uint256 public startTime */\n    tag_10:\n      tag_22\n      sload(0x05)\n      dup2\n      jump\n        /* \"StakingPool/CDPStakingPool.sol\":272:310  uint256 public rewardRate = 1 * 10**18 */\n    tag_11:\n      tag_22\n      sload(0x02)\n      dup2\n      jump\n        /* \"StakingPool/CDPStakingPool.sol\":499:534  uint256 public perTokenRewardStored */\n    tag_12:\n      tag_22\n      sload(0x04)\n      dup2\n      jump\n        /* \"StakingPool/CDPStakingPool.sol\":1745:1836  function getNowTime() public view returns (uint256) {... */\n    tag_13:\n        /* \"StakingPool/CDPStakingPool.sol\":1814:1829  block.timestamp */\n      timestamp\n        /* \"StakingPool/CDPStakingPool.sol\":1745:1836  function getNowTime() public view returns (uint256) {... */\n      jump(tag_22)\n        /* \"StakingPool/CDPStakingPool.sol\":3720:4163  function stake(uint256 amount) public checkStart updateReward(msg.sender) {... */\n    tag_14:\n      tag_42\n      tag_61\n      calldatasize\n      0x04\n      tag_62\n      jump\t// in\n    tag_61:\n      tag_63\n      jump\t// in\n        /* \"StakingPool/CDPStakingPool.sol\":682:744  mapping(address => uint256) public perTokenRewardStoredForUser */\n    tag_15:\n      tag_22\n      tag_65\n      calldatasize\n      0x04\n      tag_24\n      jump\t// in\n    tag_65:\n      mstore(0x20, 0x06)\n      0x00\n      swap1\n      dup2\n      mstore\n      0x40\n      swap1\n      keccak256\n      sload\n      dup2\n      jump\n        /* \"StakingPool/CDPStakingPool.sol\":372:401  uint256 public lastUpdateTime */\n    tag_16:\n      tag_22\n      sload(0x03)\n      dup2\n      jump\n        /* \"StakingPool/CDPStakingPool.sol\":4494:4817  function withdrawn(uint256 amount) public checkStart updateReward(msg.sender) {... */\n    tag_17:\n      tag_42\n      tag_72\n      calldatasize\n      0x04\n      tag_62\n      jump\t// in\n    tag_72:\n      tag_73\n      jump\t// in\n        /* \"StakingPool/CDPStakingPool.sol\":167:186  IERC20 public token */\n    tag_18:\n      sload(0x00)\n      tag_38\n      swap1\n      sub(shl(0xa0, 0x01), 0x01)\n      and\n      dup2\n      jump\n        /* \"StakingPool/CDPStakingPool.sol\":2532:3086  function earned(address user) public view returns (uint256) {... */\n    tag_25:\n      sub(shl(0xa0, 0x01), 0x01)\n        /* \"StakingPool/CDPStakingPool.sol\":2658:2673  _balances[user] */\n      dup2\n      and\n        /* \"StakingPool/CDPStakingPool.sol\":2583:2590  uint256 */\n      0x00\n        /* \"StakingPool/CDPStakingPool.sol\":2658:2673  _balances[user] */\n      swap1\n      dup2\n      mstore\n        /* \"StakingPool/CDPStakingPool.sol\":2658:2667  _balances */\n      0x09\n        /* \"StakingPool/CDPStakingPool.sol\":2658:2673  _balances[user] */\n      0x20\n      swap1\n      dup2\n      mstore\n      0x40\n      dup1\n      dup4\n      keccak256\n      sload\n        /* \"StakingPool/CDPStakingPool.sol\":2911:2938  perTokenRewardStoredForUser */\n      0x06\n        /* \"StakingPool/CDPStakingPool.sol\":2911:2944  perTokenRewardStoredForUser[user] */\n      swap1\n      swap3\n      mstore\n      dup3\n      keccak256\n      sload\n        /* \"StakingPool/CDPStakingPool.sol\":2583:2590  uint256 */\n      dup3\n      swap1\n        /* \"StakingPool/CDPStakingPool.sol\":2949:2955  10**18 */\n      0x0de0b6b3a7640000\n      swap1\n        /* \"StakingPool/CDPStakingPool.sol\":2886:2908  getNowPerTokenReward() */\n      tag_78\n        /* \"StakingPool/CDPStakingPool.sol\":2886:2906  getNowPerTokenReward */\n      tag_36\n        /* \"StakingPool/CDPStakingPool.sol\":2886:2908  getNowPerTokenReward() */\n      jump\t// in\n    tag_78:\n        /* \"StakingPool/CDPStakingPool.sol\":2886:2944  getNowPerTokenReward() - perTokenRewardStoredForUser[user] */\n      tag_79\n      swap2\n      swap1\n      tag_80\n      jump\t// in\n    tag_79:\n        /* \"StakingPool/CDPStakingPool.sol\":2870:2945  stakingCount * (getNowPerTokenReward() - perTokenRewardStoredForUser[user]) */\n      tag_81\n      swap1\n        /* \"StakingPool/CDPStakingPool.sol\":2870:2882  stakingCount */\n      dup5\n        /* \"StakingPool/CDPStakingPool.sol\":2870:2945  stakingCount * (getNowPerTokenReward() - perTokenRewardStoredForUser[user]) */\n      tag_82\n      jump\t// in\n    tag_81:\n        /* \"StakingPool/CDPStakingPool.sol\":2870:2956  stakingCount * (getNowPerTokenReward() - perTokenRewardStoredForUser[user]) / (10**18) */\n      tag_83\n      swap2\n      swap1\n      tag_84\n      jump\t// in\n    tag_83:\n      sub(shl(0xa0, 0x01), 0x01)\n        /* \"StakingPool/CDPStakingPool.sol\":3025:3038  rewards[user] */\n      dup6\n      and\n        /* \"StakingPool/CDPStakingPool.sol\":3005:3022  uint256 earnCount */\n      0x00\n        /* \"StakingPool/CDPStakingPool.sol\":3025:3038  rewards[user] */\n      swap1\n      dup2\n      mstore\n        /* \"StakingPool/CDPStakingPool.sol\":3025:3032  rewards */\n      0x07\n        /* \"StakingPool/CDPStakingPool.sol\":3025:3038  rewards[user] */\n      0x20\n      mstore\n      0x40\n      swap1\n      keccak256\n      sload\n        /* \"StakingPool/CDPStakingPool.sol\":2847:2956  uint256 newEarnCount = stakingCount * (getNowPerTokenReward() - perTokenRewardStoredForUser[user]) / (10**18) */\n      swap1\n      swap2\n      pop\n        /* \"StakingPool/CDPStakingPool.sol\":3055:3079  newEarnCount + earnCount */\n      tag_85\n        /* \"StakingPool/CDPStakingPool.sol\":3025:3038  rewards[user] */\n      dup2\n        /* \"StakingPool/CDPStakingPool.sol\":2847:2956  uint256 newEarnCount = stakingCount * (getNowPerTokenReward() - perTokenRewardStoredForUser[user]) / (10**18) */\n      dup4\n        /* \"StakingPool/CDPStakingPool.sol\":3055:3079  newEarnCount + earnCount */\n      tag_86\n      jump\t// in\n    tag_85:\n        /* \"StakingPool/CDPStakingPool.sol\":3048:3079  return newEarnCount + earnCount */\n      swap6\n        /* \"StakingPool/CDPStakingPool.sol\":2532:3086  function earned(address user) public view returns (uint256) {... */\n      swap5\n      pop\n      pop\n      pop\n      pop\n      pop\n      jump\t// out\n        /* \"StakingPool/CDPStakingPool.sol\":1989:2377  function getNowPerTokenReward() public view returns (uint256) {... */\n    tag_36:\n        /* \"StakingPool/CDPStakingPool.sol\":2042:2049  uint256 */\n      0x00\n        /* \"StakingPool/CDPStakingPool.sol\":2065:2077  _totalSupply */\n      sload(0x08)\n        /* \"StakingPool/CDPStakingPool.sol\":2081:2082  0 */\n      0x00\n        /* \"StakingPool/CDPStakingPool.sol\":2065:2082  _totalSupply == 0 */\n      sub\n        /* \"StakingPool/CDPStakingPool.sol\":2061:2136  if (_totalSupply == 0) {... */\n      tag_89\n      jumpi\n      pop\n        /* \"StakingPool/CDPStakingPool.sol\":2105:2125  perTokenRewardStored */\n      sload(0x04)\n      swap1\n        /* \"StakingPool/CDPStakingPool.sol\":1989:2377  function getNowPerTokenReward() public view returns (uint256) {... */\n      jump\t// out\n        /* \"StakingPool/CDPStakingPool.sol\":2061:2136  if (_totalSupply == 0) {... */\n    tag_89:\n        /* \"StakingPool/CDPStakingPool.sol\":2145:2157  uint256 time */\n      0x00\n        /* \"StakingPool/CDPStakingPool.sol\":2175:2189  lastUpdateTime */\n      sload(0x03)\n        /* \"StakingPool/CDPStakingPool.sol\":2160:2172  getNowTime() */\n      tag_90\n        /* \"StakingPool/CDPStakingPool.sol\":1814:1829  block.timestamp */\n      timestamp\n      swap1\n        /* \"StakingPool/CDPStakingPool.sol\":1745:1836  function getNowTime() public view returns (uint256) {... */\n      jump\n        /* \"StakingPool/CDPStakingPool.sol\":2160:2172  getNowTime() */\n    tag_90:\n        /* \"StakingPool/CDPStakingPool.sol\":2160:2189  getNowTime() - lastUpdateTime */\n      tag_91\n      swap2\n      swap1\n      tag_80\n      jump\t// in\n    tag_91:\n        /* \"StakingPool/CDPStakingPool.sol\":2145:2189  uint256 time = getNowTime() - lastUpdateTime */\n      swap1\n      pop\n        /* \"StakingPool/CDPStakingPool.sol\":2259:2281  uint256 perTokenReward */\n      0x00\n        /* \"StakingPool/CDPStakingPool.sol\":2304:2316  _totalSupply */\n      sload(0x08)\n        /* \"StakingPool/CDPStakingPool.sol\":2291:2301  rewardRate */\n      sload(0x02)\n        /* \"StakingPool/CDPStakingPool.sol\":2284:2288  time */\n      dup4\n        /* \"StakingPool/CDPStakingPool.sol\":2284:2301  time * rewardRate */\n      tag_92\n      swap2\n      swap1\n      tag_82\n      jump\t// in\n    tag_92:\n        /* \"StakingPool/CDPStakingPool.sol\":2284:2316  time * rewardRate / _totalSupply */\n      tag_93\n      swap2\n      swap1\n      tag_84\n      jump\t// in\n    tag_93:\n        /* \"StakingPool/CDPStakingPool.sol\":2259:2316  uint256 perTokenReward = time * rewardRate / _totalSupply */\n      swap1\n      pop\n        /* \"StakingPool/CDPStakingPool.sol\":2356:2370  perTokenReward */\n      dup1\n        /* \"StakingPool/CDPStakingPool.sol\":2333:2353  perTokenRewardStored */\n      sload(0x04)\n        /* \"StakingPool/CDPStakingPool.sol\":2333:2370  perTokenRewardStored + perTokenReward */\n      tag_94\n      swap2\n      swap1\n      tag_86\n      jump\t// in\n    tag_94:\n        /* \"StakingPool/CDPStakingPool.sol\":2326:2370  return perTokenRewardStored + perTokenReward */\n      swap3\n      pop\n      pop\n      pop\n        /* \"StakingPool/CDPStakingPool.sol\":1989:2377  function getNowPerTokenReward() public view returns (uint256) {... */\n      swap1\n      jump\t// out\n        /* \"StakingPool/CDPStakingPool.sol\":4189:4468  function getReward() public checkStart updateReward(msg.sender) {... */\n    tag_43:\n        /* \"StakingPool/CDPStakingPool.sol\":3653:3662  startTime */\n      sload(0x05)\n        /* \"StakingPool/CDPStakingPool.sol\":3635:3650  block.timestamp */\n      timestamp\n        /* \"StakingPool/CDPStakingPool.sol\":3635:3662  block.timestamp > startTime */\n      gt\n        /* \"StakingPool/CDPStakingPool.sol\":3627:3676  require(block.timestamp > startTime, \"not start\") */\n      tag_96\n      jumpi\n      mload(0x40)\n      shl(0xe5, 0x461bcd)\n      dup2\n      mstore\n      0x04\n      add\n      tag_97\n      swap1\n      tag_98\n      jump\t// in\n    tag_97:\n      mload(0x40)\n      dup1\n      swap2\n      sub\n      swap1\n      revert\n    tag_96:\n        /* \"StakingPool/CDPStakingPool.sol\":4241:4251  msg.sender */\n      caller\n        /* \"StakingPool/CDPStakingPool.sol\":3217:3239  getNowPerTokenReward() */\n      tag_100\n        /* \"StakingPool/CDPStakingPool.sol\":3217:3237  getNowPerTokenReward */\n      tag_36\n        /* \"StakingPool/CDPStakingPool.sol\":3217:3239  getNowPerTokenReward() */\n      jump\t// in\n    tag_100:\n        /* \"StakingPool/CDPStakingPool.sol\":3194:3214  perTokenRewardStored */\n      0x04\n        /* \"StakingPool/CDPStakingPool.sol\":3194:3239  perTokenRewardStored = getNowPerTokenReward() */\n      sstore\n        /* \"StakingPool/CDPStakingPool.sol\":3296:3311  block.timestamp */\n      timestamp\n        /* \"StakingPool/CDPStakingPool.sol\":3279:3293  lastUpdateTime */\n      0x03\n        /* \"StakingPool/CDPStakingPool.sol\":3279:3311  lastUpdateTime = block.timestamp */\n      sstore\n      sub(shl(0xa0, 0x01), 0x01)\n        /* \"StakingPool/CDPStakingPool.sol\":3325:3343  user != address(0) */\n      dup2\n      and\n      iszero\n        /* \"StakingPool/CDPStakingPool.sol\":3321:3537  if (user != address(0)) {... */\n      tag_101\n      jumpi\n        /* \"StakingPool/CDPStakingPool.sol\":3408:3420  earned(user) */\n      tag_102\n        /* \"StakingPool/CDPStakingPool.sol\":3415:3419  user */\n      dup2\n        /* \"StakingPool/CDPStakingPool.sol\":3408:3414  earned */\n      tag_25\n        /* \"StakingPool/CDPStakingPool.sol\":3408:3420  earned(user) */\n      jump\t// in\n    tag_102:\n      sub(shl(0xa0, 0x01), 0x01)\n        /* \"StakingPool/CDPStakingPool.sol\":3392:3405  rewards[user] */\n      dup3\n      and\n      0x00\n      swap1\n      dup2\n      mstore\n        /* \"StakingPool/CDPStakingPool.sol\":3392:3399  rewards */\n      0x07\n        /* \"StakingPool/CDPStakingPool.sol\":3392:3405  rewards[user] */\n      0x20\n      swap1\n      dup2\n      mstore\n      0x40\n      dup1\n      dup4\n      keccak256\n        /* \"StakingPool/CDPStakingPool.sol\":3392:3420  rewards[user] = earned(user) */\n      swap4\n      swap1\n      swap4\n      sstore\n        /* \"StakingPool/CDPStakingPool.sol\":3506:3526  perTokenRewardStored */\n      sload(0x04)\n        /* \"StakingPool/CDPStakingPool.sol\":3470:3497  perTokenRewardStoredForUser */\n      0x06\n        /* \"StakingPool/CDPStakingPool.sol\":3470:3503  perTokenRewardStoredForUser[user] */\n      swap1\n      swap2\n      mstore\n      swap2\n      swap1\n      keccak256\n        /* \"StakingPool/CDPStakingPool.sol\":3470:3526  perTokenRewardStoredForUser[user] = perTokenRewardStored */\n      sstore\n        /* \"StakingPool/CDPStakingPool.sol\":3321:3537  if (user != address(0)) {... */\n    tag_101:\n        /* \"StakingPool/CDPStakingPool.sol\":4263:4277  uint256 reward */\n      0x00\n        /* \"StakingPool/CDPStakingPool.sol\":4280:4298  earned(msg.sender) */\n      tag_104\n        /* \"StakingPool/CDPStakingPool.sol\":4287:4297  msg.sender */\n      caller\n        /* \"StakingPool/CDPStakingPool.sol\":4280:4286  earned */\n      tag_25\n        /* \"StakingPool/CDPStakingPool.sol\":4280:4298  earned(msg.sender) */\n      jump\t// in\n    tag_104:\n        /* \"StakingPool/CDPStakingPool.sol\":4263:4298  uint256 reward = earned(msg.sender) */\n      swap1\n      pop\n        /* \"StakingPool/CDPStakingPool.sol\":4325:4326  0 */\n      0x00\n        /* \"StakingPool/CDPStakingPool.sol\":4316:4322  reward */\n      dup2\n        /* \"StakingPool/CDPStakingPool.sol\":4316:4326  reward > 0 */\n      gt\n        /* \"StakingPool/CDPStakingPool.sol\":4308:4340  require(reward > 0, \"no reward\") */\n      tag_105\n      jumpi\n      mload(0x40)\n      shl(0xe5, 0x461bcd)\n      dup2\n      mstore\n        /* \"#utility.yul\":2222:2224   */\n      0x20\n        /* \"StakingPool/CDPStakingPool.sol\":4308:4340  require(reward > 0, \"no reward\") */\n      0x04\n      dup3\n      add\n        /* \"#utility.yul\":2204:2225   */\n      mstore\n        /* \"#utility.yul\":2261:2262   */\n      0x09\n        /* \"#utility.yul\":2241:2259   */\n      0x24\n      dup3\n      add\n        /* \"#utility.yul\":2234:2263   */\n      mstore\n      shl(0xba, 0x1b9bc81c995dd85c99)\n        /* \"#utility.yul\":2279:2297   */\n      0x44\n      dup3\n      add\n        /* \"#utility.yul\":2272:2311   */\n      mstore\n        /* \"#utility.yul\":2328:2346   */\n      0x64\n      add\n        /* \"StakingPool/CDPStakingPool.sol\":4308:4340  require(reward > 0, \"no reward\") */\n      tag_97\n        /* \"#utility.yul\":2020:2352   */\n      jump\n        /* \"StakingPool/CDPStakingPool.sol\":4308:4340  require(reward > 0, \"no reward\") */\n    tag_105:\n        /* \"StakingPool/CDPStakingPool.sol\":4358:4368  msg.sender */\n      caller\n        /* \"StakingPool/CDPStakingPool.sol\":4372:4373  0 */\n      0x00\n        /* \"StakingPool/CDPStakingPool.sol\":4350:4369  rewards[msg.sender] */\n      dup2\n      dup2\n      mstore\n        /* \"StakingPool/CDPStakingPool.sol\":4350:4357  rewards */\n      0x07\n        /* \"StakingPool/CDPStakingPool.sol\":4350:4369  rewards[msg.sender] */\n      0x20\n      mstore\n      0x40\n      dup1\n      dup3\n      keccak256\n        /* \"StakingPool/CDPStakingPool.sol\":4350:4373  rewards[msg.sender] = 0 */\n      dup3\n      swap1\n      sstore\n        /* \"StakingPool/CDPStakingPool.sol\":4383:4388  token */\n      swap1\n      sload\n        /* \"StakingPool/CDPStakingPool.sol\":4383:4417  token.transfer(msg.sender, reward) */\n      swap1\n      mload\n      shl(0xe0, 0xa9059cbb)\n      dup2\n      mstore\n      0x04\n      dup2\n      add\n        /* \"#utility.yul\":2531:2582   */\n      swap3\n      swap1\n      swap3\n      mstore\n        /* \"#utility.yul\":2598:2616   */\n      0x24\n      dup3\n      add\n        /* \"#utility.yul\":2591:2625   */\n      dup4\n      swap1\n      mstore\n      sub(shl(0xa0, 0x01), 0x01)\n        /* \"StakingPool/CDPStakingPool.sol\":4383:4388  token */\n      and\n      swap1\n        /* \"StakingPool/CDPStakingPool.sol\":4383:4397  token.transfer */\n      0xa9059cbb\n      swap1\n        /* \"#utility.yul\":2504:2522   */\n      0x44\n      add\n        /* \"StakingPool/CDPStakingPool.sol\":4383:4417  token.transfer(msg.sender, reward) */\n      0x20\n      mload(0x40)\n      dup1\n      dup4\n      sub\n      dup2\n      0x00\n      dup8\n      gas\n      call\n      iszero\n      dup1\n      iszero\n      tag_111\n      jumpi\n      returndatasize\n      0x00\n      dup1\n      returndatacopy\n      revert(0x00, returndatasize)\n    tag_111:\n      pop\n      pop\n      pop\n      pop\n      mload(0x40)\n      returndatasize\n      not(0x1f)\n      0x1f\n      dup3\n      add\n      and\n      dup3\n      add\n      dup1\n      0x40\n      mstore\n      pop\n      dup2\n      add\n      swap1\n      tag_112\n      swap2\n      swap1\n      tag_113\n      jump\t// in\n    tag_112:\n      pop\n        /* \"StakingPool/CDPStakingPool.sol\":4432:4461  GetReward(msg.sender, reward) */\n      mload(0x40)\n        /* \"#utility.yul\":451:476   */\n      dup2\n      dup2\n      mstore\n        /* \"StakingPool/CDPStakingPool.sol\":4442:4452  msg.sender */\n      caller\n      swap1\n        /* \"StakingPool/CDPStakingPool.sol\":4432:4461  GetReward(msg.sender, reward) */\n      0x25c30c62c42b51e4f667b70ef60f1f683c376f6ace28312ed45a40665e01af37\n      swap1\n        /* \"#utility.yul\":439:441   */\n      0x20\n        /* \"#utility.yul\":424:442   */\n      add\n        /* \"StakingPool/CDPStakingPool.sol\":4432:4461  GetReward(msg.sender, reward) */\n    tag_114:\n      mload(0x40)\n      dup1\n      swap2\n      sub\n      swap1\n      log2\n        /* \"StakingPool/CDPStakingPool.sol\":4253:4468  {... */\n      pop\n        /* \"StakingPool/CDPStakingPool.sol\":3686:3687  _ */\n      pop\n        /* \"StakingPool/CDPStakingPool.sol\":4189:4468  function getReward() public checkStart updateReward(msg.sender) {... */\n      jump\t// out\n        /* \"StakingPool/CDPStakingPool.sol\":3720:4163  function stake(uint256 amount) public checkStart updateReward(msg.sender) {... */\n    tag_63:\n        /* \"StakingPool/CDPStakingPool.sol\":3653:3662  startTime */\n      sload(0x05)\n        /* \"StakingPool/CDPStakingPool.sol\":3635:3650  block.timestamp */\n      timestamp\n        /* \"StakingPool/CDPStakingPool.sol\":3635:3662  block.timestamp > startTime */\n      gt\n        /* \"StakingPool/CDPStakingPool.sol\":3627:3676  require(block.timestamp > startTime, \"not start\") */\n      tag_118\n      jumpi\n      mload(0x40)\n      shl(0xe5, 0x461bcd)\n      dup2\n      mstore\n      0x04\n      add\n      tag_97\n      swap1\n      tag_98\n      jump\t// in\n    tag_118:\n        /* \"StakingPool/CDPStakingPool.sol\":3782:3792  msg.sender */\n      caller\n        /* \"StakingPool/CDPStakingPool.sol\":3217:3239  getNowPerTokenReward() */\n      tag_121\n        /* \"StakingPool/CDPStakingPool.sol\":3217:3237  getNowPerTokenReward */\n      tag_36\n        /* \"StakingPool/CDPStakingPool.sol\":3217:3239  getNowPerTokenReward() */\n      jump\t// in\n    tag_121:\n        /* \"StakingPool/CDPStakingPool.sol\":3194:3214  perTokenRewardStored */\n      0x04\n        /* \"StakingPool/CDPStakingPool.sol\":3194:3239  perTokenRewardStored = getNowPerTokenReward() */\n      sstore\n        /* \"StakingPool/CDPStakingPool.sol\":3296:3311  block.timestamp */\n      timestamp\n        /* \"StakingPool/CDPStakingPool.sol\":3279:3293  lastUpdateTime */\n      0x03\n        /* \"StakingPool/CDPStakingPool.sol\":3279:3311  lastUpdateTime = block.timestamp */\n      sstore\n      sub(shl(0xa0, 0x01), 0x01)\n        /* \"StakingPool/CDPStakingPool.sol\":3325:3343  user != address(0) */\n      dup2\n      and\n      iszero\n        /* \"StakingPool/CDPStakingPool.sol\":3321:3537  if (user != address(0)) {... */\n      tag_122\n      jumpi\n        /* \"StakingPool/CDPStakingPool.sol\":3408:3420  earned(user) */\n      tag_123\n        /* \"StakingPool/CDPStakingPool.sol\":3415:3419  user */\n      dup2\n        /* \"StakingPool/CDPStakingPool.sol\":3408:3414  earned */\n      tag_25\n        /* \"StakingPool/CDPStakingPool.sol\":3408:3420  earned(user) */\n      jump\t// in\n    tag_123:\n      sub(shl(0xa0, 0x01), 0x01)\n        /* \"StakingPool/CDPStakingPool.sol\":3392:3405  rewards[user] */\n      dup3\n      and\n      0x00\n      swap1\n      dup2\n      mstore\n        /* \"StakingPool/CDPStakingPool.sol\":3392:3399  rewards */\n      0x07\n        /* \"StakingPool/CDPStakingPool.sol\":3392:3405  rewards[user] */\n      0x20\n      swap1\n      dup2\n      mstore\n      0x40\n      dup1\n      dup4\n      keccak256\n        /* \"StakingPool/CDPStakingPool.sol\":3392:3420  rewards[user] = earned(user) */\n      swap4\n      swap1\n      swap4\n      sstore\n        /* \"StakingPool/CDPStakingPool.sol\":3506:3526  perTokenRewardStored */\n      sload(0x04)\n        /* \"StakingPool/CDPStakingPool.sol\":3470:3497  perTokenRewardStoredForUser */\n      0x06\n        /* \"StakingPool/CDPStakingPool.sol\":3470:3503  perTokenRewardStoredForUser[user] */\n      swap1\n      swap2\n      mstore\n      swap2\n      swap1\n      keccak256\n        /* \"StakingPool/CDPStakingPool.sol\":3470:3526  perTokenRewardStoredForUser[user] = perTokenRewardStored */\n      sstore\n        /* \"StakingPool/CDPStakingPool.sol\":3321:3537  if (user != address(0)) {... */\n    tag_122:\n        /* \"StakingPool/CDPStakingPool.sol\":3821:3822  0 */\n      0x00\n        /* \"StakingPool/CDPStakingPool.sol\":3812:3818  amount */\n      dup3\n        /* \"StakingPool/CDPStakingPool.sol\":3812:3822  amount > 0 */\n      gt\n        /* \"StakingPool/CDPStakingPool.sol\":3804:3842  require(amount > 0, \"amount need > 0\") */\n      tag_125\n      jumpi\n      mload(0x40)\n      shl(0xe5, 0x461bcd)\n      dup2\n      mstore\n        /* \"#utility.yul\":3120:3122   */\n      0x20\n        /* \"StakingPool/CDPStakingPool.sol\":3804:3842  require(amount > 0, \"amount need > 0\") */\n      0x04\n      dup3\n      add\n        /* \"#utility.yul\":3102:3123   */\n      mstore\n        /* \"#utility.yul\":3159:3161   */\n      0x0f\n        /* \"#utility.yul\":3139:3157   */\n      0x24\n      dup3\n      add\n        /* \"#utility.yul\":3132:3162   */\n      mstore\n      shl(0x8c, 0x0616d6f756e74206e656564203e203)\n        /* \"#utility.yul\":3178:3196   */\n      0x44\n      dup3\n      add\n        /* \"#utility.yul\":3171:3216   */\n      mstore\n        /* \"#utility.yul\":3233:3251   */\n      0x64\n      add\n        /* \"StakingPool/CDPStakingPool.sol\":3804:3842  require(amount > 0, \"amount need > 0\") */\n      tag_97\n        /* \"#utility.yul\":2918:3257   */\n      jump\n        /* \"StakingPool/CDPStakingPool.sol\":3804:3842  require(amount > 0, \"amount need > 0\") */\n    tag_125:\n        /* \"StakingPool/CDPStakingPool.sol\":3873:3875  lp */\n      sload(0x01)\n        /* \"StakingPool/CDPStakingPool.sol\":3873:3912  lp.allowance(msg.sender, address(this)) */\n      mload(0x40)\n      shl(0xe1, 0x6eb1769f)\n      dup2\n      mstore\n        /* \"StakingPool/CDPStakingPool.sol\":3886:3896  msg.sender */\n      caller\n        /* \"StakingPool/CDPStakingPool.sol\":3873:3912  lp.allowance(msg.sender, address(this)) */\n      0x04\n      dup3\n      add\n        /* \"#utility.yul\":3474:3508   */\n      mstore\n        /* \"StakingPool/CDPStakingPool.sol\":3906:3910  this */\n      address\n        /* \"#utility.yul\":3524:3542   */\n      0x24\n      dup3\n      add\n        /* \"#utility.yul\":3517:3560   */\n      mstore\n        /* \"StakingPool/CDPStakingPool.sol\":3852:3870  uint256 allowCount */\n      0x00\n      swap2\n      sub(shl(0xa0, 0x01), 0x01)\n        /* \"StakingPool/CDPStakingPool.sol\":3873:3875  lp */\n      and\n      swap1\n        /* \"StakingPool/CDPStakingPool.sol\":3873:3885  lp.allowance */\n      0xdd62ed3e\n      swap1\n        /* \"#utility.yul\":3409:3427   */\n      0x44\n      add\n        /* \"StakingPool/CDPStakingPool.sol\":3873:3912  lp.allowance(msg.sender, address(this)) */\n      0x20\n      mload(0x40)\n      dup1\n      dup4\n      sub\n      dup2\n      dup7\n      gas\n      staticcall\n      iszero\n      dup1\n      iszero\n      tag_131\n      jumpi\n      returndatasize\n      0x00\n      dup1\n      returndatacopy\n      revert(0x00, returndatasize)\n    tag_131:\n      pop\n      pop\n      pop\n      pop\n      mload(0x40)\n      returndatasize\n      not(0x1f)\n      0x1f\n      dup3\n      add\n      and\n      dup3\n      add\n      dup1\n      0x40\n      mstore\n      pop\n      dup2\n      add\n      swap1\n      tag_132\n      swap2\n      swap1\n      tag_133\n      jump\t// in\n    tag_132:\n        /* \"StakingPool/CDPStakingPool.sol\":3852:3912  uint256 allowCount = lp.allowance(msg.sender, address(this)) */\n      swap1\n      pop\n        /* \"StakingPool/CDPStakingPool.sol\":3944:3950  amount */\n      dup3\n        /* \"StakingPool/CDPStakingPool.sol\":3930:3940  allowCount */\n      dup2\n        /* \"StakingPool/CDPStakingPool.sol\":3930:3950  allowCount >= amount */\n      lt\n      iszero\n        /* \"StakingPool/CDPStakingPool.sol\":3922:3981  require(allowCount >= amount, \"allowance count not enough\") */\n      tag_134\n      jumpi\n      mload(0x40)\n      shl(0xe5, 0x461bcd)\n      dup2\n      mstore\n        /* \"#utility.yul\":3962:3964   */\n      0x20\n        /* \"StakingPool/CDPStakingPool.sol\":3922:3981  require(allowCount >= amount, \"allowance count not enough\") */\n      0x04\n      dup3\n      add\n        /* \"#utility.yul\":3944:3965   */\n      mstore\n        /* \"#utility.yul\":4001:4003   */\n      0x1a\n        /* \"#utility.yul\":3981:3999   */\n      0x24\n      dup3\n      add\n        /* \"#utility.yul\":3974:4004   */\n      mstore\n        /* \"#utility.yul\":4040:4068   */\n      0x616c6c6f77616e636520636f756e74206e6f7420656e6f756768000000000000\n        /* \"#utility.yul\":4020:4038   */\n      0x44\n      dup3\n      add\n        /* \"#utility.yul\":4013:4069   */\n      mstore\n        /* \"#utility.yul\":4086:4104   */\n      0x64\n      add\n        /* \"StakingPool/CDPStakingPool.sol\":3922:3981  require(allowCount >= amount, \"allowance count not enough\") */\n      tag_97\n        /* \"#utility.yul\":3760:4110   */\n      jump\n        /* \"StakingPool/CDPStakingPool.sol\":3922:3981  require(allowCount >= amount, \"allowance count not enough\") */\n    tag_134:\n        /* \"StakingPool/CDPStakingPool.sol\":4008:4014  amount */\n      dup3\n        /* \"StakingPool/CDPStakingPool.sol\":3992:4004  _totalSupply */\n      0x08\n      0x00\n        /* \"StakingPool/CDPStakingPool.sol\":3992:4014  _totalSupply += amount */\n      dup3\n      dup3\n      sload\n      tag_137\n      swap2\n      swap1\n      tag_86\n      jump\t// in\n    tag_137:\n      swap1\n      swap2\n      sstore\n      pop\n      pop\n        /* \"StakingPool/CDPStakingPool.sol\":4034:4044  msg.sender */\n      caller\n        /* \"StakingPool/CDPStakingPool.sol\":4024:4045  _balances[msg.sender] */\n      0x00\n      swap1\n      dup2\n      mstore\n        /* \"StakingPool/CDPStakingPool.sol\":4024:4033  _balances */\n      0x09\n        /* \"StakingPool/CDPStakingPool.sol\":4024:4045  _balances[msg.sender] */\n      0x20\n      mstore\n      0x40\n      dup2\n      keccak256\n        /* \"StakingPool/CDPStakingPool.sol\":4024:4055  _balances[msg.sender] += amount */\n      dup1\n      sload\n        /* \"StakingPool/CDPStakingPool.sol\":4049:4055  amount */\n      dup6\n      swap3\n        /* \"StakingPool/CDPStakingPool.sol\":4024:4045  _balances[msg.sender] */\n      swap1\n        /* \"StakingPool/CDPStakingPool.sol\":4024:4055  _balances[msg.sender] += amount */\n      tag_138\n      swap1\n        /* \"StakingPool/CDPStakingPool.sol\":4049:4055  amount */\n      dup5\n      swap1\n        /* \"StakingPool/CDPStakingPool.sol\":4024:4055  _balances[msg.sender] += amount */\n      tag_86\n      jump\t// in\n    tag_138:\n      swap1\n      swap2\n      sstore\n      pop\n      pop\n        /* \"StakingPool/CDPStakingPool.sol\":4065:4067  lp */\n      sload(0x01)\n        /* \"StakingPool/CDPStakingPool.sol\":4065:4115  lp.transferFrom(msg.sender, address(this), amount) */\n      mload(0x40)\n      shl(0xe0, 0x23b872dd)\n      dup2\n      mstore\n        /* \"StakingPool/CDPStakingPool.sol\":4081:4091  msg.sender */\n      caller\n        /* \"StakingPool/CDPStakingPool.sol\":4065:4115  lp.transferFrom(msg.sender, address(this), amount) */\n      0x04\n      dup3\n      add\n        /* \"#utility.yul\":4355:4389   */\n      mstore\n        /* \"StakingPool/CDPStakingPool.sol\":4101:4105  this */\n      address\n        /* \"#utility.yul\":4405:4423   */\n      0x24\n      dup3\n      add\n        /* \"#utility.yul\":4398:4441   */\n      mstore\n        /* \"#utility.yul\":4457:4475   */\n      0x44\n      dup2\n      add\n        /* \"#utility.yul\":4450:4484   */\n      dup6\n      swap1\n      mstore\n      sub(shl(0xa0, 0x01), 0x01)\n        /* \"StakingPool/CDPStakingPool.sol\":4065:4067  lp */\n      swap1\n      swap2\n      and\n      swap1\n        /* \"StakingPool/CDPStakingPool.sol\":4065:4080  lp.transferFrom */\n      0x23b872dd\n      swap1\n        /* \"#utility.yul\":4290:4308   */\n      0x64\n      add\n        /* \"StakingPool/CDPStakingPool.sol\":4065:4115  lp.transferFrom(msg.sender, address(this), amount) */\n      0x20\n      mload(0x40)\n      dup1\n      dup4\n      sub\n      dup2\n      0x00\n      dup8\n      gas\n      call\n      iszero\n      dup1\n      iszero\n      tag_142\n      jumpi\n      returndatasize\n      0x00\n      dup1\n      returndatacopy\n      revert(0x00, returndatasize)\n    tag_142:\n      pop\n      pop\n      pop\n      pop\n      mload(0x40)\n      returndatasize\n      not(0x1f)\n      0x1f\n      dup3\n      add\n      and\n      dup3\n      add\n      dup1\n      0x40\n      mstore\n      pop\n      dup2\n      add\n      swap1\n      tag_143\n      swap2\n      swap1\n      tag_113\n      jump\t// in\n    tag_143:\n      pop\n        /* \"StakingPool/CDPStakingPool.sol\":4130:4156  Staked(msg.sender, amount) */\n      mload(0x40)\n        /* \"#utility.yul\":451:476   */\n      dup4\n      dup2\n      mstore\n        /* \"StakingPool/CDPStakingPool.sol\":4137:4147  msg.sender */\n      caller\n      swap1\n        /* \"StakingPool/CDPStakingPool.sol\":4130:4156  Staked(msg.sender, amount) */\n      0x9e71bc8eea02a63969f509818f2dafb9254532904319f9dbda79b67bd34a5f3d\n      swap1\n        /* \"#utility.yul\":439:441   */\n      0x20\n        /* \"#utility.yul\":424:442   */\n      add\n        /* \"StakingPool/CDPStakingPool.sol\":4130:4156  Staked(msg.sender, amount) */\n      mload(0x40)\n      dup1\n      swap2\n      sub\n      swap1\n      log2\n        /* \"StakingPool/CDPStakingPool.sol\":3794:4163  {... */\n      pop\n        /* \"StakingPool/CDPStakingPool.sol\":3686:3687  _ */\n      pop\n        /* \"StakingPool/CDPStakingPool.sol\":3720:4163  function stake(uint256 amount) public checkStart updateReward(msg.sender) {... */\n      pop\n      jump\t// out\n        /* \"StakingPool/CDPStakingPool.sol\":4494:4817  function withdrawn(uint256 amount) public checkStart updateReward(msg.sender) {... */\n    tag_73:\n        /* \"StakingPool/CDPStakingPool.sol\":3653:3662  startTime */\n      sload(0x05)\n        /* \"StakingPool/CDPStakingPool.sol\":3635:3650  block.timestamp */\n      timestamp\n        /* \"StakingPool/CDPStakingPool.sol\":3635:3662  block.timestamp > startTime */\n      gt\n        /* \"StakingPool/CDPStakingPool.sol\":3627:3676  require(block.timestamp > startTime, \"not start\") */\n      tag_146\n      jumpi\n      mload(0x40)\n      shl(0xe5, 0x461bcd)\n      dup2\n      mstore\n      0x04\n      add\n      tag_97\n      swap1\n      tag_98\n      jump\t// in\n    tag_146:\n        /* \"StakingPool/CDPStakingPool.sol\":4560:4570  msg.sender */\n      caller\n        /* \"StakingPool/CDPStakingPool.sol\":3217:3239  getNowPerTokenReward() */\n      tag_149\n        /* \"StakingPool/CDPStakingPool.sol\":3217:3237  getNowPerTokenReward */\n      tag_36\n        /* \"StakingPool/CDPStakingPool.sol\":3217:3239  getNowPerTokenReward() */\n      jump\t// in\n    tag_149:\n        /* \"StakingPool/CDPStakingPool.sol\":3194:3214  perTokenRewardStored */\n      0x04\n        /* \"StakingPool/CDPStakingPool.sol\":3194:3239  perTokenRewardStored = getNowPerTokenReward() */\n      sstore\n        /* \"StakingPool/CDPStakingPool.sol\":3296:3311  block.timestamp */\n      timestamp\n        /* \"StakingPool/CDPStakingPool.sol\":3279:3293  lastUpdateTime */\n      0x03\n        /* \"StakingPool/CDPStakingPool.sol\":3279:3311  lastUpdateTime = block.timestamp */\n      sstore\n      sub(shl(0xa0, 0x01), 0x01)\n        /* \"StakingPool/CDPStakingPool.sol\":3325:3343  user != address(0) */\n      dup2\n      and\n      iszero\n        /* \"StakingPool/CDPStakingPool.sol\":3321:3537  if (user != address(0)) {... */\n      tag_150\n      jumpi\n        /* \"StakingPool/CDPStakingPool.sol\":3408:3420  earned(user) */\n      tag_151\n        /* \"StakingPool/CDPStakingPool.sol\":3415:3419  user */\n      dup2\n        /* \"StakingPool/CDPStakingPool.sol\":3408:3414  earned */\n      tag_25\n        /* \"StakingPool/CDPStakingPool.sol\":3408:3420  earned(user) */\n      jump\t// in\n    tag_151:\n      sub(shl(0xa0, 0x01), 0x01)\n        /* \"StakingPool/CDPStakingPool.sol\":3392:3405  rewards[user] */\n      dup3\n      and\n      0x00\n      swap1\n      dup2\n      mstore\n        /* \"StakingPool/CDPStakingPool.sol\":3392:3399  rewards */\n      0x07\n        /* \"StakingPool/CDPStakingPool.sol\":3392:3405  rewards[user] */\n      0x20\n      swap1\n      dup2\n      mstore\n      0x40\n      dup1\n      dup4\n      keccak256\n        /* \"StakingPool/CDPStakingPool.sol\":3392:3420  rewards[user] = earned(user) */\n      swap4\n      swap1\n      swap4\n      sstore\n        /* \"StakingPool/CDPStakingPool.sol\":3506:3526  perTokenRewardStored */\n      sload(0x04)\n        /* \"StakingPool/CDPStakingPool.sol\":3470:3497  perTokenRewardStoredForUser */\n      0x06\n        /* \"StakingPool/CDPStakingPool.sol\":3470:3503  perTokenRewardStoredForUser[user] */\n      swap1\n      swap2\n      mstore\n      swap2\n      swap1\n      keccak256\n        /* \"StakingPool/CDPStakingPool.sol\":3470:3526  perTokenRewardStoredForUser[user] = perTokenRewardStored */\n      sstore\n        /* \"StakingPool/CDPStakingPool.sol\":3321:3537  if (user != address(0)) {... */\n    tag_150:\n        /* \"StakingPool/CDPStakingPool.sol\":4599:4600  0 */\n      0x00\n        /* \"StakingPool/CDPStakingPool.sol\":4590:4596  amount */\n      dup3\n        /* \"StakingPool/CDPStakingPool.sol\":4590:4600  amount > 0 */\n      gt\n        /* \"StakingPool/CDPStakingPool.sol\":4590:4635  amount > 0 && amount <= _balances[msg.sender] */\n      dup1\n      iszero\n      tag_153\n      jumpi\n      pop\n        /* \"StakingPool/CDPStakingPool.sol\":4624:4634  msg.sender */\n      caller\n        /* \"StakingPool/CDPStakingPool.sol\":4614:4635  _balances[msg.sender] */\n      0x00\n      swap1\n      dup2\n      mstore\n        /* \"StakingPool/CDPStakingPool.sol\":4614:4623  _balances */\n      0x09\n        /* \"StakingPool/CDPStakingPool.sol\":4614:4635  _balances[msg.sender] */\n      0x20\n      mstore\n      0x40\n      swap1\n      keccak256\n      sload\n        /* \"StakingPool/CDPStakingPool.sol\":4604:4635  amount <= _balances[msg.sender] */\n      dup3\n      gt\n      iszero\n        /* \"StakingPool/CDPStakingPool.sol\":4590:4635  amount > 0 && amount <= _balances[msg.sender] */\n    tag_153:\n        /* \"StakingPool/CDPStakingPool.sol\":4582:4652  require(amount > 0 && amount <= _balances[msg.sender], \"amount error\") */\n      tag_154\n      jumpi\n      mload(0x40)\n      shl(0xe5, 0x461bcd)\n      dup2\n      mstore\n        /* \"#utility.yul\":4697:4699   */\n      0x20\n        /* \"StakingPool/CDPStakingPool.sol\":4582:4652  require(amount > 0 && amount <= _balances[msg.sender], \"amount error\") */\n      0x04\n      dup3\n      add\n        /* \"#utility.yul\":4679:4700   */\n      mstore\n        /* \"#utility.yul\":4736:4738   */\n      0x0c\n        /* \"#utility.yul\":4716:4734   */\n      0x24\n      dup3\n      add\n        /* \"#utility.yul\":4709:4739   */\n      mstore\n      shl(0xa1, 0x30b6b7bab73a1032b93937b9)\n        /* \"#utility.yul\":4755:4773   */\n      0x44\n      dup3\n      add\n        /* \"#utility.yul\":4748:4790   */\n      mstore\n        /* \"#utility.yul\":4807:4825   */\n      0x64\n      add\n        /* \"StakingPool/CDPStakingPool.sol\":4582:4652  require(amount > 0 && amount <= _balances[msg.sender], \"amount error\") */\n      tag_97\n        /* \"#utility.yul\":4495:4831   */\n      jump\n        /* \"StakingPool/CDPStakingPool.sol\":4582:4652  require(amount > 0 && amount <= _balances[msg.sender], \"amount error\") */\n    tag_154:\n        /* \"StakingPool/CDPStakingPool.sol\":4672:4682  msg.sender */\n      caller\n        /* \"StakingPool/CDPStakingPool.sol\":4662:4683  _balances[msg.sender] */\n      0x00\n      swap1\n      dup2\n      mstore\n        /* \"StakingPool/CDPStakingPool.sol\":4662:4671  _balances */\n      0x09\n        /* \"StakingPool/CDPStakingPool.sol\":4662:4683  _balances[msg.sender] */\n      0x20\n      mstore\n      0x40\n      dup2\n      keccak256\n        /* \"StakingPool/CDPStakingPool.sol\":4662:4693  _balances[msg.sender] -= amount */\n      dup1\n      sload\n        /* \"StakingPool/CDPStakingPool.sol\":4687:4693  amount */\n      dup5\n      swap3\n        /* \"StakingPool/CDPStakingPool.sol\":4662:4683  _balances[msg.sender] */\n      swap1\n        /* \"StakingPool/CDPStakingPool.sol\":4662:4693  _balances[msg.sender] -= amount */\n      tag_157\n      swap1\n        /* \"StakingPool/CDPStakingPool.sol\":4687:4693  amount */\n      dup5\n      swap1\n        /* \"StakingPool/CDPStakingPool.sol\":4662:4693  _balances[msg.sender] -= amount */\n      tag_80\n      jump\t// in\n    tag_157:\n      swap3\n      pop\n      pop\n      dup2\n      swap1\n      sstore\n      pop\n        /* \"StakingPool/CDPStakingPool.sol\":4719:4725  amount */\n      dup2\n        /* \"StakingPool/CDPStakingPool.sol\":4703:4715  _totalSupply */\n      0x08\n      0x00\n        /* \"StakingPool/CDPStakingPool.sol\":4703:4725  _totalSupply -= amount */\n      dup3\n      dup3\n      sload\n      tag_158\n      swap2\n      swap1\n      tag_80\n      jump\t// in\n    tag_158:\n      swap1\n      swap2\n      sstore\n      pop\n      pop\n        /* \"StakingPool/CDPStakingPool.sol\":4735:4737  lp */\n      sload(0x01)\n        /* \"StakingPool/CDPStakingPool.sol\":4735:4766  lp.transfer(msg.sender, amount) */\n      mload(0x40)\n      shl(0xe0, 0xa9059cbb)\n      dup2\n      mstore\n        /* \"StakingPool/CDPStakingPool.sol\":4747:4757  msg.sender */\n      caller\n        /* \"StakingPool/CDPStakingPool.sol\":4735:4766  lp.transfer(msg.sender, amount) */\n      0x04\n      dup3\n      add\n        /* \"#utility.yul\":2531:2582   */\n      mstore\n        /* \"#utility.yul\":2598:2616   */\n      0x24\n      dup2\n      add\n        /* \"#utility.yul\":2591:2625   */\n      dup5\n      swap1\n      mstore\n      sub(shl(0xa0, 0x01), 0x01)\n        /* \"StakingPool/CDPStakingPool.sol\":4735:4737  lp */\n      swap1\n      swap2\n      and\n      swap1\n        /* \"StakingPool/CDPStakingPool.sol\":4735:4746  lp.transfer */\n      0xa9059cbb\n      swap1\n        /* \"#utility.yul\":2504:2522   */\n      0x44\n      add\n        /* \"StakingPool/CDPStakingPool.sol\":4735:4766  lp.transfer(msg.sender, amount) */\n      0x20\n      mload(0x40)\n      dup1\n      dup4\n      sub\n      dup2\n      0x00\n      dup8\n      gas\n      call\n      iszero\n      dup1\n      iszero\n      tag_161\n      jumpi\n      returndatasize\n      0x00\n      dup1\n      returndatacopy\n      revert(0x00, returndatasize)\n    tag_161:\n      pop\n      pop\n      pop\n      pop\n      mload(0x40)\n      returndatasize\n      not(0x1f)\n      0x1f\n      dup3\n      add\n      and\n      dup3\n      add\n      dup1\n      0x40\n      mstore\n      pop\n      dup2\n      add\n      swap1\n      tag_162\n      swap2\n      swap1\n      tag_113\n      jump\t// in\n    tag_162:\n      pop\n        /* \"StakingPool/CDPStakingPool.sol\":4781:4810  Withdrawn(msg.sender, amount) */\n      mload(0x40)\n        /* \"#utility.yul\":451:476   */\n      dup3\n      dup2\n      mstore\n        /* \"StakingPool/CDPStakingPool.sol\":4791:4801  msg.sender */\n      caller\n      swap1\n        /* \"StakingPool/CDPStakingPool.sol\":4781:4810  Withdrawn(msg.sender, amount) */\n      0x7084f5476618d8e60b11ef0d7d3f06914655adb8793e28ff7f018d4c76d505d5\n      swap1\n        /* \"#utility.yul\":439:441   */\n      0x20\n        /* \"#utility.yul\":424:442   */\n      add\n        /* \"StakingPool/CDPStakingPool.sol\":4781:4810  Withdrawn(msg.sender, amount) */\n      tag_114\n        /* \"#utility.yul\":305:482   */\n      jump\n        /* \"#utility.yul\":14:300   */\n    tag_24:\n        /* \"#utility.yul\":73:79   */\n      0x00\n        /* \"#utility.yul\":126:128   */\n      0x20\n        /* \"#utility.yul\":114:123   */\n      dup3\n        /* \"#utility.yul\":105:112   */\n      dup5\n        /* \"#utility.yul\":101:124   */\n      sub\n        /* \"#utility.yul\":97:129   */\n      slt\n        /* \"#utility.yul\":94:146   */\n      iszero\n      tag_167\n      jumpi\n        /* \"#utility.yul\":142:143   */\n      0x00\n        /* \"#utility.yul\":139:140   */\n      dup1\n        /* \"#utility.yul\":132:144   */\n      revert\n        /* \"#utility.yul\":94:146   */\n    tag_167:\n        /* \"#utility.yul\":168:191   */\n      dup2\n      calldataload\n      sub(shl(0xa0, 0x01), 0x01)\n        /* \"#utility.yul\":220:251   */\n      dup2\n      and\n        /* \"#utility.yul\":210:252   */\n      dup2\n      eq\n        /* \"#utility.yul\":200:270   */\n      tag_168\n      jumpi\n        /* \"#utility.yul\":266:267   */\n      0x00\n        /* \"#utility.yul\":263:264   */\n      dup1\n        /* \"#utility.yul\":256:268   */\n      revert\n        /* \"#utility.yul\":200:270   */\n    tag_168:\n        /* \"#utility.yul\":289:294   */\n      swap4\n        /* \"#utility.yul\":14:300   */\n      swap3\n      pop\n      pop\n      pop\n      jump\t// out\n        /* \"#utility.yul\":708:888   */\n    tag_62:\n        /* \"#utility.yul\":767:773   */\n      0x00\n        /* \"#utility.yul\":820:822   */\n      0x20\n        /* \"#utility.yul\":808:817   */\n      dup3\n        /* \"#utility.yul\":799:806   */\n      dup5\n        /* \"#utility.yul\":795:818   */\n      sub\n        /* \"#utility.yul\":791:823   */\n      slt\n        /* \"#utility.yul\":788:840   */\n      iszero\n      tag_172\n      jumpi\n        /* \"#utility.yul\":836:837   */\n      0x00\n        /* \"#utility.yul\":833:834   */\n      dup1\n        /* \"#utility.yul\":826:838   */\n      revert\n        /* \"#utility.yul\":788:840   */\n    tag_172:\n      pop\n        /* \"#utility.yul\":859:882   */\n      calldataload\n      swap2\n        /* \"#utility.yul\":708:888   */\n      swap1\n      pop\n      jump\t// out\n        /* \"#utility.yul\":893:1020   */\n    tag_164:\n        /* \"#utility.yul\":954:964   */\n      0x4e487b71\n        /* \"#utility.yul\":949:952   */\n      0xe0\n        /* \"#utility.yul\":945:965   */\n      shl\n        /* \"#utility.yul\":942:943   */\n      0x00\n        /* \"#utility.yul\":935:966   */\n      mstore\n        /* \"#utility.yul\":985:989   */\n      0x11\n        /* \"#utility.yul\":982:983   */\n      0x04\n        /* \"#utility.yul\":975:990   */\n      mstore\n        /* \"#utility.yul\":1009:1013   */\n      0x24\n        /* \"#utility.yul\":1006:1007   */\n      0x00\n        /* \"#utility.yul\":999:1014   */\n      revert\n        /* \"#utility.yul\":1025:1153   */\n    tag_80:\n        /* \"#utility.yul\":1092:1101   */\n      dup2\n      dup2\n      sub\n        /* \"#utility.yul\":1113:1124   */\n      dup2\n      dup2\n      gt\n        /* \"#utility.yul\":1110:1147   */\n      iszero\n      tag_176\n      jumpi\n        /* \"#utility.yul\":1127:1145   */\n      tag_176\n      tag_164\n      jump\t// in\n    tag_176:\n        /* \"#utility.yul\":1025:1153   */\n      swap3\n      swap2\n      pop\n      pop\n      jump\t// out\n        /* \"#utility.yul\":1158:1326   */\n    tag_82:\n        /* \"#utility.yul\":1231:1240   */\n      dup1\n      dup3\n      mul\n        /* \"#utility.yul\":1262:1271   */\n      dup2\n      iszero\n        /* \"#utility.yul\":1279:1294   */\n      dup3\n      dup3\n      div\n        /* \"#utility.yul\":1273:1295   */\n      dup5\n      eq\n        /* \"#utility.yul\":1259:1296   */\n      or\n        /* \"#utility.yul\":1249:1320   */\n      tag_176\n      jumpi\n        /* \"#utility.yul\":1300:1318   */\n      tag_176\n      tag_164\n      jump\t// in\n        /* \"#utility.yul\":1331:1548   */\n    tag_84:\n        /* \"#utility.yul\":1371:1372   */\n      0x00\n        /* \"#utility.yul\":1397:1398   */\n      dup3\n        /* \"#utility.yul\":1387:1519   */\n      tag_181\n      jumpi\n        /* \"#utility.yul\":1441:1451   */\n      0x4e487b71\n        /* \"#utility.yul\":1436:1439   */\n      0xe0\n        /* \"#utility.yul\":1432:1452   */\n      shl\n        /* \"#utility.yul\":1429:1430   */\n      0x00\n        /* \"#utility.yul\":1422:1453   */\n      mstore\n        /* \"#utility.yul\":1476:1480   */\n      0x12\n        /* \"#utility.yul\":1473:1474   */\n      0x04\n        /* \"#utility.yul\":1466:1481   */\n      mstore\n        /* \"#utility.yul\":1504:1508   */\n      0x24\n        /* \"#utility.yul\":1501:1502   */\n      0x00\n        /* \"#utility.yul\":1494:1509   */\n      revert\n        /* \"#utility.yul\":1387:1519   */\n    tag_181:\n      pop\n        /* \"#utility.yul\":1533:1542   */\n      div\n      swap1\n        /* \"#utility.yul\":1331:1548   */\n      jump\t// out\n        /* \"#utility.yul\":1553:1678   */\n    tag_86:\n        /* \"#utility.yul\":1618:1627   */\n      dup1\n      dup3\n      add\n        /* \"#utility.yul\":1639:1649   */\n      dup1\n      dup3\n      gt\n        /* \"#utility.yul\":1636:1672   */\n      iszero\n      tag_176\n      jumpi\n        /* \"#utility.yul\":1652:1670   */\n      tag_176\n      tag_164\n      jump\t// in\n        /* \"#utility.yul\":1683:2015   */\n    tag_98:\n        /* \"#utility.yul\":1885:1887   */\n      0x20\n        /* \"#utility.yul\":1867:1888   */\n      dup1\n      dup3\n      mstore\n        /* \"#utility.yul\":1924:1925   */\n      0x09\n        /* \"#utility.yul\":1904:1922   */\n      swap1\n      dup3\n      add\n        /* \"#utility.yul\":1897:1926   */\n      mstore\n      shl(0xba, 0x1b9bdd081cdd185c9d)\n        /* \"#utility.yul\":1957:1959   */\n      0x40\n        /* \"#utility.yul\":1942:1960   */\n      dup3\n      add\n        /* \"#utility.yul\":1935:1974   */\n      mstore\n        /* \"#utility.yul\":2006:2008   */\n      0x60\n        /* \"#utility.yul\":1991:2009   */\n      add\n      swap1\n        /* \"#utility.yul\":1683:2015   */\n      jump\t// out\n        /* \"#utility.yul\":2636:2913   */\n    tag_113:\n        /* \"#utility.yul\":2703:2709   */\n      0x00\n        /* \"#utility.yul\":2756:2758   */\n      0x20\n        /* \"#utility.yul\":2744:2753   */\n      dup3\n        /* \"#utility.yul\":2735:2742   */\n      dup5\n        /* \"#utility.yul\":2731:2754   */\n      sub\n        /* \"#utility.yul\":2727:2759   */\n      slt\n        /* \"#utility.yul\":2724:2776   */\n      iszero\n      tag_189\n      jumpi\n        /* \"#utility.yul\":2772:2773   */\n      0x00\n        /* \"#utility.yul\":2769:2770   */\n      dup1\n        /* \"#utility.yul\":2762:2774   */\n      revert\n        /* \"#utility.yul\":2724:2776   */\n    tag_189:\n        /* \"#utility.yul\":2804:2813   */\n      dup2\n        /* \"#utility.yul\":2798:2814   */\n      mload\n        /* \"#utility.yul\":2857:2862   */\n      dup1\n        /* \"#utility.yul\":2850:2863   */\n      iszero\n        /* \"#utility.yul\":2843:2864   */\n      iszero\n        /* \"#utility.yul\":2836:2841   */\n      dup2\n        /* \"#utility.yul\":2833:2865   */\n      eq\n        /* \"#utility.yul\":2823:2883   */\n      tag_168\n      jumpi\n        /* \"#utility.yul\":2879:2880   */\n      0x00\n        /* \"#utility.yul\":2876:2877   */\n      dup1\n        /* \"#utility.yul\":2869:2881   */\n      revert\n        /* \"#utility.yul\":3571:3755   */\n    tag_133:\n        /* \"#utility.yul\":3641:3647   */\n      0x00\n        /* \"#utility.yul\":3694:3696   */\n      0x20\n        /* \"#utility.yul\":3682:3691   */\n      dup3\n        /* \"#utility.yul\":3673:3680   */\n      dup5\n        /* \"#utility.yul\":3669:3692   */\n      sub\n        /* \"#utility.yul\":3665:3697   */\n      slt\n        /* \"#utility.yul\":3662:3714   */\n      iszero\n      tag_194\n      jumpi\n        /* \"#utility.yul\":3710:3711   */\n      0x00\n        /* \"#utility.yul\":3707:3708   */\n      dup1\n        /* \"#utility.yul\":3700:3712   */\n      revert\n        /* \"#utility.yul\":3662:3714   */\n    tag_194:\n      pop\n        /* \"#utility.yul\":3733:3749   */\n      mload\n      swap2\n        /* \"#utility.yul\":3571:3755   */\n      swap1\n      pop\n      jump\t// out\n\n    auxdata: 0xa2646970667358221220d08e14896c6c99013804629a0142ad9f3a63ed80c0ddb5bb63883871d0f4238a64736f6c63430008130033\n}\n",
				"bytecode": {
					"linkReferences": {},
					"object": "6080604052670de0b6b3a764000060025534801561001c57600080fd5b50604051610aee380380610aee83398101604081905261003b9161008c565b600180546001600160a01b039384166001600160a01b03199182161790915560008054929093169116179055426005556100bf565b80516001600160a01b038116811461008757600080fd5b919050565b6000806040838503121561009f57600080fd5b6100a883610070565b91506100b660208401610070565b90509250929050565b610a20806100ce6000396000f3fe608060405234801561001057600080fd5b50600436106100ff5760003560e01c80637b0a47ee11610097578063a83526a311610066578063a83526a3146101ec578063c8f33c911461020c578063e6b43d0114610215578063fc0c546a1461022857600080fd5b80637b0a47ee146101c15780638319d26a146101ca5780639b819d38146101d3578063a694fc3a146101d957600080fd5b8063313c06a0116100d3578063313c06a01461015a5780633d18b9121461018557806370a082311461018f57806378e97925146101b857600080fd5b80628cc262146101045780630700037d1461012a57806318160ddd1461014a5780631b58638d14610152575b600080fd5b6101176101123660046108c8565b61023b565b6040519081526020015b60405180910390f35b6101176101383660046108c8565b60076020526000908152604090205481565b600854610117565b6101176102c0565b60015461016d906001600160a01b031681565b6040516001600160a01b039091168152602001610121565b61018d61031f565b005b61011761019d3660046108c8565b6001600160a01b031660009081526009602052604090205490565b61011760055481565b61011760025481565b61011760045481565b42610117565b61018d6101e73660046108f8565b6104a7565b6101176101fa3660046108c8565b60066020526000908152604090205481565b61011760035481565b61018d6102233660046108f8565b610714565b60005461016d906001600160a01b031681565b6001600160a01b03811660009081526009602090815260408083205460069092528220548290670de0b6b3a7640000906102736102c0565b61027d9190610927565b6102879084610940565b6102919190610957565b6001600160a01b0385166000908152600760205260409020549091506102b78183610979565b95945050505050565b60006008546000036102d3575060045490565b60006003546102df4290565b6102e99190610927565b90506000600854600254836102fe9190610940565b6103089190610957565b9050806004546103189190610979565b9250505090565b60055442116103495760405162461bcd60e51b81526004016103409061098c565b60405180910390fd5b336103526102c0565b600455426003556001600160a01b0381161561039d576103718161023b565b6001600160a01b0382166000908152600760209081526040808320939093556004546006909152919020555b60006103a83361023b565b9050600081116103e65760405162461bcd60e51b81526020600482015260096024820152681b9bc81c995dd85c9960ba1b6044820152606401610340565b336000818152600760205260408082208290559054905163a9059cbb60e01b81526004810192909252602482018390526001600160a01b03169063a9059cbb906044016020604051808303816000875af1158015610448573d6000803e3d6000fd5b505050506040513d601f19601f8201168201806040525081019061046c91906109af565b5060405181815233907f25c30c62c42b51e4f667b70ef60f1f683c376f6ace28312ed45a40665e01af37906020015b60405180910390a25050565b60055442116104c85760405162461bcd60e51b81526004016103409061098c565b336104d16102c0565b600455426003556001600160a01b0381161561051c576104f08161023b565b6001600160a01b0382166000908152600760209081526040808320939093556004546006909152919020555b6000821161055e5760405162461bcd60e51b815260206004820152600f60248201526e0616d6f756e74206e656564203e203608c1b6044820152606401610340565b600154604051636eb1769f60e11b81523360048201523060248201526000916001600160a01b03169063dd62ed3e90604401602060405180830381865afa1580156105ad573d6000803e3d6000fd5b505050506040513d601f19601f820116820180604052508101906105d191906109d1565b9050828110156106235760405162461bcd60e51b815260206004820152601a60248201527f616c6c6f77616e636520636f756e74206e6f7420656e6f7567680000000000006044820152606401610340565b82600860008282546106359190610979565b90915550503360009081526009602052604081208054859290610659908490610979565b90915550506001546040516323b872dd60e01b8152336004820152306024820152604481018590526001600160a01b03909116906323b872dd906064016020604051808303816000875af11580156106b5573d6000803e3d6000fd5b505050506040513d601f19601f820116820180604052508101906106d991906109af565b5060405183815233907f9e71bc8eea02a63969f509818f2dafb9254532904319f9dbda79b67bd34a5f3d9060200160405180910390a2505050565b60055442116107355760405162461bcd60e51b81526004016103409061098c565b3361073e6102c0565b600455426003556001600160a01b038116156107895761075d8161023b565b6001600160a01b0382166000908152600760209081526040808320939093556004546006909152919020555b6000821180156107a85750336000908152600960205260409020548211155b6107e35760405162461bcd60e51b815260206004820152600c60248201526b30b6b7bab73a1032b93937b960a11b6044820152606401610340565b3360009081526009602052604081208054849290610802908490610927565b92505081905550816008600082825461081b9190610927565b909155505060015460405163a9059cbb60e01b8152336004820152602481018490526001600160a01b039091169063a9059cbb906044016020604051808303816000875af1158015610871573d6000803e3d6000fd5b505050506040513d601f19601f8201168201806040525081019061089591906109af565b5060405182815233907f7084f5476618d8e60b11ef0d7d3f06914655adb8793e28ff7f018d4c76d505d59060200161049b565b6000602082840312156108da57600080fd5b81356001600160a01b03811681146108f157600080fd5b9392505050565b60006020828403121561090a57600080fd5b5035919050565b634e487b7160e01b600052601160045260246000fd5b8181038181111561093a5761093a610911565b92915050565b808202811582820484141761093a5761093a610911565b60008261097457634e487b7160e01b600052601260045260246000fd5b500490565b8082018082111561093a5761093a610911565b6020808252600990820152681b9bdd081cdd185c9d60ba1b604082015260600190565b6000602082840312156109c157600080fd5b815180151581146108f157600080fd5b6000602082840312156109e357600080fd5b505191905056fea2646970667358221220d08e14896c6c99013804629a0142ad9f3a63ed80c0ddb5bb63883871d0f4238a64736f6c63430008130033",
					"opcodes": "PUSH1 0x80 PUSH1 0x40 MSTORE PUSH8 0xDE0B6B3A7640000 PUSH1 0x2 SSTORE CALLVALUE DUP1 ISZERO PUSH2 0x1C JUMPI PUSH1 0x0 DUP1 REVERT JUMPDEST POP PUSH1 0x40 MLOAD PUSH2 0xAEE CODESIZE SUB DUP1 PUSH2 0xAEE DUP4 CODECOPY DUP2 ADD PUSH1 0x40 DUP2 SWAP1 MSTORE PUSH2 0x3B SWAP2 PUSH2 0x8C JUMP JUMPDEST PUSH1 0x1 DUP1 SLOAD PUSH1 0x1 PUSH1 0x1 PUSH1 0xA0 SHL SUB SWAP4 DUP5 AND PUSH1 0x1 PUSH1 0x1 PUSH1 0xA0 SHL SUB NOT SWAP2 DUP3 AND OR SWAP1 SWAP2 SSTORE PUSH1 0x0 DUP1 SLOAD SWAP3 SWAP1 SWAP4 AND SWAP2 AND OR SWAP1 SSTORE TIMESTAMP PUSH1 0x5 SSTORE PUSH2 0xBF JUMP JUMPDEST DUP1 MLOAD PUSH1 0x1 PUSH1 0x1 PUSH1 0xA0 SHL SUB DUP2 AND DUP2 EQ PUSH2 0x87 JUMPI PUSH1 0x0 DUP1 REVERT JUMPDEST SWAP2 SWAP1 POP JUMP JUMPDEST PUSH1 0x0 DUP1 PUSH1 0x40 DUP4 DUP6 SUB SLT ISZERO PUSH2 0x9F JUMPI PUSH1 0x0 DUP1 REVERT JUMPDEST PUSH2 0xA8 DUP4 PUSH2 0x70 JUMP JUMPDEST SWAP2 POP PUSH2 0xB6 PUSH1 0x20 DUP5 ADD PUSH2 0x70 JUMP JUMPDEST SWAP1 POP SWAP3 POP SWAP3 SWAP1 POP JUMP JUMPDEST PUSH2 0xA20 DUP1 PUSH2 0xCE PUSH1 0x0 CODECOPY PUSH1 0x0 RETURN INVALID PUSH1 0x80 PUSH1 0x40 MSTORE CALLVALUE DUP1 ISZERO PUSH2 0x10 JUMPI PUSH1 0x0 DUP1 REVERT JUMPDEST POP PUSH1 0x4 CALLDATASIZE LT PUSH2 0xFF JUMPI PUSH1 0x0 CALLDATALOAD PUSH1 0xE0 SHR DUP1 PUSH4 0x7B0A47EE GT PUSH2 0x97 JUMPI DUP1 PUSH4 0xA83526A3 GT PUSH2 0x66 JUMPI DUP1 PUSH4 0xA83526A3 EQ PUSH2 0x1EC JUMPI DUP1 PUSH4 0xC8F33C91 EQ PUSH2 0x20C JUMPI DUP1 PUSH4 0xE6B43D01 EQ PUSH2 0x215 JUMPI DUP1 PUSH4 0xFC0C546A EQ PUSH2 0x228 JUMPI PUSH1 0x0 DUP1 REVERT JUMPDEST DUP1 PUSH4 0x7B0A47EE EQ PUSH2 0x1C1 JUMPI DUP1 PUSH4 0x8319D26A EQ PUSH2 0x1CA JUMPI DUP1 PUSH4 0x9B819D38 EQ PUSH2 0x1D3 JUMPI DUP1 PUSH4 0xA694FC3A EQ PUSH2 0x1D9 JUMPI PUSH1 0x0 DUP1 REVERT JUMPDEST DUP1 PUSH4 0x313C06A0 GT PUSH2 0xD3 JUMPI DUP1 PUSH4 0x313C06A0 EQ PUSH2 0x15A JUMPI DUP1 PUSH4 0x3D18B912 EQ PUSH2 0x185 JUMPI DUP1 PUSH4 0x70A08231 EQ PUSH2 0x18F JUMPI DUP1 PUSH4 0x78E97925 EQ PUSH2 0x1B8 JUMPI PUSH1 0x0 DUP1 REVERT JUMPDEST DUP1 PUSH3 0x8CC262 EQ PUSH2 0x104 JUMPI DUP1 PUSH4 0x700037D EQ PUSH2 0x12A JUMPI DUP1 PUSH4 0x18160DDD EQ PUSH2 0x14A JUMPI DUP1 PUSH4 0x1B58638D EQ PUSH2 0x152 JUMPI JUMPDEST PUSH1 0x0 DUP1 REVERT JUMPDEST PUSH2 0x117 PUSH2 0x112 CALLDATASIZE PUSH1 0x4 PUSH2 0x8C8 JUMP JUMPDEST PUSH2 0x23B JUMP JUMPDEST PUSH1 0x40 MLOAD SWAP1 DUP2 MSTORE PUSH1 0x20 ADD JUMPDEST PUSH1 0x40 MLOAD DUP1 SWAP2 SUB SWAP1 RETURN JUMPDEST PUSH2 0x117 PUSH2 0x138 CALLDATASIZE PUSH1 0x4 PUSH2 0x8C8 JUMP JUMPDEST PUSH1 0x7 PUSH1 0x20 MSTORE PUSH1 0x0 SWAP1 DUP2 MSTORE PUSH1 0x40 SWAP1 KECCAK256 SLOAD DUP2 JUMP JUMPDEST PUSH1 0x8 SLOAD PUSH2 0x117 JUMP JUMPDEST PUSH2 0x117 PUSH2 0x2C0 JUMP JUMPDEST PUSH1 0x1 SLOAD PUSH2 0x16D SWAP1 PUSH1 0x1 PUSH1 0x1 PUSH1 0xA0 SHL SUB AND DUP2 JUMP JUMPDEST PUSH1 0x40 MLOAD PUSH1 0x1 PUSH1 0x1 PUSH1 0xA0 SHL SUB SWAP1 SWAP2 AND DUP2 MSTORE PUSH1 0x20 ADD PUSH2 0x121 JUMP JUMPDEST PUSH2 0x18D PUSH2 0x31F JUMP JUMPDEST STOP JUMPDEST PUSH2 0x117 PUSH2 0x19D CALLDATASIZE PUSH1 0x4 PUSH2 0x8C8 JUMP JUMPDEST PUSH1 0x1 PUSH1 0x1 PUSH1 0xA0 SHL SUB AND PUSH1 0x0 SWAP1 DUP2 MSTORE PUSH1 0x9 PUSH1 0x20 MSTORE PUSH1 0x40 SWAP1 KECCAK256 SLOAD SWAP1 JUMP JUMPDEST PUSH2 0x117 PUSH1 0x5 SLOAD DUP2 JUMP JUMPDEST PUSH2 0x117 PUSH1 0x2 SLOAD DUP2 JUMP JUMPDEST PUSH2 0x117 PUSH1 0x4 SLOAD DUP2 JUMP JUMPDEST TIMESTAMP PUSH2 0x117 JUMP JUMPDEST PUSH2 0x18D PUSH2 0x1E7 CALLDATASIZE PUSH1 0x4 PUSH2 0x8F8 JUMP JUMPDEST PUSH2 0x4A7 JUMP JUMPDEST PUSH2 0x117 PUSH2 0x1FA CALLDATASIZE PUSH1 0x4 PUSH2 0x8C8 JUMP JUMPDEST PUSH1 0x6 PUSH1 0x20 MSTORE PUSH1 0x0 SWAP1 DUP2 MSTORE PUSH1 0x40 SWAP1 KECCAK256 SLOAD DUP2 JUMP JUMPDEST PUSH2 0x117 PUSH1 0x3 SLOAD DUP2 JUMP JUMPDEST PUSH2 0x18D PUSH2 0x223 CALLDATASIZE PUSH1 0x4 PUSH2 0x8F8 JUMP JUMPDEST PUSH2 0x714 JUMP JUMPDEST PUSH1 0x0 SLOAD PUSH2 0x16D SWAP1 PUSH1 0x1 PUSH1 0x1 PUSH1 0xA0 SHL SUB AND DUP2 JUMP JUMPDEST PUSH1 0x1 PUSH1 0x1 PUSH1 0xA0 SHL SUB DUP2 AND PUSH1 0x0 SWAP1 DUP2 MSTORE PUSH1 0x9 PUSH1 0x20 SWAP1 DUP2 MSTORE PUSH1 0x40 DUP1 DUP4 KECCAK256 SLOAD PUSH1 0x6 SWAP1 SWAP3 MSTORE DUP3 KECCAK256 SLOAD DUP3 SWAP1 PUSH8 0xDE0B6B3A7640000 SWAP1 PUSH2 0x273 PUSH2 0x2C0 JUMP JUMPDEST PUSH2 0x27D SWAP2 SWAP1 PUSH2 0x927 JUMP JUMPDEST PUSH2 0x287 SWAP1 DUP5 PUSH2 0x940 JUMP JUMPDEST PUSH2 0x291 SWAP2 SWAP1 PUSH2 0x957 JUMP JUMPDEST PUSH1 0x1 PUSH1 0x1 PUSH1 0xA0 SHL SUB DUP6 AND PUSH1 0x0 SWAP1 DUP2 MSTORE PUSH1 0x7 PUSH1 0x20 MSTORE PUSH1 0x40 SWAP1 KECCAK256 SLOAD SWAP1 SWAP2 POP PUSH2 0x2B7 DUP2 DUP4 PUSH2 0x979 JUMP JUMPDEST SWAP6 SWAP5 POP POP POP POP POP JUMP JUMPDEST PUSH1 0x0 PUSH1 0x8 SLOAD PUSH1 0x0 SUB PUSH2 0x2D3 JUMPI POP PUSH1 0x4 SLOAD SWAP1 JUMP JUMPDEST PUSH1 0x0 PUSH1 0x3 SLOAD PUSH2 0x2DF TIMESTAMP SWAP1 JUMP JUMPDEST PUSH2 0x2E9 SWAP2 SWAP1 PUSH2 0x927 JUMP JUMPDEST SWAP1 POP PUSH1 0x0 PUSH1 0x8 SLOAD PUSH1 0x2 SLOAD DUP4 PUSH2 0x2FE SWAP2 SWAP1 PUSH2 0x940 JUMP JUMPDEST PUSH2 0x308 SWAP2 SWAP1 PUSH2 0x957 JUMP JUMPDEST SWAP1 POP DUP1 PUSH1 0x4 SLOAD PUSH2 0x318 SWAP2 SWAP1 PUSH2 0x979 JUMP JUMPDEST SWAP3 POP POP POP SWAP1 JUMP JUMPDEST PUSH1 0x5 SLOAD TIMESTAMP GT PUSH2 0x349 JUMPI PUSH1 0x40 MLOAD PUSH3 0x461BCD PUSH1 0xE5 SHL DUP2 MSTORE PUSH1 0x4 ADD PUSH2 0x340 SWAP1 PUSH2 0x98C JUMP JUMPDEST PUSH1 0x40 MLOAD DUP1 SWAP2 SUB SWAP1 REVERT JUMPDEST CALLER PUSH2 0x352 PUSH2 0x2C0 JUMP JUMPDEST PUSH1 0x4 SSTORE TIMESTAMP PUSH1 0x3 SSTORE PUSH1 0x1 PUSH1 0x1 PUSH1 0xA0 SHL SUB DUP2 AND ISZERO PUSH2 0x39D JUMPI PUSH2 0x371 DUP2 PUSH2 0x23B JUMP JUMPDEST PUSH1 0x1 PUSH1 0x1 PUSH1 0xA0 SHL SUB DUP3 AND PUSH1 0x0 SWAP1 DUP2 MSTORE PUSH1 0x7 PUSH1 0x20 SWAP1 DUP2 MSTORE PUSH1 0x40 DUP1 DUP4 KECCAK256 SWAP4 SWAP1 SWAP4 SSTORE PUSH1 0x4 SLOAD PUSH1 0x6 SWAP1 SWAP2 MSTORE SWAP2 SWAP1 KECCAK256 SSTORE JUMPDEST PUSH1 0x0 PUSH2 0x3A8 CALLER PUSH2 0x23B JUMP JUMPDEST SWAP1 POP PUSH1 0x0 DUP2 GT PUSH2 0x3E6 JUMPI PUSH1 0x40 MLOAD PUSH3 0x461BCD PUSH1 0xE5 SHL DUP2 MSTORE PUSH1 0x20 PUSH1 0x4 DUP3 ADD MSTORE PUSH1 0x9 PUSH1 0x24 DUP3 ADD MSTORE PUSH9 0x1B9BC81C995DD85C99 PUSH1 0xBA SHL PUSH1 0x44 DUP3 ADD MSTORE PUSH1 0x64 ADD PUSH2 0x340 JUMP JUMPDEST CALLER PUSH1 0x0 DUP2 DUP2 MSTORE PUSH1 0x7 PUSH1 0x20 MSTORE PUSH1 0x40 DUP1 DUP3 KECCAK256 DUP3 SWAP1 SSTORE SWAP1 SLOAD SWAP1 MLOAD PUSH4 0xA9059CBB PUSH1 0xE0 SHL DUP2 MSTORE PUSH1 0x4 DUP2 ADD SWAP3 SWAP1 SWAP3 MSTORE PUSH1 0x24 DUP3 ADD DUP4 SWAP1 MSTORE PUSH1 0x1 PUSH1 0x1 PUSH1 0xA0 SHL SUB AND SWAP1 PUSH4 0xA9059CBB SWAP1 PUSH1 0x44 ADD PUSH1 0x20 PUSH1 0x40 MLOAD DUP1 DUP4 SUB DUP2 PUSH1 0x0 DUP8 GAS CALL ISZERO DUP1 ISZERO PUSH2 0x448 JUMPI RETURNDATASIZE PUSH1 0x0 DUP1 RETURNDATACOPY RETURNDATASIZE PUSH1 0x0 REVERT JUMPDEST POP POP POP POP PUSH1 0x40 MLOAD RETURNDATASIZE PUSH1 0x1F NOT PUSH1 0x1F DUP3 ADD AND DUP3 ADD DUP1 PUSH1 0x40 MSTORE POP DUP2 ADD SWAP1 PUSH2 0x46C SWAP2 SWAP1 PUSH2 0x9AF JUMP JUMPDEST POP PUSH1 0x40 MLOAD DUP2 DUP2 MSTORE CALLER SWAP1 PUSH32 0x25C30C62C42B51E4F667B70EF60F1F683C376F6ACE28312ED45A40665E01AF37 SWAP1 PUSH1 0x20 ADD JUMPDEST PUSH1 0x40 MLOAD DUP1 SWAP2 SUB SWAP1 LOG2 POP POP JUMP JUMPDEST PUSH1 0x5 SLOAD TIMESTAMP GT PUSH2 0x4C8 JUMPI PUSH1 0x40 MLOAD PUSH3 0x461BCD PUSH1 0xE5 SHL DUP2 MSTORE PUSH1 0x4 ADD PUSH2 0x340 SWAP1 PUSH2 0x98C JUMP JUMPDEST CALLER PUSH2 0x4D1 PUSH2 0x2C0 JUMP JUMPDEST PUSH1 0x4 SSTORE TIMESTAMP PUSH1 0x3 SSTORE PUSH1 0x1 PUSH1 0x1 PUSH1 0xA0 SHL SUB DUP2 AND ISZERO PUSH2 0x51C JUMPI PUSH2 0x4F0 DUP2 PUSH2 0x23B JUMP JUMPDEST PUSH1 0x1 PUSH1 0x1 PUSH1 0xA0 SHL SUB DUP3 AND PUSH1 0x0 SWAP1 DUP2 MSTORE PUSH1 0x7 PUSH1 0x20 SWAP1 DUP2 MSTORE PUSH1 0x40 DUP1 DUP4 KECCAK256 SWAP4 SWAP1 SWAP4 SSTORE PUSH1 0x4 SLOAD PUSH1 0x6 SWAP1 SWAP2 MSTORE SWAP2 SWAP1 KECCAK256 SSTORE JUMPDEST PUSH1 0x0 DUP3 GT PUSH2 0x55E JUMPI PUSH1 0x40 MLOAD PUSH3 0x461BCD PUSH1 0xE5 SHL DUP2 MSTORE PUSH1 0x20 PUSH1 0x4 DUP3 ADD MSTORE PUSH1 0xF PUSH1 0x24 DUP3 ADD MSTORE PUSH15 0x616D6F756E74206E656564203E203 PUSH1 0x8C SHL PUSH1 0x44 DUP3 ADD MSTORE PUSH1 0x64 ADD PUSH2 0x340 JUMP JUMPDEST PUSH1 0x1 SLOAD PUSH1 0x40 MLOAD PUSH4 0x6EB1769F PUSH1 0xE1 SHL DUP2 MSTORE CALLER PUSH1 0x4 DUP3 ADD MSTORE ADDRESS PUSH1 0x24 DUP3 ADD MSTORE PUSH1 0x0 SWAP2 PUSH1 0x1 PUSH1 0x1 PUSH1 0xA0 SHL SUB AND SWAP1 PUSH4 0xDD62ED3E SWAP1 PUSH1 0x44 ADD PUSH1 0x20 PUSH1 0x40 MLOAD DUP1 DUP4 SUB DUP2 DUP7 GAS STATICCALL ISZERO DUP1 ISZERO PUSH2 0x5AD JUMPI RETURNDATASIZE PUSH1 0x0 DUP1 RETURNDATACOPY RETURNDATASIZE PUSH1 0x0 REVERT JUMPDEST POP POP POP POP PUSH1 0x40 MLOAD RETURNDATASIZE PUSH1 0x1F NOT PUSH1 0x1F DUP3 ADD AND DUP3 ADD DUP1 PUSH1 0x40 MSTORE POP DUP2 ADD SWAP1 PUSH2 0x5D1 SWAP2 SWAP1 PUSH2 0x9D1 JUMP JUMPDEST SWAP1 POP DUP3 DUP2 LT ISZERO PUSH2 0x623 JUMPI PUSH1 0x40 MLOAD PUSH3 0x461BCD PUSH1 0xE5 SHL DUP2 MSTORE PUSH1 0x20 PUSH1 0x4 DUP3 ADD MSTORE PUSH1 0x1A PUSH1 0x24 DUP3 ADD MSTORE PUSH32 0x616C6C6F77616E636520636F756E74206E6F7420656E6F756768000000000000 PUSH1 0x44 DUP3 ADD MSTORE PUSH1 0x64 ADD PUSH2 0x340 JUMP JUMPDEST DUP3 PUSH1 0x8 PUSH1 0x0 DUP3 DUP3 SLOAD PUSH2 0x635 SWAP2 SWAP1 PUSH2 0x979 JUMP JUMPDEST SWAP1 SWAP2 SSTORE POP POP CALLER PUSH1 0x0 SWAP1 DUP2 MSTORE PUSH1 0x9 PUSH1 0x20 MSTORE PUSH1 0x40 DUP2 KECCAK256 DUP1 SLOAD DUP6 SWAP3 SWAP1 PUSH2 0x659 SWAP1 DUP5 SWAP1 PUSH2 0x979 JUMP JUMPDEST SWAP1 SWAP2 SSTORE POP POP PUSH1 0x1 SLOAD PUSH1 0x40 MLOAD PUSH4 0x23B872DD PUSH1 0xE0 SHL DUP2 MSTORE CALLER PUSH1 0x4 DUP3 ADD MSTORE ADDRESS PUSH1 0x24 DUP3 ADD MSTORE PUSH1 0x44 DUP2 ADD DUP6 SWAP1 MSTORE PUSH1 0x1 PUSH1 0x1 PUSH1 0xA0 SHL SUB SWAP1 SWAP2 AND SWAP1 PUSH4 0x23B872DD SWAP1 PUSH1 0x64 ADD PUSH1 0x20 PUSH1 0x40 MLOAD DUP1 DUP4 SUB DUP2 PUSH1 0x0 DUP8 GAS CALL ISZERO DUP1 ISZERO PUSH2 0x6B5 JUMPI RETURNDATASIZE PUSH1 0x0 DUP1 RETURNDATACOPY RETURNDATASIZE PUSH1 0x0 REVERT JUMPDEST POP POP POP POP PUSH1 0x40 MLOAD RETURNDATASIZE PUSH1 0x1F NOT PUSH1 0x1F DUP3 ADD AND DUP3 ADD DUP1 PUSH1 0x40 MSTORE POP DUP2 ADD SWAP1 PUSH2 0x6D9 SWAP2 SWAP1 PUSH2 0x9AF JUMP JUMPDEST POP PUSH1 0x40 MLOAD DUP4 DUP2 MSTORE CALLER SWAP1 PUSH32 0x9E71BC8EEA02A63969F509818F2DAFB9254532904319F9DBDA79B67BD34A5F3D SWAP1 PUSH1 0x20 ADD PUSH1 0x40 MLOAD DUP1 SWAP2 SUB SWAP1 LOG2 POP POP POP JUMP JUMPDEST PUSH1 0x5 SLOAD TIMESTAMP GT PUSH2 0x735 JUMPI PUSH1 0x40 MLOAD PUSH3 0x461BCD PUSH1 0xE5 SHL DUP2 MSTORE PUSH1 0x4 ADD PUSH2 0x340 SWAP1 PUSH2 0x98C JUMP JUMPDEST CALLER PUSH2 0x73E PUSH2 0x2C0 JUMP JUMPDEST PUSH1 0x4 SSTORE TIMESTAMP PUSH1 0x3 SSTORE PUSH1 0x1 PUSH1 0x1 PUSH1 0xA0 SHL SUB DUP2 AND ISZERO PUSH2 0x789 JUMPI PUSH2 0x75D DUP2 PUSH2 0x23B JUMP JUMPDEST PUSH1 0x1 PUSH1 0x1 PUSH1 0xA0 SHL SUB DUP3 AND PUSH1 0x0 SWAP1 DUP2 MSTORE PUSH1 0x7 PUSH1 0x20 SWAP1 DUP2 MSTORE PUSH1 0x40 DUP1 DUP4 KECCAK256 SWAP4 SWAP1 SWAP4 SSTORE PUSH1 0x4 SLOAD PUSH1 0x6 SWAP1 SWAP2 MSTORE SWAP2 SWAP1 KECCAK256 SSTORE JUMPDEST PUSH1 0x0 DUP3 GT DUP1 ISZERO PUSH2 0x7A8 JUMPI POP CALLER PUSH1 0x0 SWAP1 DUP2 MSTORE PUSH1 0x9 PUSH1 0x20 MSTORE PUSH1 0x40 SWAP1 KECCAK256 SLOAD DUP3 GT ISZERO JUMPDEST PUSH2 0x7E3 JUMPI PUSH1 0x40 MLOAD PUSH3 0x461BCD PUSH1 0xE5 SHL DUP2 MSTORE PUSH1 0x20 PUSH1 0x4 DUP3 ADD MSTORE PUSH1 0xC PUSH1 0x24 DUP3 ADD MSTORE PUSH12 0x30B6B7BAB73A1032B93937B9 PUSH1 0xA1 SHL PUSH1 0x44 DUP3 ADD MSTORE PUSH1 0x64 ADD PUSH2 0x340 JUMP JUMPDEST CALLER PUSH1 0x0 SWAP1 DUP2 MSTORE PUSH1 0x9 PUSH1 0x20 MSTORE PUSH1 0x40 DUP2 KECCAK256 DUP1 SLOAD DUP5 SWAP3 SWAP1 PUSH2 0x802 SWAP1 DUP5 SWAP1 PUSH2 0x927 JUMP JUMPDEST SWAP3 POP POP DUP2 SWAP1 SSTORE POP DUP2 PUSH1 0x8 PUSH1 0x0 DUP3 DUP3 SLOAD PUSH2 0x81B SWAP2 SWAP1 PUSH2 0x927 JUMP JUMPDEST SWAP1 SWAP2 SSTORE POP POP PUSH1 0x1 SLOAD PUSH1 0x40 MLOAD PUSH4 0xA9059CBB PUSH1 0xE0 SHL DUP2 MSTORE CALLER PUSH1 0x4 DUP3 ADD MSTORE PUSH1 0x24 DUP2 ADD DUP5 SWAP1 MSTORE PUSH1 0x1 PUSH1 0x1 PUSH1 0xA0 SHL SUB SWAP1 SWAP2 AND SWAP1 PUSH4 0xA9059CBB SWAP1 PUSH1 0x44 ADD PUSH1 0x20 PUSH1 0x40 MLOAD DUP1 DUP4 SUB DUP2 PUSH1 0x0 DUP8 GAS CALL ISZERO DUP1 ISZERO PUSH2 0x871 JUMPI RETURNDATASIZE PUSH1 0x0 DUP1 RETURNDATACOPY RETURNDATASIZE PUSH1 0x0 REVERT JUMPDEST POP POP POP POP PUSH1 0x40 MLOAD RETURNDATASIZE PUSH1 0x1F NOT PUSH1 0x1F DUP3 ADD AND DUP3 ADD DUP1 PUSH1 0x40 MSTORE POP DUP2 ADD SWAP1 PUSH2 0x895 SWAP2 SWAP1 PUSH2 0x9AF JUMP JUMPDEST POP PUSH1 0x40 MLOAD DUP3 DUP2 MSTORE CALLER SWAP1 PUSH32 0x7084F5476618D8E60B11EF0D7D3F06914655ADB8793E28FF7F018D4C76D505D5 SWAP1 PUSH1 0x20 ADD PUSH2 0x49B JUMP JUMPDEST PUSH1 0x0 PUSH1 0x20 DUP3 DUP5 SUB SLT ISZERO PUSH2 0x8DA JUMPI PUSH1 0x0 DUP1 REVERT JUMPDEST DUP2 CALLDATALOAD PUSH1 0x1 PUSH1 0x1 PUSH1 0xA0 SHL SUB DUP2 AND DUP2 EQ PUSH2 0x8F1 JUMPI PUSH1 0x0 DUP1 REVERT JUMPDEST SWAP4 SWAP3 POP POP POP JUMP JUMPDEST PUSH1 0x0 PUSH1 0x20 DUP3 DUP5 SUB SLT ISZERO PUSH2 0x90A JUMPI PUSH1 0x0 DUP1 REVERT JUMPDEST POP CALLDATALOAD SWAP2 SWAP1 POP JUMP JUMPDEST PUSH4 0x4E487B71 PUSH1 0xE0 SHL PUSH1 0x0 MSTORE PUSH1 0x11 PUSH1 0x4 MSTORE PUSH1 0x24 PUSH1 0x0 REVERT JUMPDEST DUP2 DUP2 SUB DUP2 DUP2 GT ISZERO PUSH2 0x93A JUMPI PUSH2 0x93A PUSH2 0x911 JUMP JUMPDEST SWAP3 SWAP2 POP POP JUMP JUMPDEST DUP1 DUP3 MUL DUP2 ISZERO DUP3 DUP3 DIV DUP5 EQ OR PUSH2 0x93A JUMPI PUSH2 0x93A PUSH2 0x911 JUMP JUMPDEST PUSH1 0x0 DUP3 PUSH2 0x974 JUMPI PUSH4 0x4E487B71 PUSH1 0xE0 SHL PUSH1 0x0 MSTORE PUSH1 0x12 PUSH1 0x4 MSTORE PUSH1 0x24 PUSH1 0x0 REVERT JUMPDEST POP DIV SWAP1 JUMP JUMPDEST DUP1 DUP3 ADD DUP1 DUP3 GT ISZERO PUSH2 0x93A JUMPI PUSH2 0x93A PUSH2 0x911 JUMP JUMPDEST PUSH1 0x20 DUP1 DUP3 MSTORE PUSH1 0x9 SWAP1 DUP3 ADD MSTORE PUSH9 0x1B9BDD081CDD185C9D PUSH1 0xBA SHL PUSH1 0x40 DUP3 ADD MSTORE PUSH1 0x60 ADD SWAP1 JUMP JUMPDEST PUSH1 0x0 PUSH1 0x20 DUP3 DUP5 SUB SLT ISZERO PUSH2 0x9C1 JUMPI PUSH1 0x0 DUP1 REVERT JUMPDEST DUP2 MLOAD DUP1 ISZERO ISZERO DUP2 EQ PUSH2 0x8F1 JUMPI PUSH1 0x0 DUP1 REVERT JUMPDEST PUSH1 0x0 PUSH1 0x20 DUP3 DUP5 SUB SLT ISZERO PUSH2 0x9E3 JUMPI PUSH1 0x0 DUP1 REVERT JUMPDEST POP MLOAD SWAP2 SWAP1 POP JUMP INVALID LOG2 PUSH5 0x6970667358 0x22 SLT KECCAK256 0xD0 DUP15 EQ DUP10 PUSH13 0x6C99013804629A0142AD9F3A63 0xED DUP1 0xC0 0xDD 0xB5 0xBB PUSH4 0x883871D0 DELEGATECALL 0x23 DUP11 PUSH5 0x736F6C6343 STOP ADDMOD SGT STOP CALLER "
				},
				"gasEstimates": {
					"creation": {
						"codeDepositCost": "518400",
						"executionCost": "infinite",
						"totalCost": "infinite"
					},
					"external": {
						"balanceOf(address)": "2558",
						"earned(address)": "infinite",
						"getNowPerTokenReward()": "infinite",
						"getNowTime()": "247",
						"getReward()": "infinite",
						"lastUpdateTime()": "2328",
						"lp()": "2360",
						"perTokenRewardStored()": "2329",
						"perTokenRewardStoredForUser(address)": "2495",
						"rewardRate()": "2307",
						"rewards(address)": "2519",
						"stake(uint256)": "infinite",
						"startTime()": "2373",
						"token()": "2425",
						"totalSupply()": "2349",
						"withdrawn(uint256)": "infinite"
					}
				},
				"methodIdentifiers": {
					"balanceOf(address)": "70a08231",
					"earned(address)": "008cc262",
					"getNowPerTokenReward()": "1b58638d",
					"getNowTime()": "9b819d38",
					"getReward()": "3d18b912",
					"lastUpdateTime()": "c8f33c91",
					"lp()": "313c06a0",
					"perTokenRewardStored()": "8319d26a",
					"perTokenRewardStoredForUser(address)": "a83526a3",
					"rewardRate()": "7b0a47ee",
					"rewards(address)": "0700037d",
					"stake(uint256)": "a694fc3a",
					"startTime()": "78e97925",
					"token()": "fc0c546a",
					"totalSupply()": "18160ddd",
					"withdrawn(uint256)": "e6b43d01"
				}
			},
			"storageLayout": {
				"storage": [
					{
						"astId": 83,
						"contract": "StakingPool/CDPStakingPool.sol:CDPStakingPool",
						"label": "token",
						"offset": 0,
						"slot": "0",
						"type": "t_contract(IERC20)77"
					},
					{
						"astId": 86,
						"contract": "StakingPool/CDPStakingPool.sol:CDPStakingPool",
						"label": "lp",
						"offset": 0,
						"slot": "1",
						"type": "t_contract(IERC20)77"
					},
					{
						"astId": 93,
						"contract": "StakingPool/CDPStakingPool.sol:CDPStakingPool",
						"label": "rewardRate",
						"offset": 0,
						"slot": "2",
						"type": "t_uint256"
					},
					{
						"astId": 95,
						"contract": "StakingPool/CDPStakingPool.sol:CDPStakingPool",
						"label": "lastUpdateTime",
						"offset": 0,
						"slot": "3",
						"type": "t_uint256"
					},
					{
						"astId": 97,
						"contract": "StakingPool/CDPStakingPool.sol:CDPStakingPool",
						"label": "perTokenRewardStored",
						"offset": 0,
						"slot": "4",
						"type": "t_uint256"
					},
					{
						"astId": 99,
						"contract": "StakingPool/CDPStakingPool.sol:CDPStakingPool",
						"label": "startTime",
						"offset": 0,
						"slot": "5",
						"type": "t_uint256"
					},
					{
						"astId": 103,
						"contract": "StakingPool/CDPStakingPool.sol:CDPStakingPool",
						"label": "perTokenRewardStoredForUser",
						"offset": 0,
						"slot": "6",
						"type": "t_mapping(t_address,t_uint256)"
					},
					{
						"astId": 107,
						"contract": "StakingPool/CDPStakingPool.sol:CDPStakingPool",
						"label": "rewards",
						"offset": 0,
						"slot": "7",
						"type": "t_mapping(t_address,t_uint256)"
					},
					{
						"astId": 109,
						"contract": "StakingPool/CDPStakingPool.sol:CDPStakingPool",
						"label": "_totalSupply",
						"offset": 0,
						"slot": "8",
						"type": "t_uint256"
					},
					{
						"astId": 113,
						"contract": "StakingPool/CDPStakingPool.sol:CDPStakingPool",
						"label": "_balances",
						"offset": 0,
						"slot": "9",
						"type": "t_mapping(t_address,t_uint256)"
					}
				],
				"types": {
					"t_address": {
						"encoding": "inplace",
						"label": "address",
						"numberOfBytes": "20"
					},
					"t_contract(IERC20)77": {
						"encoding": "inplace",
						"label": "contract IERC20",
						"numberOfBytes": "20"
					},
					"t_mapping(t_address,t_uint256)": {
						"encoding": "mapping",
						"key": "t_address",
						"label": "mapping(address => uint256)",
						"numberOfBytes": "32",
						"value": "t_uint256"
					},
					"t_uint256": {
						"encoding": "inplace",
						"label": "uint256",
						"numberOfBytes": "32"
					}
				}
			},
			"userdoc": {
				"kind": "user",
				"methods": {
					"balanceOf(address)": {
						"notice": "获取当前用户质押量"
					}
				},
				"version": 1
			}
		}
	}
}